{
  "_format": "hh-sol-artifact-1",
  "contractName": "ERC1155_Example",
  "sourceName": "contracts/erc1155_example.sol",
  "abi": [
    {
      "inputs": [],
      "stateMutability": "nonpayable",
      "type": "constructor"
    },
    {
      "anonymous": false,
      "inputs": [
        {
          "indexed": true,
          "internalType": "address",
          "name": "account",
          "type": "address"
        },
        {
          "indexed": true,
          "internalType": "address",
          "name": "operator",
          "type": "address"
        },
        {
          "indexed": false,
          "internalType": "bool",
          "name": "approved",
          "type": "bool"
        }
      ],
      "name": "ApprovalForAll",
      "type": "event"
    },
    {
      "anonymous": false,
      "inputs": [
        {
          "indexed": true,
          "internalType": "address",
          "name": "previousOwner",
          "type": "address"
        },
        {
          "indexed": true,
          "internalType": "address",
          "name": "newOwner",
          "type": "address"
        }
      ],
      "name": "OwnershipTransferred",
      "type": "event"
    },
    {
      "anonymous": false,
      "inputs": [
        {
          "indexed": true,
          "internalType": "address",
          "name": "operator",
          "type": "address"
        },
        {
          "indexed": true,
          "internalType": "address",
          "name": "from",
          "type": "address"
        },
        {
          "indexed": true,
          "internalType": "address",
          "name": "to",
          "type": "address"
        },
        {
          "indexed": false,
          "internalType": "uint256[]",
          "name": "ids",
          "type": "uint256[]"
        },
        {
          "indexed": false,
          "internalType": "uint256[]",
          "name": "values",
          "type": "uint256[]"
        }
      ],
      "name": "TransferBatch",
      "type": "event"
    },
    {
      "anonymous": false,
      "inputs": [
        {
          "indexed": true,
          "internalType": "address",
          "name": "operator",
          "type": "address"
        },
        {
          "indexed": true,
          "internalType": "address",
          "name": "from",
          "type": "address"
        },
        {
          "indexed": true,
          "internalType": "address",
          "name": "to",
          "type": "address"
        },
        {
          "indexed": false,
          "internalType": "uint256",
          "name": "id",
          "type": "uint256"
        },
        {
          "indexed": false,
          "internalType": "uint256",
          "name": "value",
          "type": "uint256"
        }
      ],
      "name": "TransferSingle",
      "type": "event"
    },
    {
      "anonymous": false,
      "inputs": [
        {
          "indexed": false,
          "internalType": "string",
          "name": "value",
          "type": "string"
        },
        {
          "indexed": true,
          "internalType": "uint256",
          "name": "id",
          "type": "uint256"
        }
      ],
      "name": "URI",
      "type": "event"
    },
    {
      "inputs": [
        {
          "internalType": "address",
          "name": "account",
          "type": "address"
        },
        {
          "internalType": "uint256",
          "name": "id",
          "type": "uint256"
        }
      ],
      "name": "balanceOf",
      "outputs": [
        {
          "internalType": "uint256",
          "name": "",
          "type": "uint256"
        }
      ],
      "stateMutability": "view",
      "type": "function"
    },
    {
      "inputs": [
        {
          "internalType": "address[]",
          "name": "accounts",
          "type": "address[]"
        },
        {
          "internalType": "uint256[]",
          "name": "ids",
          "type": "uint256[]"
        }
      ],
      "name": "balanceOfBatch",
      "outputs": [
        {
          "internalType": "uint256[]",
          "name": "",
          "type": "uint256[]"
        }
      ],
      "stateMutability": "view",
      "type": "function"
    },
    {
      "inputs": [],
      "name": "fee",
      "outputs": [
        {
          "internalType": "uint256",
          "name": "",
          "type": "uint256"
        }
      ],
      "stateMutability": "view",
      "type": "function"
    },
    {
      "inputs": [],
      "name": "getTokenIds",
      "outputs": [
        {
          "internalType": "uint256[]",
          "name": "",
          "type": "uint256[]"
        }
      ],
      "stateMutability": "view",
      "type": "function"
    },
    {
      "inputs": [
        {
          "internalType": "address",
          "name": "account",
          "type": "address"
        },
        {
          "internalType": "address",
          "name": "operator",
          "type": "address"
        }
      ],
      "name": "isApprovedForAll",
      "outputs": [
        {
          "internalType": "bool",
          "name": "",
          "type": "bool"
        }
      ],
      "stateMutability": "view",
      "type": "function"
    },
    {
      "inputs": [
        {
          "internalType": "address",
          "name": "to",
          "type": "address"
        },
        {
          "internalType": "uint256",
          "name": "id",
          "type": "uint256"
        },
        {
          "internalType": "uint256",
          "name": "amount",
          "type": "uint256"
        }
      ],
      "name": "mint",
      "outputs": [],
      "stateMutability": "payable",
      "type": "function"
    },
    {
      "inputs": [],
      "name": "owner",
      "outputs": [
        {
          "internalType": "address",
          "name": "",
          "type": "address"
        }
      ],
      "stateMutability": "view",
      "type": "function"
    },
    {
      "inputs": [],
      "name": "renounceOwnership",
      "outputs": [],
      "stateMutability": "nonpayable",
      "type": "function"
    },
    {
      "inputs": [
        {
          "internalType": "address",
          "name": "from",
          "type": "address"
        },
        {
          "internalType": "address",
          "name": "to",
          "type": "address"
        },
        {
          "internalType": "uint256[]",
          "name": "ids",
          "type": "uint256[]"
        },
        {
          "internalType": "uint256[]",
          "name": "amounts",
          "type": "uint256[]"
        },
        {
          "internalType": "bytes",
          "name": "data",
          "type": "bytes"
        }
      ],
      "name": "safeBatchTransferFrom",
      "outputs": [],
      "stateMutability": "nonpayable",
      "type": "function"
    },
    {
      "inputs": [
        {
          "internalType": "address",
          "name": "from",
          "type": "address"
        },
        {
          "internalType": "address",
          "name": "to",
          "type": "address"
        },
        {
          "internalType": "uint256",
          "name": "id",
          "type": "uint256"
        },
        {
          "internalType": "uint256",
          "name": "amount",
          "type": "uint256"
        },
        {
          "internalType": "bytes",
          "name": "data",
          "type": "bytes"
        }
      ],
      "name": "safeTransferFrom",
      "outputs": [],
      "stateMutability": "nonpayable",
      "type": "function"
    },
    {
      "inputs": [
        {
          "internalType": "address",
          "name": "operator",
          "type": "address"
        },
        {
          "internalType": "bool",
          "name": "approved",
          "type": "bool"
        }
      ],
      "name": "setApprovalForAll",
      "outputs": [],
      "stateMutability": "nonpayable",
      "type": "function"
    },
    {
      "inputs": [
        {
          "internalType": "uint256",
          "name": "newFee",
          "type": "uint256"
        }
      ],
      "name": "setFee",
      "outputs": [],
      "stateMutability": "nonpayable",
      "type": "function"
    },
    {
      "inputs": [
        {
          "internalType": "bytes4",
          "name": "interfaceId",
          "type": "bytes4"
        }
      ],
      "name": "supportsInterface",
      "outputs": [
        {
          "internalType": "bool",
          "name": "",
          "type": "bool"
        }
      ],
      "stateMutability": "view",
      "type": "function"
    },
    {
      "inputs": [
        {
          "internalType": "address",
          "name": "newOwner",
          "type": "address"
        }
      ],
      "name": "transferOwnership",
      "outputs": [],
      "stateMutability": "nonpayable",
      "type": "function"
    },
    {
      "inputs": [
        {
          "internalType": "uint256",
          "name": "",
          "type": "uint256"
        }
      ],
      "name": "uri",
      "outputs": [
        {
          "internalType": "string",
          "name": "",
          "type": "string"
        }
      ],
      "stateMutability": "view",
      "type": "function"
    }
  ],
  "bytecode": "0x6080604052662386f26fc100006005553480156200001c57600080fd5b50604051806060016040528060278152602001620031f56027913962000048816200006f60201b60201c565b50620000696200005d6200008b60201b60201c565b6200009360201b60201c565b6200026e565b80600290805190602001906200008792919062000159565b5050565b600033905090565b6000600360009054906101000a900473ffffffffffffffffffffffffffffffffffffffff16905081600360006101000a81548173ffffffffffffffffffffffffffffffffffffffff021916908373ffffffffffffffffffffffffffffffffffffffff1602179055508173ffffffffffffffffffffffffffffffffffffffff168173ffffffffffffffffffffffffffffffffffffffff167f8be0079c531659141344cd1fd0a4f28419497f9722a3daafe3b4186f6b6457e060405160405180910390a35050565b828054620001679062000238565b90600052602060002090601f0160209004810192826200018b5760008555620001d7565b82601f10620001a657805160ff1916838001178555620001d7565b82800160010185558215620001d7579182015b82811115620001d6578251825591602001919060010190620001b9565b5b509050620001e69190620001ea565b5090565b5b8082111562000205576000816000905550600101620001eb565b5090565b7f4e487b7100000000000000000000000000000000000000000000000000000000600052602260045260246000fd5b600060028204905060018216806200025157607f821691505b6020821081141562000268576200026762000209565b5b50919050565b612f77806200027e6000396000f3fe6080604052600436106100e75760003560e01c806369fe0e2d1161008a578063ddca3f4311610059578063ddca3f43146102e4578063e985e9c51461030f578063f242432a1461034c578063f2fde38b14610375576100e7565b806369fe0e2d14610250578063715018a6146102795780638da5cb5b14610290578063a22cb465146102bb576100e7565b8063156e29f6116100c6578063156e29f6146101a35780632eb2c2d6146101bf5780634e1273f4146101e857806367f718a914610225576100e7565b8062fdd58e146100ec57806301ffc9a7146101295780630e89341c14610166575b600080fd5b3480156100f857600080fd5b50610113600480360381019061010e9190611b66565b61039e565b6040516101209190611bb5565b60405180910390f35b34801561013557600080fd5b50610150600480360381019061014b9190611c28565b610467565b60405161015d9190611c70565b60405180910390f35b34801561017257600080fd5b5061018d60048036038101906101889190611c8b565b610549565b60405161019a9190611d51565b60405180910390f35b6101bd60048036038101906101b89190611d73565b6105dd565b005b3480156101cb57600080fd5b506101e660048036038101906101e19190611fc3565b61071a565b005b3480156101f457600080fd5b5061020f600480360381019061020a9190612155565b6107bb565b60405161021c919061228b565b60405180910390f35b34801561023157600080fd5b5061023a6108d4565b604051610247919061228b565b60405180910390f35b34801561025c57600080fd5b5061027760048036038101906102729190611c8b565b61092c565b005b34801561028557600080fd5b5061028e61093e565b005b34801561029c57600080fd5b506102a5610952565b6040516102b291906122bc565b60405180910390f35b3480156102c757600080fd5b506102e260048036038101906102dd9190612303565b61097c565b005b3480156102f057600080fd5b506102f9610992565b6040516103069190611bb5565b60405180910390f35b34801561031b57600080fd5b5061033660048036038101906103319190612343565b61099c565b6040516103439190611c70565b60405180910390f35b34801561035857600080fd5b50610373600480360381019061036e9190612383565b610a30565b005b34801561038157600080fd5b5061039c6004803603810190610397919061241a565b610ad1565b005b60008073ffffffffffffffffffffffffffffffffffffffff168373ffffffffffffffffffffffffffffffffffffffff16141561040f576040517f08c379a0000000000000000000000000000000000000000000000000000000008152600401610406906124b9565b60405180910390fd5b60008083815260200190815260200160002060008473ffffffffffffffffffffffffffffffffffffffff1673ffffffffffffffffffffffffffffffffffffffff16815260200190815260200160002054905092915050565b60007fd9b67a26000000000000000000000000000000000000000000000000000000007bffffffffffffffffffffffffffffffffffffffffffffffffffffffff1916827bffffffffffffffffffffffffffffffffffffffffffffffffffffffff1916148061053257507f0e89341c000000000000000000000000000000000000000000000000000000007bffffffffffffffffffffffffffffffffffffffffffffffffffffffff1916827bffffffffffffffffffffffffffffffffffffffffffffffffffffffff1916145b80610542575061054182610b55565b5b9050919050565b60606002805461055890612508565b80601f016020809104026020016040519081016040528092919081815260200182805461058490612508565b80156105d15780601f106105a6576101008083540402835291602001916105d1565b820191906000526020600020905b8154815290600101906020018083116105b457829003601f168201915b50505050509050919050565b600554341015610622576040517f08c379a000000000000000000000000000000000000000000000000000000000815260040161061990612586565b60405180910390fd5b61063d83838360405180602001604052806000815250610bbf565b610697600480548060200260200160405190810160405280929190818152602001828054801561068c57602002820191906000526020600020905b815481526020019060010190808311610678575b505050505083610d70565b6106c55760048290806001815401808255809150506001900390600052602060002001600090919091909150555b6106cd610952565b73ffffffffffffffffffffffffffffffffffffffff166108fc6005549081150290604051600060405180830381858888f19350505050158015610714573d6000803e3d6000fd5b50505050565b610722610dcc565b73ffffffffffffffffffffffffffffffffffffffff168573ffffffffffffffffffffffffffffffffffffffff161480610768575061076785610762610dcc565b61099c565b5b6107a7576040517f08c379a000000000000000000000000000000000000000000000000000000000815260040161079e90612618565b60405180910390fd5b6107b48585858585610dd4565b5050505050565b60608151835114610801576040517f08c379a00000000000000000000000000000000000000000000000000000000081526004016107f8906126aa565b60405180910390fd5b6000835167ffffffffffffffff81111561081e5761081d611dcb565b5b60405190808252806020026020018201604052801561084c5781602001602082028036833780820191505090505b50905060005b84518110156108c957610899858281518110610871576108706126ca565b5b602002602001015185838151811061088c5761088b6126ca565b5b602002602001015161039e565b8282815181106108ac576108ab6126ca565b5b602002602001018181525050806108c290612728565b9050610852565b508091505092915050565b6060600480548060200260200160405190810160405280929190818152602001828054801561092257602002820191906000526020600020905b81548152602001906001019080831161090e575b5050505050905090565b6109346110f6565b8060058190555050565b6109466110f6565b6109506000611174565b565b6000600360009054906101000a900473ffffffffffffffffffffffffffffffffffffffff16905090565b61098e610987610dcc565b838361123a565b5050565b6000600554905090565b6000600160008473ffffffffffffffffffffffffffffffffffffffff1673ffffffffffffffffffffffffffffffffffffffff16815260200190815260200160002060008373ffffffffffffffffffffffffffffffffffffffff1673ffffffffffffffffffffffffffffffffffffffff16815260200190815260200160002060009054906101000a900460ff16905092915050565b610a38610dcc565b73ffffffffffffffffffffffffffffffffffffffff168573ffffffffffffffffffffffffffffffffffffffff161480610a7e5750610a7d85610a78610dcc565b61099c565b5b610abd576040517f08c379a0000000000000000000000000000000000000000000000000000000008152600401610ab490612618565b60405180910390fd5b610aca85858585856113a7565b5050505050565b610ad96110f6565b600073ffffffffffffffffffffffffffffffffffffffff168173ffffffffffffffffffffffffffffffffffffffff161415610b49576040517f08c379a0000000000000000000000000000000000000000000000000000000008152600401610b40906127e3565b60405180910390fd5b610b5281611174565b50565b60007f01ffc9a7000000000000000000000000000000000000000000000000000000007bffffffffffffffffffffffffffffffffffffffffffffffffffffffff1916827bffffffffffffffffffffffffffffffffffffffffffffffffffffffff1916149050919050565b600073ffffffffffffffffffffffffffffffffffffffff168473ffffffffffffffffffffffffffffffffffffffff161415610c2f576040517f08c379a0000000000000000000000000000000000000000000000000000000008152600401610c2690612875565b60405180910390fd5b6000610c39610dcc565b90506000610c4685611643565b90506000610c5385611643565b9050610c64836000898585896116bd565b8460008088815260200190815260200160002060008973ffffffffffffffffffffffffffffffffffffffff1673ffffffffffffffffffffffffffffffffffffffff1681526020019081526020016000206000828254610cc39190612895565b925050819055508673ffffffffffffffffffffffffffffffffffffffff16600073ffffffffffffffffffffffffffffffffffffffff168473ffffffffffffffffffffffffffffffffffffffff167fc3d58168c5ae7397731d063d5bbf3d657854427343f4c083240f7aacaa2d0f628989604051610d419291906128eb565b60405180910390a4610d58836000898585896116c5565b610d67836000898989896116cd565b50505050505050565b600080600090505b8351811015610dc05782848281518110610d9557610d946126ca565b5b60200260200101511415610dad576001915050610dc6565b8080610db890612728565b915050610d78565b50600090505b92915050565b600033905090565b8151835114610e18576040517f08c379a0000000000000000000000000000000000000000000000000000000008152600401610e0f90612986565b60405180910390fd5b600073ffffffffffffffffffffffffffffffffffffffff168473ffffffffffffffffffffffffffffffffffffffff161415610e88576040517f08c379a0000000000000000000000000000000000000000000000000000000008152600401610e7f90612a18565b60405180910390fd5b6000610e92610dcc565b9050610ea28187878787876116bd565b60005b8451811015611053576000858281518110610ec357610ec26126ca565b5b602002602001015190506000858381518110610ee257610ee16126ca565b5b60200260200101519050600080600084815260200190815260200160002060008b73ffffffffffffffffffffffffffffffffffffffff1673ffffffffffffffffffffffffffffffffffffffff16815260200190815260200160002054905081811015610f83576040517f08c379a0000000000000000000000000000000000000000000000000000000008152600401610f7a90612aaa565b60405180910390fd5b81810360008085815260200190815260200160002060008c73ffffffffffffffffffffffffffffffffffffffff1673ffffffffffffffffffffffffffffffffffffffff168152602001908152602001600020819055508160008085815260200190815260200160002060008b73ffffffffffffffffffffffffffffffffffffffff1673ffffffffffffffffffffffffffffffffffffffff16815260200190815260200160002060008282546110389190612895565b925050819055505050508061104c90612728565b9050610ea5565b508473ffffffffffffffffffffffffffffffffffffffff168673ffffffffffffffffffffffffffffffffffffffff168273ffffffffffffffffffffffffffffffffffffffff167f4a39dc06d4c0dbc64b70af90fd698a233a518aa5d07e595d983b8c0526c8f7fb87876040516110ca929190612aca565b60405180910390a46110e08187878787876116c5565b6110ee8187878787876118b4565b505050505050565b6110fe610dcc565b73ffffffffffffffffffffffffffffffffffffffff1661111c610952565b73ffffffffffffffffffffffffffffffffffffffff1614611172576040517f08c379a000000000000000000000000000000000000000000000000000000000815260040161116990612b4d565b60405180910390fd5b565b6000600360009054906101000a900473ffffffffffffffffffffffffffffffffffffffff16905081600360006101000a81548173ffffffffffffffffffffffffffffffffffffffff021916908373ffffffffffffffffffffffffffffffffffffffff1602179055508173ffffffffffffffffffffffffffffffffffffffff168173ffffffffffffffffffffffffffffffffffffffff167f8be0079c531659141344cd1fd0a4f28419497f9722a3daafe3b4186f6b6457e060405160405180910390a35050565b8173ffffffffffffffffffffffffffffffffffffffff168373ffffffffffffffffffffffffffffffffffffffff1614156112a9576040517f08c379a00000000000000000000000000000000000000000000000000000000081526004016112a090612bdf565b60405180910390fd5b80600160008573ffffffffffffffffffffffffffffffffffffffff1673ffffffffffffffffffffffffffffffffffffffff16815260200190815260200160002060008473ffffffffffffffffffffffffffffffffffffffff1673ffffffffffffffffffffffffffffffffffffffff16815260200190815260200160002060006101000a81548160ff0219169083151502179055508173ffffffffffffffffffffffffffffffffffffffff168373ffffffffffffffffffffffffffffffffffffffff167f17307eab39ab6107e8899845ad3d59bd9653f200f220920489ca2b5937696c318360405161139a9190611c70565b60405180910390a3505050565b600073ffffffffffffffffffffffffffffffffffffffff168473ffffffffffffffffffffffffffffffffffffffff161415611417576040517f08c379a000000000000000000000000000000000000000000000000000000000815260040161140e90612a18565b60405180910390fd5b6000611421610dcc565b9050600061142e85611643565b9050600061143b85611643565b905061144b8389898585896116bd565b600080600088815260200190815260200160002060008a73ffffffffffffffffffffffffffffffffffffffff1673ffffffffffffffffffffffffffffffffffffffff168152602001908152602001600020549050858110156114e2576040517f08c379a00000000000000000000000000000000000000000000000000000000081526004016114d990612aaa565b60405180910390fd5b85810360008089815260200190815260200160002060008b73ffffffffffffffffffffffffffffffffffffffff1673ffffffffffffffffffffffffffffffffffffffff168152602001908152602001600020819055508560008089815260200190815260200160002060008a73ffffffffffffffffffffffffffffffffffffffff1673ffffffffffffffffffffffffffffffffffffffff16815260200190815260200160002060008282546115979190612895565b925050819055508773ffffffffffffffffffffffffffffffffffffffff168973ffffffffffffffffffffffffffffffffffffffff168573ffffffffffffffffffffffffffffffffffffffff167fc3d58168c5ae7397731d063d5bbf3d657854427343f4c083240f7aacaa2d0f628a8a6040516116149291906128eb565b60405180910390a461162a848a8a86868a6116c5565b611638848a8a8a8a8a6116cd565b505050505050505050565b60606000600167ffffffffffffffff81111561166257611661611dcb565b5b6040519080825280602002602001820160405280156116905781602001602082028036833780820191505090505b50905082816000815181106116a8576116a76126ca565b5b60200260200101818152505080915050919050565b505050505050565b505050505050565b6116ec8473ffffffffffffffffffffffffffffffffffffffff16611a9b565b156118ac578373ffffffffffffffffffffffffffffffffffffffff1663f23a6e6187878686866040518663ffffffff1660e01b8152600401611732959493929190612c54565b602060405180830381600087803b15801561174c57600080fd5b505af192505050801561177d57506040513d601f19601f8201168201806040525081019061177a9190612cc3565b60015b61182357611789612cfd565b806308c379a014156117e6575061179e612d1f565b806117a957506117e8565b806040517f08c379a00000000000000000000000000000000000000000000000000000000081526004016117dd9190611d51565b60405180910390fd5b505b6040517f08c379a000000000000000000000000000000000000000000000000000000000815260040161181a90612e27565b60405180910390fd5b63f23a6e6160e01b7bffffffffffffffffffffffffffffffffffffffffffffffffffffffff1916817bffffffffffffffffffffffffffffffffffffffffffffffffffffffff1916146118aa576040517f08c379a00000000000000000000000000000000000000000000000000000000081526004016118a190612eb9565b60405180910390fd5b505b505050505050565b6118d38473ffffffffffffffffffffffffffffffffffffffff16611a9b565b15611a93578373ffffffffffffffffffffffffffffffffffffffff1663bc197c8187878686866040518663ffffffff1660e01b8152600401611919959493929190612ed9565b602060405180830381600087803b15801561193357600080fd5b505af192505050801561196457506040513d601f19601f820116820180604052508101906119619190612cc3565b60015b611a0a57611970612cfd565b806308c379a014156119cd5750611985612d1f565b8061199057506119cf565b806040517f08c379a00000000000000000000000000000000000000000000000000000000081526004016119c49190611d51565b60405180910390fd5b505b6040517f08c379a0000000000000000000000000000000000000000000000000000000008152600401611a0190612e27565b60405180910390fd5b63bc197c8160e01b7bffffffffffffffffffffffffffffffffffffffffffffffffffffffff1916817bffffffffffffffffffffffffffffffffffffffffffffffffffffffff191614611a91576040517f08c379a0000000000000000000000000000000000000000000000000000000008152600401611a8890612eb9565b60405180910390fd5b505b505050505050565b6000808273ffffffffffffffffffffffffffffffffffffffff163b119050919050565b6000604051905090565b600080fd5b600080fd5b600073ffffffffffffffffffffffffffffffffffffffff82169050919050565b6000611afd82611ad2565b9050919050565b611b0d81611af2565b8114611b1857600080fd5b50565b600081359050611b2a81611b04565b92915050565b6000819050919050565b611b4381611b30565b8114611b4e57600080fd5b50565b600081359050611b6081611b3a565b92915050565b60008060408385031215611b7d57611b7c611ac8565b5b6000611b8b85828601611b1b565b9250506020611b9c85828601611b51565b9150509250929050565b611baf81611b30565b82525050565b6000602082019050611bca6000830184611ba6565b92915050565b60007fffffffff0000000000000000000000000000000000000000000000000000000082169050919050565b611c0581611bd0565b8114611c1057600080fd5b50565b600081359050611c2281611bfc565b92915050565b600060208284031215611c3e57611c3d611ac8565b5b6000611c4c84828501611c13565b91505092915050565b60008115159050919050565b611c6a81611c55565b82525050565b6000602082019050611c856000830184611c61565b92915050565b600060208284031215611ca157611ca0611ac8565b5b6000611caf84828501611b51565b91505092915050565b600081519050919050565b600082825260208201905092915050565b60005b83811015611cf2578082015181840152602081019050611cd7565b83811115611d01576000848401525b50505050565b6000601f19601f8301169050919050565b6000611d2382611cb8565b611d2d8185611cc3565b9350611d3d818560208601611cd4565b611d4681611d07565b840191505092915050565b60006020820190508181036000830152611d6b8184611d18565b905092915050565b600080600060608486031215611d8c57611d8b611ac8565b5b6000611d9a86828701611b1b565b9350506020611dab86828701611b51565b9250506040611dbc86828701611b51565b9150509250925092565b600080fd5b7f4e487b7100000000000000000000000000000000000000000000000000000000600052604160045260246000fd5b611e0382611d07565b810181811067ffffffffffffffff82111715611e2257611e21611dcb565b5b80604052505050565b6000611e35611abe565b9050611e418282611dfa565b919050565b600067ffffffffffffffff821115611e6157611e60611dcb565b5b602082029050602081019050919050565b600080fd5b6000611e8a611e8584611e46565b611e2b565b90508083825260208201905060208402830185811115611ead57611eac611e72565b5b835b81811015611ed65780611ec28882611b51565b845260208401935050602081019050611eaf565b5050509392505050565b600082601f830112611ef557611ef4611dc6565b5b8135611f05848260208601611e77565b91505092915050565b600080fd5b600067ffffffffffffffff821115611f2e57611f2d611dcb565b5b611f3782611d07565b9050602081019050919050565b82818337600083830152505050565b6000611f66611f6184611f13565b611e2b565b905082815260208101848484011115611f8257611f81611f0e565b5b611f8d848285611f44565b509392505050565b600082601f830112611faa57611fa9611dc6565b5b8135611fba848260208601611f53565b91505092915050565b600080600080600060a08688031215611fdf57611fde611ac8565b5b6000611fed88828901611b1b565b9550506020611ffe88828901611b1b565b945050604086013567ffffffffffffffff81111561201f5761201e611acd565b5b61202b88828901611ee0565b935050606086013567ffffffffffffffff81111561204c5761204b611acd565b5b61205888828901611ee0565b925050608086013567ffffffffffffffff81111561207957612078611acd565b5b61208588828901611f95565b9150509295509295909350565b600067ffffffffffffffff8211156120ad576120ac611dcb565b5b602082029050602081019050919050565b60006120d16120cc84612092565b611e2b565b905080838252602082019050602084028301858111156120f4576120f3611e72565b5b835b8181101561211d57806121098882611b1b565b8452602084019350506020810190506120f6565b5050509392505050565b600082601f83011261213c5761213b611dc6565b5b813561214c8482602086016120be565b91505092915050565b6000806040838503121561216c5761216b611ac8565b5b600083013567ffffffffffffffff81111561218a57612189611acd565b5b61219685828601612127565b925050602083013567ffffffffffffffff8111156121b7576121b6611acd565b5b6121c385828601611ee0565b9150509250929050565b600081519050919050565b600082825260208201905092915050565b6000819050602082019050919050565b61220281611b30565b82525050565b600061221483836121f9565b60208301905092915050565b6000602082019050919050565b6000612238826121cd565b61224281856121d8565b935061224d836121e9565b8060005b8381101561227e5781516122658882612208565b975061227083612220565b925050600181019050612251565b5085935050505092915050565b600060208201905081810360008301526122a5818461222d565b905092915050565b6122b681611af2565b82525050565b60006020820190506122d160008301846122ad565b92915050565b6122e081611c55565b81146122eb57600080fd5b50565b6000813590506122fd816122d7565b92915050565b6000806040838503121561231a57612319611ac8565b5b600061232885828601611b1b565b9250506020612339858286016122ee565b9150509250929050565b6000806040838503121561235a57612359611ac8565b5b600061236885828601611b1b565b925050602061237985828601611b1b565b9150509250929050565b600080600080600060a0868803121561239f5761239e611ac8565b5b60006123ad88828901611b1b565b95505060206123be88828901611b1b565b94505060406123cf88828901611b51565b93505060606123e088828901611b51565b925050608086013567ffffffffffffffff81111561240157612400611acd565b5b61240d88828901611f95565b9150509295509295909350565b6000602082840312156124305761242f611ac8565b5b600061243e84828501611b1b565b91505092915050565b7f455243313135353a2061646472657373207a65726f206973206e6f742061207660008201527f616c6964206f776e657200000000000000000000000000000000000000000000602082015250565b60006124a3602a83611cc3565b91506124ae82612447565b604082019050919050565b600060208201905081810360008301526124d281612496565b9050919050565b7f4e487b7100000000000000000000000000000000000000000000000000000000600052602260045260246000fd5b6000600282049050600182168061252057607f821691505b60208210811415612534576125336124d9565b5b50919050565b7f4e6f7420656e6f7567682045544820746f207061792066656500000000000000600082015250565b6000612570601983611cc3565b915061257b8261253a565b602082019050919050565b6000602082019050818103600083015261259f81612563565b9050919050565b7f455243313135353a2063616c6c6572206973206e6f7420746f6b656e206f776e60008201527f6572206f7220617070726f766564000000000000000000000000000000000000602082015250565b6000612602602e83611cc3565b915061260d826125a6565b604082019050919050565b60006020820190508181036000830152612631816125f5565b9050919050565b7f455243313135353a206163636f756e747320616e6420696473206c656e67746860008201527f206d69736d617463680000000000000000000000000000000000000000000000602082015250565b6000612694602983611cc3565b915061269f82612638565b604082019050919050565b600060208201905081810360008301526126c381612687565b9050919050565b7f4e487b7100000000000000000000000000000000000000000000000000000000600052603260045260246000fd5b7f4e487b7100000000000000000000000000000000000000000000000000000000600052601160045260246000fd5b600061273382611b30565b91507fffffffffffffffffffffffffffffffffffffffffffffffffffffffffffffffff821415612766576127656126f9565b5b600182019050919050565b7f4f776e61626c653a206e6577206f776e657220697320746865207a65726f206160008201527f6464726573730000000000000000000000000000000000000000000000000000602082015250565b60006127cd602683611cc3565b91506127d882612771565b604082019050919050565b600060208201905081810360008301526127fc816127c0565b9050919050565b7f455243313135353a206d696e7420746f20746865207a65726f2061646472657360008201527f7300000000000000000000000000000000000000000000000000000000000000602082015250565b600061285f602183611cc3565b915061286a82612803565b604082019050919050565b6000602082019050818103600083015261288e81612852565b9050919050565b60006128a082611b30565b91506128ab83611b30565b9250827fffffffffffffffffffffffffffffffffffffffffffffffffffffffffffffffff038211156128e0576128df6126f9565b5b828201905092915050565b60006040820190506129006000830185611ba6565b61290d6020830184611ba6565b9392505050565b7f455243313135353a2069647320616e6420616d6f756e7473206c656e6774682060008201527f6d69736d61746368000000000000000000000000000000000000000000000000602082015250565b6000612970602883611cc3565b915061297b82612914565b604082019050919050565b6000602082019050818103600083015261299f81612963565b9050919050565b7f455243313135353a207472616e7366657220746f20746865207a65726f20616460008201527f6472657373000000000000000000000000000000000000000000000000000000602082015250565b6000612a02602583611cc3565b9150612a0d826129a6565b604082019050919050565b60006020820190508181036000830152612a31816129f5565b9050919050565b7f455243313135353a20696e73756666696369656e742062616c616e636520666f60008201527f72207472616e7366657200000000000000000000000000000000000000000000602082015250565b6000612a94602a83611cc3565b9150612a9f82612a38565b604082019050919050565b60006020820190508181036000830152612ac381612a87565b9050919050565b60006040820190508181036000830152612ae4818561222d565b90508181036020830152612af8818461222d565b90509392505050565b7f4f776e61626c653a2063616c6c6572206973206e6f7420746865206f776e6572600082015250565b6000612b37602083611cc3565b9150612b4282612b01565b602082019050919050565b60006020820190508181036000830152612b6681612b2a565b9050919050565b7f455243313135353a2073657474696e6720617070726f76616c2073746174757360008201527f20666f722073656c660000000000000000000000000000000000000000000000602082015250565b6000612bc9602983611cc3565b9150612bd482612b6d565b604082019050919050565b60006020820190508181036000830152612bf881612bbc565b9050919050565b600081519050919050565b600082825260208201905092915050565b6000612c2682612bff565b612c308185612c0a565b9350612c40818560208601611cd4565b612c4981611d07565b840191505092915050565b600060a082019050612c6960008301886122ad565b612c7660208301876122ad565b612c836040830186611ba6565b612c906060830185611ba6565b8181036080830152612ca28184612c1b565b90509695505050505050565b600081519050612cbd81611bfc565b92915050565b600060208284031215612cd957612cd8611ac8565b5b6000612ce784828501612cae565b91505092915050565b60008160e01c9050919050565b600060033d1115612d1c5760046000803e612d19600051612cf0565b90505b90565b600060443d1015612d2f57612db2565b612d37611abe565b60043d036004823e80513d602482011167ffffffffffffffff82111715612d5f575050612db2565b808201805167ffffffffffffffff811115612d7d5750505050612db2565b80602083010160043d038501811115612d9a575050505050612db2565b612da982602001850186611dfa565b82955050505050505b90565b7f455243313135353a207472616e7366657220746f206e6f6e2d4552433131353560008201527f526563656976657220696d706c656d656e746572000000000000000000000000602082015250565b6000612e11603483611cc3565b9150612e1c82612db5565b604082019050919050565b60006020820190508181036000830152612e4081612e04565b9050919050565b7f455243313135353a204552433131353552656365697665722072656a6563746560008201527f6420746f6b656e73000000000000000000000000000000000000000000000000602082015250565b6000612ea3602883611cc3565b9150612eae82612e47565b604082019050919050565b60006020820190508181036000830152612ed281612e96565b9050919050565b600060a082019050612eee60008301886122ad565b612efb60208301876122ad565b8181036040830152612f0d818661222d565b90508181036060830152612f21818561222d565b90508181036080830152612f358184612c1b565b9050969550505050505056fea26469706673582212202d2ff1bf7815917256a9ebcc1965d2608260562d4384cab52443d684a03c864064736f6c6343000809003368747470733a2f2f67616d652e6578616d706c652f6170692f6974656d2f7b69647d2e6a736f6e",
  "linkReferences": {},
  "deployedLinkReferences": {}
}