{
  "_format": "hh-sol-artifact-1",
  "contractName": "ERC721_Example",
  "sourceName": "contracts/ERC721_Example.sol",
  "abi": [
    {
      "inputs": [],
      "stateMutability": "nonpayable",
      "type": "constructor"
    },
    {
      "anonymous": false,
      "inputs": [
        {
          "indexed": true,
          "internalType": "address",
          "name": "owner",
          "type": "address"
        },
        {
          "indexed": true,
          "internalType": "address",
          "name": "approved",
          "type": "address"
        },
        {
          "indexed": true,
          "internalType": "uint256",
          "name": "tokenId",
          "type": "uint256"
        }
      ],
      "name": "Approval",
      "type": "event"
    },
    {
      "anonymous": false,
      "inputs": [
        {
          "indexed": true,
          "internalType": "address",
          "name": "owner",
          "type": "address"
        },
        {
          "indexed": true,
          "internalType": "address",
          "name": "operator",
          "type": "address"
        },
        {
          "indexed": false,
          "internalType": "bool",
          "name": "approved",
          "type": "bool"
        }
      ],
      "name": "ApprovalForAll",
      "type": "event"
    },
    {
      "anonymous": false,
      "inputs": [
        {
          "indexed": true,
          "internalType": "address",
          "name": "owner",
          "type": "address"
        },
        {
          "indexed": true,
          "internalType": "uint256",
          "name": "tokenId",
          "type": "uint256"
        },
        {
          "indexed": false,
          "internalType": "string",
          "name": "tokenURI",
          "type": "string"
        }
      ],
      "name": "NFT_Created",
      "type": "event"
    },
    {
      "anonymous": false,
      "inputs": [
        {
          "indexed": true,
          "internalType": "address",
          "name": "previousOwner",
          "type": "address"
        },
        {
          "indexed": true,
          "internalType": "address",
          "name": "newOwner",
          "type": "address"
        }
      ],
      "name": "OwnershipTransferred",
      "type": "event"
    },
    {
      "anonymous": false,
      "inputs": [
        {
          "indexed": true,
          "internalType": "address",
          "name": "from",
          "type": "address"
        },
        {
          "indexed": true,
          "internalType": "address",
          "name": "to",
          "type": "address"
        },
        {
          "indexed": true,
          "internalType": "uint256",
          "name": "tokenId",
          "type": "uint256"
        }
      ],
      "name": "Transfer",
      "type": "event"
    },
    {
      "inputs": [
        {
          "internalType": "address",
          "name": "to",
          "type": "address"
        },
        {
          "internalType": "uint256",
          "name": "tokenId",
          "type": "uint256"
        }
      ],
      "name": "approve",
      "outputs": [],
      "stateMutability": "nonpayable",
      "type": "function"
    },
    {
      "inputs": [
        {
          "internalType": "address",
          "name": "owner",
          "type": "address"
        }
      ],
      "name": "balanceOf",
      "outputs": [
        {
          "internalType": "uint256",
          "name": "",
          "type": "uint256"
        }
      ],
      "stateMutability": "view",
      "type": "function"
    },
    {
      "inputs": [
        {
          "internalType": "uint256",
          "name": "tokenId",
          "type": "uint256"
        }
      ],
      "name": "getApproved",
      "outputs": [
        {
          "internalType": "address",
          "name": "",
          "type": "address"
        }
      ],
      "stateMutability": "view",
      "type": "function"
    },
    {
      "inputs": [],
      "name": "getPrice",
      "outputs": [
        {
          "internalType": "uint256",
          "name": "",
          "type": "uint256"
        }
      ],
      "stateMutability": "view",
      "type": "function"
    },
    {
      "inputs": [
        {
          "internalType": "address",
          "name": "owner",
          "type": "address"
        },
        {
          "internalType": "address",
          "name": "operator",
          "type": "address"
        }
      ],
      "name": "isApprovedForAll",
      "outputs": [
        {
          "internalType": "bool",
          "name": "",
          "type": "bool"
        }
      ],
      "stateMutability": "view",
      "type": "function"
    },
    {
      "inputs": [
        {
          "internalType": "address",
          "name": "to",
          "type": "address"
        },
        {
          "internalType": "string",
          "name": "tokenURI",
          "type": "string"
        }
      ],
      "name": "mint",
      "outputs": [],
      "stateMutability": "payable",
      "type": "function"
    },
    {
      "inputs": [],
      "name": "name",
      "outputs": [
        {
          "internalType": "string",
          "name": "",
          "type": "string"
        }
      ],
      "stateMutability": "view",
      "type": "function"
    },
    {
      "inputs": [],
      "name": "owner",
      "outputs": [
        {
          "internalType": "address",
          "name": "",
          "type": "address"
        }
      ],
      "stateMutability": "view",
      "type": "function"
    },
    {
      "inputs": [
        {
          "internalType": "uint256",
          "name": "tokenId",
          "type": "uint256"
        }
      ],
      "name": "ownerOf",
      "outputs": [
        {
          "internalType": "address",
          "name": "",
          "type": "address"
        }
      ],
      "stateMutability": "view",
      "type": "function"
    },
    {
      "inputs": [],
      "name": "renounceOwnership",
      "outputs": [],
      "stateMutability": "nonpayable",
      "type": "function"
    },
    {
      "inputs": [
        {
          "internalType": "address",
          "name": "from",
          "type": "address"
        },
        {
          "internalType": "address",
          "name": "to",
          "type": "address"
        },
        {
          "internalType": "uint256",
          "name": "tokenId",
          "type": "uint256"
        }
      ],
      "name": "safeTransferFrom",
      "outputs": [],
      "stateMutability": "nonpayable",
      "type": "function"
    },
    {
      "inputs": [
        {
          "internalType": "address",
          "name": "from",
          "type": "address"
        },
        {
          "internalType": "address",
          "name": "to",
          "type": "address"
        },
        {
          "internalType": "uint256",
          "name": "tokenId",
          "type": "uint256"
        },
        {
          "internalType": "bytes",
          "name": "data",
          "type": "bytes"
        }
      ],
      "name": "safeTransferFrom",
      "outputs": [],
      "stateMutability": "nonpayable",
      "type": "function"
    },
    {
      "inputs": [
        {
          "internalType": "address",
          "name": "operator",
          "type": "address"
        },
        {
          "internalType": "bool",
          "name": "approved",
          "type": "bool"
        }
      ],
      "name": "setApprovalForAll",
      "outputs": [],
      "stateMutability": "nonpayable",
      "type": "function"
    },
    {
      "inputs": [
        {
          "internalType": "uint256",
          "name": "_price",
          "type": "uint256"
        }
      ],
      "name": "setPrice",
      "outputs": [],
      "stateMutability": "nonpayable",
      "type": "function"
    },
    {
      "inputs": [
        {
          "internalType": "bytes4",
          "name": "interfaceId",
          "type": "bytes4"
        }
      ],
      "name": "supportsInterface",
      "outputs": [
        {
          "internalType": "bool",
          "name": "",
          "type": "bool"
        }
      ],
      "stateMutability": "view",
      "type": "function"
    },
    {
      "inputs": [],
      "name": "symbol",
      "outputs": [
        {
          "internalType": "string",
          "name": "",
          "type": "string"
        }
      ],
      "stateMutability": "view",
      "type": "function"
    },
    {
      "inputs": [
        {
          "internalType": "address",
          "name": "owner",
          "type": "address"
        }
      ],
      "name": "tokenOfOwner",
      "outputs": [
        {
          "internalType": "uint256[]",
          "name": "",
          "type": "uint256[]"
        }
      ],
      "stateMutability": "view",
      "type": "function"
    },
    {
      "inputs": [
        {
          "internalType": "uint256",
          "name": "tokenId",
          "type": "uint256"
        }
      ],
      "name": "tokenURI",
      "outputs": [
        {
          "internalType": "string",
          "name": "",
          "type": "string"
        }
      ],
      "stateMutability": "view",
      "type": "function"
    },
    {
      "inputs": [
        {
          "internalType": "address",
          "name": "from",
          "type": "address"
        },
        {
          "internalType": "address",
          "name": "to",
          "type": "address"
        },
        {
          "internalType": "uint256",
          "name": "tokenId",
          "type": "uint256"
        }
      ],
      "name": "transferFrom",
      "outputs": [],
      "stateMutability": "nonpayable",
      "type": "function"
    },
    {
      "inputs": [
        {
          "internalType": "address",
          "name": "newOwner",
          "type": "address"
        }
      ],
      "name": "transferOwnership",
      "outputs": [],
      "stateMutability": "nonpayable",
      "type": "function"
    }
  ],
  "bytecode": "0x60806040523480156200001157600080fd5b506040518060400160405280600e81526020017f4552433732315f4578616d706c650000000000000000000000000000000000008152506040518060400160405280600781526020017f4552433732314500000000000000000000000000000000000000000000000000815250816000908051906020019062000096929190620001b5565b508060019080519060200190620000af929190620001b5565b505050620000d2620000c6620000e760201b60201c565b620000ef60201b60201c565b67016345785d8a0000600981905550620002ca565b600033905090565b6000600760009054906101000a900473ffffffffffffffffffffffffffffffffffffffff16905081600760006101000a81548173ffffffffffffffffffffffffffffffffffffffff021916908373ffffffffffffffffffffffffffffffffffffffff1602179055508173ffffffffffffffffffffffffffffffffffffffff168173ffffffffffffffffffffffffffffffffffffffff167f8be0079c531659141344cd1fd0a4f28419497f9722a3daafe3b4186f6b6457e060405160405180910390a35050565b828054620001c39062000294565b90600052602060002090601f016020900481019282620001e7576000855562000233565b82601f106200020257805160ff191683800117855562000233565b8280016001018555821562000233579182015b828111156200023257825182559160200191906001019062000215565b5b50905062000242919062000246565b5090565b5b808211156200026157600081600090555060010162000247565b5090565b7f4e487b7100000000000000000000000000000000000000000000000000000000600052602260045260246000fd5b60006002820490506001821680620002ad57607f821691505b60208210811415620002c457620002c362000265565b5b50919050565b6133f980620002da6000396000f3fe60806040526004361061011f5760003560e01c80638da5cb5b116100a0578063b88d4fde11610064578063b88d4fde146103e5578063c87b56dd1461040e578063d0def5211461044b578063e985e9c514610467578063f2fde38b146104a45761011f565b80638da5cb5b1461031257806391b7f5ed1461033d57806395d89b411461036657806398d5fdca14610391578063a22cb465146103bc5761011f565b8063294cdf0d116100e7578063294cdf0d1461021b57806342842e0e146102585780636352211e1461028157806370a08231146102be578063715018a6146102fb5761011f565b806301ffc9a71461012457806306fdde0314610161578063081812fc1461018c578063095ea7b3146101c957806323b872dd146101f2575b600080fd5b34801561013057600080fd5b5061014b6004803603810190610146919061222e565b6104cd565b6040516101589190612276565b60405180910390f35b34801561016d57600080fd5b506101766105af565b604051610183919061232a565b60405180910390f35b34801561019857600080fd5b506101b360048036038101906101ae9190612382565b610641565b6040516101c091906123f0565b60405180910390f35b3480156101d557600080fd5b506101f060048036038101906101eb9190612437565b610687565b005b3480156101fe57600080fd5b5061021960048036038101906102149190612477565b61079f565b005b34801561022757600080fd5b50610242600480360381019061023d91906124ca565b6107ff565b60405161024f91906125b5565b60405180910390f35b34801561026457600080fd5b5061027f600480360381019061027a9190612477565b610896565b005b34801561028d57600080fd5b506102a860048036038101906102a39190612382565b6108b6565b6040516102b591906123f0565b60405180910390f35b3480156102ca57600080fd5b506102e560048036038101906102e091906124ca565b61093d565b6040516102f291906125e6565b60405180910390f35b34801561030757600080fd5b50610310610989565b005b34801561031e57600080fd5b5061032761099d565b60405161033491906123f0565b60405180910390f35b34801561034957600080fd5b50610364600480360381019061035f9190612382565b6109c7565b005b34801561037257600080fd5b5061037b6109d9565b604051610388919061232a565b60405180910390f35b34801561039d57600080fd5b506103a6610a6b565b6040516103b391906125e6565b60405180910390f35b3480156103c857600080fd5b506103e360048036038101906103de919061262d565b610a75565b005b3480156103f157600080fd5b5061040c600480360381019061040791906127a2565b610a8b565b005b34801561041a57600080fd5b5061043560048036038101906104309190612382565b610aed565b604051610442919061232a565b60405180910390f35b610465600480360381019061046091906128c6565b610c00565b005b34801561047357600080fd5b5061048e60048036038101906104899190612922565b610d15565b60405161049b9190612276565b60405180910390f35b3480156104b057600080fd5b506104cb60048036038101906104c691906124ca565b610da9565b005b60007f80ac58cd000000000000000000000000000000000000000000000000000000007bffffffffffffffffffffffffffffffffffffffffffffffffffffffff1916827bffffffffffffffffffffffffffffffffffffffffffffffffffffffff1916148061059857507f5b5e139f000000000000000000000000000000000000000000000000000000007bffffffffffffffffffffffffffffffffffffffffffffffffffffffff1916827bffffffffffffffffffffffffffffffffffffffffffffffffffffffff1916145b806105a857506105a782610e2d565b5b9050919050565b6060600080546105be90612991565b80601f01602080910402602001604051908101604052809291908181526020018280546105ea90612991565b80156106375780601f1061060c57610100808354040283529160200191610637565b820191906000526020600020905b81548152906001019060200180831161061a57829003601f168201915b5050505050905090565b600061064c82610e97565b6004600083815260200190815260200160002060009054906101000a900473ffffffffffffffffffffffffffffffffffffffff169050919050565b6000610692826108b6565b90508073ffffffffffffffffffffffffffffffffffffffff168373ffffffffffffffffffffffffffffffffffffffff161415610703576040517f08c379a00000000000000000000000000000000000000000000000000000000081526004016106fa90612a35565b60405180910390fd5b8073ffffffffffffffffffffffffffffffffffffffff16610722610ee2565b73ffffffffffffffffffffffffffffffffffffffff16148061075157506107508161074b610ee2565b610d15565b5b610790576040517f08c379a000000000000000000000000000000000000000000000000000000000815260040161078790612ac7565b60405180910390fd5b61079a8383610eea565b505050565b6107b06107aa610ee2565b82610fa3565b6107ef576040517f08c379a00000000000000000000000000000000000000000000000000000000081526004016107e690612b59565b60405180910390fd5b6107fa838383611038565b505050565b6060600860008373ffffffffffffffffffffffffffffffffffffffff1673ffffffffffffffffffffffffffffffffffffffff16815260200190815260200160002080548060200260200160405190810160405280929190818152602001828054801561088a57602002820191906000526020600020905b815481526020019060010190808311610876575b50505050509050919050565b6108b183838360405180602001604052806000815250610a8b565b505050565b6000806108c283611269565b9050600073ffffffffffffffffffffffffffffffffffffffff168173ffffffffffffffffffffffffffffffffffffffff161415610934576040517f08c379a000000000000000000000000000000000000000000000000000000000815260040161092b90612bc5565b60405180910390fd5b80915050919050565b6000600860008373ffffffffffffffffffffffffffffffffffffffff1673ffffffffffffffffffffffffffffffffffffffff168152602001908152602001600020805490509050919050565b6109916112a6565b61099b6000611324565b565b6000600760009054906101000a900473ffffffffffffffffffffffffffffffffffffffff16905090565b6109cf6112a6565b8060098190555050565b6060600180546109e890612991565b80601f0160208091040260200160405190810160405280929190818152602001828054610a1490612991565b8015610a615780601f10610a3657610100808354040283529160200191610a61565b820191906000526020600020905b815481529060010190602001808311610a4457829003601f168201915b5050505050905090565b6000600954905090565b610a87610a80610ee2565b83836113ea565b5050565b610a9c610a96610ee2565b83610fa3565b610adb576040517f08c379a0000000000000000000000000000000000000000000000000000000008152600401610ad290612b59565b60405180910390fd5b610ae784848484611557565b50505050565b6060610af882610e97565b6000600660008481526020019081526020016000208054610b1890612991565b80601f0160208091040260200160405190810160405280929190818152602001828054610b4490612991565b8015610b915780601f10610b6657610100808354040283529160200191610b91565b820191906000526020600020905b815481529060010190602001808311610b7457829003601f168201915b505050505090506000610ba26115b3565b9050600081511415610bb8578192505050610bfb565b600082511115610bed578082604051602001610bd5929190612c21565b60405160208183030381529060405292505050610bfb565b610bf6846115ca565b925050505b919050565b600954341015610c45576040517f08c379a0000000000000000000000000000000000000000000000000000000008152600401610c3c90612c91565b60405180910390fd5b610c4d61099d565b73ffffffffffffffffffffffffffffffffffffffff166108fc6009549081150290604051600060405180830381858888f19350505050158015610c94573d6000803e3d6000fd5b50610c9f600a611632565b6000610cab600a611648565b9050610cb78382611656565b610cc181836116ca565b803373ffffffffffffffffffffffffffffffffffffffff167fc7e2fe6bb9fe70067c23beb0a341dc6d5a6f84dc28c383b74b85c6c5ae79061784604051610d08919061232a565b60405180910390a3505050565b6000600560008473ffffffffffffffffffffffffffffffffffffffff1673ffffffffffffffffffffffffffffffffffffffff16815260200190815260200160002060008373ffffffffffffffffffffffffffffffffffffffff1673ffffffffffffffffffffffffffffffffffffffff16815260200190815260200160002060009054906101000a900460ff16905092915050565b610db16112a6565b600073ffffffffffffffffffffffffffffffffffffffff168173ffffffffffffffffffffffffffffffffffffffff161415610e21576040517f08c379a0000000000000000000000000000000000000000000000000000000008152600401610e1890612d23565b60405180910390fd5b610e2a81611324565b50565b60007f01ffc9a7000000000000000000000000000000000000000000000000000000007bffffffffffffffffffffffffffffffffffffffffffffffffffffffff1916827bffffffffffffffffffffffffffffffffffffffffffffffffffffffff1916149050919050565b610ea08161173e565b610edf576040517f08c379a0000000000000000000000000000000000000000000000000000000008152600401610ed690612bc5565b60405180910390fd5b50565b600033905090565b816004600083815260200190815260200160002060006101000a81548173ffffffffffffffffffffffffffffffffffffffff021916908373ffffffffffffffffffffffffffffffffffffffff160217905550808273ffffffffffffffffffffffffffffffffffffffff16610f5d836108b6565b73ffffffffffffffffffffffffffffffffffffffff167f8c5be1e5ebec7d5bd14f71427d1e84f3dd0314c0f7b2291e5b200ac8c7c3b92560405160405180910390a45050565b600080610faf836108b6565b90508073ffffffffffffffffffffffffffffffffffffffff168473ffffffffffffffffffffffffffffffffffffffff161480610ff15750610ff08185610d15565b5b8061102f57508373ffffffffffffffffffffffffffffffffffffffff1661101784610641565b73ffffffffffffffffffffffffffffffffffffffff16145b91505092915050565b61104383838361177f565b600061108d600860008673ffffffffffffffffffffffffffffffffffffffff1673ffffffffffffffffffffffffffffffffffffffff16815260200190815260200160002083611a79565b9050600860008573ffffffffffffffffffffffffffffffffffffffff1673ffffffffffffffffffffffffffffffffffffffff1681526020019081526020016000206001600860008773ffffffffffffffffffffffffffffffffffffffff1673ffffffffffffffffffffffffffffffffffffffff1681526020019081526020016000208054905061111d9190612d72565b8154811061112e5761112d612da6565b5b9060005260206000200154600860008673ffffffffffffffffffffffffffffffffffffffff1673ffffffffffffffffffffffffffffffffffffffff168152602001908152602001600020828154811061118a57611189612da6565b5b9060005260206000200181905550600860008573ffffffffffffffffffffffffffffffffffffffff1673ffffffffffffffffffffffffffffffffffffffff1681526020019081526020016000208054806111e7576111e6612dd5565b5b60019003818190600052602060002001600090559055600860008473ffffffffffffffffffffffffffffffffffffffff1673ffffffffffffffffffffffffffffffffffffffff16815260200190815260200160002082908060018154018082558091505060019003906000526020600020016000909190919091505550505050565b60006002600083815260200190815260200160002060009054906101000a900473ffffffffffffffffffffffffffffffffffffffff169050919050565b6112ae610ee2565b73ffffffffffffffffffffffffffffffffffffffff166112cc61099d565b73ffffffffffffffffffffffffffffffffffffffff1614611322576040517f08c379a000000000000000000000000000000000000000000000000000000000815260040161131990612e50565b60405180910390fd5b565b6000600760009054906101000a900473ffffffffffffffffffffffffffffffffffffffff16905081600760006101000a81548173ffffffffffffffffffffffffffffffffffffffff021916908373ffffffffffffffffffffffffffffffffffffffff1602179055508173ffffffffffffffffffffffffffffffffffffffff168173ffffffffffffffffffffffffffffffffffffffff167f8be0079c531659141344cd1fd0a4f28419497f9722a3daafe3b4186f6b6457e060405160405180910390a35050565b8173ffffffffffffffffffffffffffffffffffffffff168373ffffffffffffffffffffffffffffffffffffffff161415611459576040517f08c379a000000000000000000000000000000000000000000000000000000000815260040161145090612ebc565b60405180910390fd5b80600560008573ffffffffffffffffffffffffffffffffffffffff1673ffffffffffffffffffffffffffffffffffffffff16815260200190815260200160002060008473ffffffffffffffffffffffffffffffffffffffff1673ffffffffffffffffffffffffffffffffffffffff16815260200190815260200160002060006101000a81548160ff0219169083151502179055508173ffffffffffffffffffffffffffffffffffffffff168373ffffffffffffffffffffffffffffffffffffffff167f17307eab39ab6107e8899845ad3d59bd9653f200f220920489ca2b5937696c318360405161154a9190612276565b60405180910390a3505050565b611562848484611038565b61156e84848484611b10565b6115ad576040517f08c379a00000000000000000000000000000000000000000000000000000000081526004016115a490612f4e565b60405180910390fd5b50505050565b606060405180602001604052806000815250905090565b60606115d582610e97565b60006115df6115b3565b905060008151116115ff576040518060200160405280600081525061162a565b8061160984611ca7565b60405160200161161a929190612c21565b6040516020818303038152906040525b915050919050565b6001816000016000828254019250508190555050565b600081600001549050919050565b6116608282611d7f565b600860008373ffffffffffffffffffffffffffffffffffffffff1673ffffffffffffffffffffffffffffffffffffffff1681526020019081526020016000208190806001815401808255809150506001900390600052602060002001600090919091909150555050565b6116d38261173e565b611712576040517f08c379a000000000000000000000000000000000000000000000000000000000815260040161170990612fe0565b60405180910390fd5b8060066000848152602001908152602001600020908051906020019061173992919061211f565b505050565b60008073ffffffffffffffffffffffffffffffffffffffff1661176083611269565b73ffffffffffffffffffffffffffffffffffffffff1614159050919050565b8273ffffffffffffffffffffffffffffffffffffffff1661179f826108b6565b73ffffffffffffffffffffffffffffffffffffffff16146117f5576040517f08c379a00000000000000000000000000000000000000000000000000000000081526004016117ec90613072565b60405180910390fd5b600073ffffffffffffffffffffffffffffffffffffffff168273ffffffffffffffffffffffffffffffffffffffff161415611865576040517f08c379a000000000000000000000000000000000000000000000000000000000815260040161185c90613104565b60405180910390fd5b6118728383836001611f9d565b8273ffffffffffffffffffffffffffffffffffffffff16611892826108b6565b73ffffffffffffffffffffffffffffffffffffffff16146118e8576040517f08c379a00000000000000000000000000000000000000000000000000000000081526004016118df90613072565b60405180910390fd5b6004600082815260200190815260200160002060006101000a81549073ffffffffffffffffffffffffffffffffffffffff02191690556001600360008573ffffffffffffffffffffffffffffffffffffffff1673ffffffffffffffffffffffffffffffffffffffff168152602001908152602001600020600082825403925050819055506001600360008473ffffffffffffffffffffffffffffffffffffffff1673ffffffffffffffffffffffffffffffffffffffff16815260200190815260200160002060008282540192505081905550816002600083815260200190815260200160002060006101000a81548173ffffffffffffffffffffffffffffffffffffffff021916908373ffffffffffffffffffffffffffffffffffffffff160217905550808273ffffffffffffffffffffffffffffffffffffffff168473ffffffffffffffffffffffffffffffffffffffff167fddf252ad1be2c89b69c2b068fc378daa952ba7f163c4a11628f55a4df523b3ef60405160405180910390a4611a748383836001611fa3565b505050565b600080600090505b8380549050811015611ace5782848281548110611aa157611aa0612da6565b5b90600052602060002001541415611abb5780915050611b0a565b8080611ac690613124565b915050611a81565b506040517f08c379a0000000000000000000000000000000000000000000000000000000008152600401611b01906131b9565b60405180910390fd5b92915050565b6000611b318473ffffffffffffffffffffffffffffffffffffffff16611fa9565b15611c9a578373ffffffffffffffffffffffffffffffffffffffff1663150b7a02611b5a610ee2565b8786866040518563ffffffff1660e01b8152600401611b7c949392919061322e565b602060405180830381600087803b158015611b9657600080fd5b505af1925050508015611bc757506040513d601f19601f82011682018060405250810190611bc4919061328f565b60015b611c4a573d8060008114611bf7576040519150601f19603f3d011682016040523d82523d6000602084013e611bfc565b606091505b50600081511415611c42576040517f08c379a0000000000000000000000000000000000000000000000000000000008152600401611c3990612f4e565b60405180910390fd5b805181602001fd5b63150b7a0260e01b7bffffffffffffffffffffffffffffffffffffffffffffffffffffffff1916817bffffffffffffffffffffffffffffffffffffffffffffffffffffffff191614915050611c9f565b600190505b949350505050565b606060006001611cb684611fcc565b01905060008167ffffffffffffffff811115611cd557611cd4612677565b5b6040519080825280601f01601f191660200182016040528015611d075781602001600182028036833780820191505090505b509050600082602001820190505b600115611d74578080600190039150507f3031323334353637383961626364656600000000000000000000000000000000600a86061a8153600a8581611d5e57611d5d6132bc565b5b0494506000851415611d6f57611d74565b611d15565b819350505050919050565b600073ffffffffffffffffffffffffffffffffffffffff168273ffffffffffffffffffffffffffffffffffffffff161415611def576040517f08c379a0000000000000000000000000000000000000000000000000000000008152600401611de690613337565b60405180910390fd5b611df88161173e565b15611e38576040517f08c379a0000000000000000000000000000000000000000000000000000000008152600401611e2f906133a3565b60405180910390fd5b611e46600083836001611f9d565b611e4f8161173e565b15611e8f576040517f08c379a0000000000000000000000000000000000000000000000000000000008152600401611e86906133a3565b60405180910390fd5b6001600360008473ffffffffffffffffffffffffffffffffffffffff1673ffffffffffffffffffffffffffffffffffffffff16815260200190815260200160002060008282540192505081905550816002600083815260200190815260200160002060006101000a81548173ffffffffffffffffffffffffffffffffffffffff021916908373ffffffffffffffffffffffffffffffffffffffff160217905550808273ffffffffffffffffffffffffffffffffffffffff16600073ffffffffffffffffffffffffffffffffffffffff167fddf252ad1be2c89b69c2b068fc378daa952ba7f163c4a11628f55a4df523b3ef60405160405180910390a4611f99600083836001611fa3565b5050565b50505050565b50505050565b6000808273ffffffffffffffffffffffffffffffffffffffff163b119050919050565b600080600090507a184f03e93ff9f4daa797ed6e38ed64bf6a1f010000000000000000831061202a577a184f03e93ff9f4daa797ed6e38ed64bf6a1f01000000000000000083816120205761201f6132bc565b5b0492506040810190505b6d04ee2d6d415b85acef81000000008310612067576d04ee2d6d415b85acef8100000000838161205d5761205c6132bc565b5b0492506020810190505b662386f26fc10000831061209657662386f26fc10000838161208c5761208b6132bc565b5b0492506010810190505b6305f5e10083106120bf576305f5e10083816120b5576120b46132bc565b5b0492506008810190505b61271083106120e45761271083816120da576120d96132bc565b5b0492506004810190505b6064831061210757606483816120fd576120fc6132bc565b5b0492506002810190505b600a8310612116576001810190505b80915050919050565b82805461212b90612991565b90600052602060002090601f01602090048101928261214d5760008555612194565b82601f1061216657805160ff1916838001178555612194565b82800160010185558215612194579182015b82811115612193578251825591602001919060010190612178565b5b5090506121a191906121a5565b5090565b5b808211156121be5760008160009055506001016121a6565b5090565b6000604051905090565b600080fd5b600080fd5b60007fffffffff0000000000000000000000000000000000000000000000000000000082169050919050565b61220b816121d6565b811461221657600080fd5b50565b60008135905061222881612202565b92915050565b600060208284031215612244576122436121cc565b5b600061225284828501612219565b91505092915050565b60008115159050919050565b6122708161225b565b82525050565b600060208201905061228b6000830184612267565b92915050565b600081519050919050565b600082825260208201905092915050565b60005b838110156122cb5780820151818401526020810190506122b0565b838111156122da576000848401525b50505050565b6000601f19601f8301169050919050565b60006122fc82612291565b612306818561229c565b93506123168185602086016122ad565b61231f816122e0565b840191505092915050565b6000602082019050818103600083015261234481846122f1565b905092915050565b6000819050919050565b61235f8161234c565b811461236a57600080fd5b50565b60008135905061237c81612356565b92915050565b600060208284031215612398576123976121cc565b5b60006123a68482850161236d565b91505092915050565b600073ffffffffffffffffffffffffffffffffffffffff82169050919050565b60006123da826123af565b9050919050565b6123ea816123cf565b82525050565b600060208201905061240560008301846123e1565b92915050565b612414816123cf565b811461241f57600080fd5b50565b6000813590506124318161240b565b92915050565b6000806040838503121561244e5761244d6121cc565b5b600061245c85828601612422565b925050602061246d8582860161236d565b9150509250929050565b6000806000606084860312156124905761248f6121cc565b5b600061249e86828701612422565b93505060206124af86828701612422565b92505060406124c08682870161236d565b9150509250925092565b6000602082840312156124e0576124df6121cc565b5b60006124ee84828501612422565b91505092915050565b600081519050919050565b600082825260208201905092915050565b6000819050602082019050919050565b61252c8161234c565b82525050565b600061253e8383612523565b60208301905092915050565b6000602082019050919050565b6000612562826124f7565b61256c8185612502565b935061257783612513565b8060005b838110156125a857815161258f8882612532565b975061259a8361254a565b92505060018101905061257b565b5085935050505092915050565b600060208201905081810360008301526125cf8184612557565b905092915050565b6125e08161234c565b82525050565b60006020820190506125fb60008301846125d7565b92915050565b61260a8161225b565b811461261557600080fd5b50565b60008135905061262781612601565b92915050565b60008060408385031215612644576126436121cc565b5b600061265285828601612422565b925050602061266385828601612618565b9150509250929050565b600080fd5b600080fd5b7f4e487b7100000000000000000000000000000000000000000000000000000000600052604160045260246000fd5b6126af826122e0565b810181811067ffffffffffffffff821117156126ce576126cd612677565b5b80604052505050565b60006126e16121c2565b90506126ed82826126a6565b919050565b600067ffffffffffffffff82111561270d5761270c612677565b5b612716826122e0565b9050602081019050919050565b82818337600083830152505050565b6000612745612740846126f2565b6126d7565b90508281526020810184848401111561276157612760612672565b5b61276c848285612723565b509392505050565b600082601f8301126127895761278861266d565b5b8135612799848260208601612732565b91505092915050565b600080600080608085870312156127bc576127bb6121cc565b5b60006127ca87828801612422565b94505060206127db87828801612422565b93505060406127ec8782880161236d565b925050606085013567ffffffffffffffff81111561280d5761280c6121d1565b5b61281987828801612774565b91505092959194509250565b600067ffffffffffffffff8211156128405761283f612677565b5b612849826122e0565b9050602081019050919050565b600061286961286484612825565b6126d7565b90508281526020810184848401111561288557612884612672565b5b612890848285612723565b509392505050565b600082601f8301126128ad576128ac61266d565b5b81356128bd848260208601612856565b91505092915050565b600080604083850312156128dd576128dc6121cc565b5b60006128eb85828601612422565b925050602083013567ffffffffffffffff81111561290c5761290b6121d1565b5b61291885828601612898565b9150509250929050565b60008060408385031215612939576129386121cc565b5b600061294785828601612422565b925050602061295885828601612422565b9150509250929050565b7f4e487b7100000000000000000000000000000000000000000000000000000000600052602260045260246000fd5b600060028204905060018216806129a957607f821691505b602082108114156129bd576129bc612962565b5b50919050565b7f4552433732313a20617070726f76616c20746f2063757272656e74206f776e6560008201527f7200000000000000000000000000000000000000000000000000000000000000602082015250565b6000612a1f60218361229c565b9150612a2a826129c3565b604082019050919050565b60006020820190508181036000830152612a4e81612a12565b9050919050565b7f4552433732313a20617070726f76652063616c6c6572206973206e6f7420746f60008201527f6b656e206f776e6572206f7220617070726f76656420666f7220616c6c000000602082015250565b6000612ab1603d8361229c565b9150612abc82612a55565b604082019050919050565b60006020820190508181036000830152612ae081612aa4565b9050919050565b7f4552433732313a2063616c6c6572206973206e6f7420746f6b656e206f776e6560008201527f72206f7220617070726f76656400000000000000000000000000000000000000602082015250565b6000612b43602d8361229c565b9150612b4e82612ae7565b604082019050919050565b60006020820190508181036000830152612b7281612b36565b9050919050565b7f4552433732313a20696e76616c696420746f6b656e2049440000000000000000600082015250565b6000612baf60188361229c565b9150612bba82612b79565b602082019050919050565b60006020820190508181036000830152612bde81612ba2565b9050919050565b600081905092915050565b6000612bfb82612291565b612c058185612be5565b9350612c158185602086016122ad565b80840191505092915050565b6000612c2d8285612bf0565b9150612c398284612bf0565b91508190509392505050565b7f496e73756666696369656e742066756e64730000000000000000000000000000600082015250565b6000612c7b60128361229c565b9150612c8682612c45565b602082019050919050565b60006020820190508181036000830152612caa81612c6e565b9050919050565b7f4f776e61626c653a206e6577206f776e657220697320746865207a65726f206160008201527f6464726573730000000000000000000000000000000000000000000000000000602082015250565b6000612d0d60268361229c565b9150612d1882612cb1565b604082019050919050565b60006020820190508181036000830152612d3c81612d00565b9050919050565b7f4e487b7100000000000000000000000000000000000000000000000000000000600052601160045260246000fd5b6000612d7d8261234c565b9150612d888361234c565b925082821015612d9b57612d9a612d43565b5b828203905092915050565b7f4e487b7100000000000000000000000000000000000000000000000000000000600052603260045260246000fd5b7f4e487b7100000000000000000000000000000000000000000000000000000000600052603160045260246000fd5b7f4f776e61626c653a2063616c6c6572206973206e6f7420746865206f776e6572600082015250565b6000612e3a60208361229c565b9150612e4582612e04565b602082019050919050565b60006020820190508181036000830152612e6981612e2d565b9050919050565b7f4552433732313a20617070726f766520746f2063616c6c657200000000000000600082015250565b6000612ea660198361229c565b9150612eb182612e70565b602082019050919050565b60006020820190508181036000830152612ed581612e99565b9050919050565b7f4552433732313a207472616e7366657220746f206e6f6e20455243373231526560008201527f63656976657220696d706c656d656e7465720000000000000000000000000000602082015250565b6000612f3860328361229c565b9150612f4382612edc565b604082019050919050565b60006020820190508181036000830152612f6781612f2b565b9050919050565b7f45524337323155524953746f726167653a2055524920736574206f66206e6f6e60008201527f6578697374656e7420746f6b656e000000000000000000000000000000000000602082015250565b6000612fca602e8361229c565b9150612fd582612f6e565b604082019050919050565b60006020820190508181036000830152612ff981612fbd565b9050919050565b7f4552433732313a207472616e736665722066726f6d20696e636f72726563742060008201527f6f776e6572000000000000000000000000000000000000000000000000000000602082015250565b600061305c60258361229c565b915061306782613000565b604082019050919050565b6000602082019050818103600083015261308b8161304f565b9050919050565b7f4552433732313a207472616e7366657220746f20746865207a65726f2061646460008201527f7265737300000000000000000000000000000000000000000000000000000000602082015250565b60006130ee60248361229c565b91506130f982613092565b604082019050919050565b6000602082019050818103600083015261311d816130e1565b9050919050565b600061312f8261234c565b91507fffffffffffffffffffffffffffffffffffffffffffffffffffffffffffffffff82141561316257613161612d43565b5b600182019050919050565b7f456c656d656e74206e6f7420666f756e6420696e206172726179000000000000600082015250565b60006131a3601a8361229c565b91506131ae8261316d565b602082019050919050565b600060208201905081810360008301526131d281613196565b9050919050565b600081519050919050565b600082825260208201905092915050565b6000613200826131d9565b61320a81856131e4565b935061321a8185602086016122ad565b613223816122e0565b840191505092915050565b600060808201905061324360008301876123e1565b61325060208301866123e1565b61325d60408301856125d7565b818103606083015261326f81846131f5565b905095945050505050565b60008151905061328981612202565b92915050565b6000602082840312156132a5576132a46121cc565b5b60006132b38482850161327a565b91505092915050565b7f4e487b7100000000000000000000000000000000000000000000000000000000600052601260045260246000fd5b7f4552433732313a206d696e7420746f20746865207a65726f2061646472657373600082015250565b600061332160208361229c565b915061332c826132eb565b602082019050919050565b6000602082019050818103600083015261335081613314565b9050919050565b7f4552433732313a20746f6b656e20616c7265616479206d696e74656400000000600082015250565b600061338d601c8361229c565b915061339882613357565b602082019050919050565b600060208201905081810360008301526133bc81613380565b905091905056fea2646970667358221220ef52ee21d7df18a6d600f39f79bfedf42856d0d8d8c0d2b32aadb156c11beb9764736f6c63430008090033",
  "linkReferences": {},
  "deployedLinkReferences": {}
}