{
  "_format": "hh-sol-artifact-1",
  "contractName": "FractionToken",
  "sourceName": "contracts/FractionToken.sol",
  "abi": [
    {
      "inputs": [
        {
          "internalType": "string",
          "name": "name",
          "type": "string"
        },
        {
          "internalType": "string",
          "name": "symbol",
          "type": "string"
        },
        {
          "internalType": "uint256",
          "name": "_NFTID",
          "type": "uint256"
        },
        {
          "internalType": "uint256",
          "name": "initialSupply",
          "type": "uint256"
        },
        {
          "internalType": "address",
          "name": "mintAddress",
          "type": "address"
        },
        {
          "internalType": "address",
          "name": "_StorageAddress",
          "type": "address"
        }
      ],
      "stateMutability": "nonpayable",
      "type": "constructor"
    },
    {
      "anonymous": false,
      "inputs": [
        {
          "indexed": true,
          "internalType": "address",
          "name": "owner",
          "type": "address"
        },
        {
          "indexed": true,
          "internalType": "address",
          "name": "spender",
          "type": "address"
        },
        {
          "indexed": false,
          "internalType": "uint256",
          "name": "value",
          "type": "uint256"
        }
      ],
      "name": "Approval",
      "type": "event"
    },
    {
      "anonymous": false,
      "inputs": [
        {
          "indexed": true,
          "internalType": "address",
          "name": "from",
          "type": "address"
        },
        {
          "indexed": true,
          "internalType": "address",
          "name": "to",
          "type": "address"
        },
        {
          "indexed": false,
          "internalType": "uint256",
          "name": "value",
          "type": "uint256"
        }
      ],
      "name": "Transfer",
      "type": "event"
    },
    {
      "inputs": [
        {
          "internalType": "address",
          "name": "owner",
          "type": "address"
        },
        {
          "internalType": "address",
          "name": "spender",
          "type": "address"
        }
      ],
      "name": "allowance",
      "outputs": [
        {
          "internalType": "uint256",
          "name": "",
          "type": "uint256"
        }
      ],
      "stateMutability": "view",
      "type": "function"
    },
    {
      "inputs": [
        {
          "internalType": "address",
          "name": "spender",
          "type": "address"
        },
        {
          "internalType": "uint256",
          "name": "amount",
          "type": "uint256"
        }
      ],
      "name": "approve",
      "outputs": [
        {
          "internalType": "bool",
          "name": "",
          "type": "bool"
        }
      ],
      "stateMutability": "nonpayable",
      "type": "function"
    },
    {
      "inputs": [
        {
          "internalType": "address",
          "name": "account",
          "type": "address"
        }
      ],
      "name": "balanceOf",
      "outputs": [
        {
          "internalType": "uint256",
          "name": "",
          "type": "uint256"
        }
      ],
      "stateMutability": "view",
      "type": "function"
    },
    {
      "inputs": [],
      "name": "decimals",
      "outputs": [
        {
          "internalType": "uint8",
          "name": "",
          "type": "uint8"
        }
      ],
      "stateMutability": "view",
      "type": "function"
    },
    {
      "inputs": [
        {
          "internalType": "address",
          "name": "spender",
          "type": "address"
        },
        {
          "internalType": "uint256",
          "name": "subtractedValue",
          "type": "uint256"
        }
      ],
      "name": "decreaseAllowance",
      "outputs": [
        {
          "internalType": "bool",
          "name": "",
          "type": "bool"
        }
      ],
      "stateMutability": "nonpayable",
      "type": "function"
    },
    {
      "inputs": [
        {
          "internalType": "address",
          "name": "withdraw",
          "type": "address"
        }
      ],
      "name": "disableFractionForTokenWithdraw",
      "outputs": [],
      "stateMutability": "nonpayable",
      "type": "function"
    },
    {
      "inputs": [],
      "name": "getContractDeployer",
      "outputs": [
        {
          "internalType": "address",
          "name": "",
          "type": "address"
        }
      ],
      "stateMutability": "view",
      "type": "function"
    },
    {
      "inputs": [],
      "name": "getnftId",
      "outputs": [
        {
          "internalType": "uint256",
          "name": "",
          "type": "uint256"
        }
      ],
      "stateMutability": "view",
      "type": "function"
    },
    {
      "inputs": [
        {
          "internalType": "address",
          "name": "spender",
          "type": "address"
        },
        {
          "internalType": "uint256",
          "name": "addedValue",
          "type": "uint256"
        }
      ],
      "name": "increaseAllowance",
      "outputs": [
        {
          "internalType": "bool",
          "name": "",
          "type": "bool"
        }
      ],
      "stateMutability": "nonpayable",
      "type": "function"
    },
    {
      "inputs": [],
      "name": "name",
      "outputs": [
        {
          "internalType": "string",
          "name": "",
          "type": "string"
        }
      ],
      "stateMutability": "view",
      "type": "function"
    },
    {
      "inputs": [],
      "name": "symbol",
      "outputs": [
        {
          "internalType": "string",
          "name": "",
          "type": "string"
        }
      ],
      "stateMutability": "view",
      "type": "function"
    },
    {
      "inputs": [],
      "name": "totalSupply",
      "outputs": [
        {
          "internalType": "uint256",
          "name": "",
          "type": "uint256"
        }
      ],
      "stateMutability": "view",
      "type": "function"
    },
    {
      "inputs": [
        {
          "internalType": "address",
          "name": "to",
          "type": "address"
        },
        {
          "internalType": "uint256",
          "name": "amount",
          "type": "uint256"
        }
      ],
      "name": "transfer",
      "outputs": [
        {
          "internalType": "bool",
          "name": "",
          "type": "bool"
        }
      ],
      "stateMutability": "nonpayable",
      "type": "function"
    },
    {
      "inputs": [
        {
          "internalType": "address",
          "name": "from",
          "type": "address"
        },
        {
          "internalType": "address",
          "name": "to",
          "type": "address"
        },
        {
          "internalType": "uint256",
          "name": "amount",
          "type": "uint256"
        }
      ],
      "name": "transferFrom",
      "outputs": [
        {
          "internalType": "bool",
          "name": "",
          "type": "bool"
        }
      ],
      "stateMutability": "nonpayable",
      "type": "function"
    }
  ],
  "bytecode": "0x60806040523480156200001157600080fd5b506040516200223d3803806200223d833981810160405281019062000037919062000553565b858581600390805190602001906200005192919062000266565b5080600490805190602001906200006a92919062000266565b5050508360068190555080600560006101000a81548173ffffffffffffffffffffffffffffffffffffffff021916908373ffffffffffffffffffffffffffffffffffffffff160217905550620000c78284620000ee60201b60201c565b6001600560146101000a81548160ff021916908315150217905550505050505050620007cf565b600073ffffffffffffffffffffffffffffffffffffffff168273ffffffffffffffffffffffffffffffffffffffff16141562000161576040517f08c379a000000000000000000000000000000000000000000000000000000000815260040162000158906200068e565b60405180910390fd5b62000175600083836200025c60201b60201c565b8060026000828254620001899190620006df565b92505081905550806000808473ffffffffffffffffffffffffffffffffffffffff1673ffffffffffffffffffffffffffffffffffffffff168152602001908152602001600020600082825401925050819055508173ffffffffffffffffffffffffffffffffffffffff16600073ffffffffffffffffffffffffffffffffffffffff167fddf252ad1be2c89b69c2b068fc378daa952ba7f163c4a11628f55a4df523b3ef836040516200023c91906200074d565b60405180910390a362000258600083836200026160201b60201c565b5050565b505050565b505050565b828054620002749062000799565b90600052602060002090601f016020900481019282620002985760008555620002e4565b82601f10620002b357805160ff1916838001178555620002e4565b82800160010185558215620002e4579182015b82811115620002e3578251825591602001919060010190620002c6565b5b509050620002f39190620002f7565b5090565b5b8082111562000312576000816000905550600101620002f8565b5090565b6000604051905090565b600080fd5b600080fd5b600080fd5b600080fd5b6000601f19601f8301169050919050565b7f4e487b7100000000000000000000000000000000000000000000000000000000600052604160045260246000fd5b6200037f8262000334565b810181811067ffffffffffffffff82111715620003a157620003a062000345565b5b80604052505050565b6000620003b662000316565b9050620003c4828262000374565b919050565b600067ffffffffffffffff821115620003e757620003e662000345565b5b620003f28262000334565b9050602081019050919050565b60005b838110156200041f57808201518184015260208101905062000402565b838111156200042f576000848401525b50505050565b60006200044c6200044684620003c9565b620003aa565b9050828152602081018484840111156200046b576200046a6200032f565b5b62000478848285620003ff565b509392505050565b600082601f8301126200049857620004976200032a565b5b8151620004aa84826020860162000435565b91505092915050565b6000819050919050565b620004c881620004b3565b8114620004d457600080fd5b50565b600081519050620004e881620004bd565b92915050565b600073ffffffffffffffffffffffffffffffffffffffff82169050919050565b60006200051b82620004ee565b9050919050565b6200052d816200050e565b81146200053957600080fd5b50565b6000815190506200054d8162000522565b92915050565b60008060008060008060c0878903121562000573576200057262000320565b5b600087015167ffffffffffffffff81111562000594576200059362000325565b5b620005a289828a0162000480565b965050602087015167ffffffffffffffff811115620005c657620005c562000325565b5b620005d489828a0162000480565b9550506040620005e789828a01620004d7565b9450506060620005fa89828a01620004d7565b93505060806200060d89828a016200053c565b92505060a06200062089828a016200053c565b9150509295509295509295565b600082825260208201905092915050565b7f45524332303a206d696e7420746f20746865207a65726f206164647265737300600082015250565b600062000676601f836200062d565b915062000683826200063e565b602082019050919050565b60006020820190508181036000830152620006a98162000667565b9050919050565b7f4e487b7100000000000000000000000000000000000000000000000000000000600052601160045260246000fd5b6000620006ec82620004b3565b9150620006f983620004b3565b9250827fffffffffffffffffffffffffffffffffffffffffffffffffffffffffffffffff03821115620007315762000730620006b0565b5b828201905092915050565b6200074781620004b3565b82525050565b60006020820190506200076460008301846200073c565b92915050565b7f4e487b7100000000000000000000000000000000000000000000000000000000600052602260045260246000fd5b60006002820490506001821680620007b257607f821691505b60208210811415620007c957620007c86200076a565b5b50919050565b611a5e80620007df6000396000f3fe608060405234801561001057600080fd5b50600436106100ea5760003560e01c80634b4ff46f1161008c578063a457c2d711610066578063a457c2d714610263578063a9059cbb14610293578063bf15bc39146102c3578063dd62ed3e146102df576100ea565b80634b4ff46f146101f757806370a082311461021557806395d89b4114610245576100ea565b806323b872dd116100c857806323b872dd1461015b578063313ce5671461018b57806336500213146101a957806339509351146101c7576100ea565b806306fdde03146100ef578063095ea7b31461010d57806318160ddd1461013d575b600080fd5b6100f761030f565b6040516101049190611037565b60405180910390f35b610127600480360381019061012291906110f2565b6103a1565b604051610134919061114d565b60405180910390f35b6101456103c4565b6040516101529190611177565b60405180910390f35b61017560048036038101906101709190611192565b6103ce565b604051610182919061114d565b60405180910390f35b6101936103fd565b6040516101a09190611201565b60405180910390f35b6101b1610406565b6040516101be919061122b565b60405180910390f35b6101e160048036038101906101dc91906110f2565b610430565b6040516101ee919061114d565b60405180910390f35b6101ff610467565b60405161020c9190611177565b60405180910390f35b61022f600480360381019061022a9190611246565b610471565b60405161023c9190611177565b60405180910390f35b61024d6104b9565b60405161025a9190611037565b60405180910390f35b61027d600480360381019061027891906110f2565b61054b565b60405161028a919061114d565b60405180910390f35b6102ad60048036038101906102a891906110f2565b6105c2565b6040516102ba919061114d565b60405180910390f35b6102dd60048036038101906102d89190611246565b6105e5565b005b6102f960048036038101906102f49190611273565b610744565b6040516103069190611177565b60405180910390f35b60606003805461031e906112e2565b80601f016020809104026020016040519081016040528092919081815260200182805461034a906112e2565b80156103975780601f1061036c57610100808354040283529160200191610397565b820191906000526020600020905b81548152906001019060200180831161037a57829003601f168201915b5050505050905090565b6000806103ac6107cb565b90506103b98185856107d3565b600191505092915050565b6000600254905090565b6000806103d96107cb565b90506103e685828561099e565b6103f1858585610a2a565b60019150509392505050565b60006012905090565b6000600560009054906101000a900473ffffffffffffffffffffffffffffffffffffffff16905090565b60008061043b6107cb565b905061045c81858561044d8589610744565b6104579190611343565b6107d3565b600191505092915050565b6000600654905090565b60008060008373ffffffffffffffffffffffffffffffffffffffff1673ffffffffffffffffffffffffffffffffffffffff168152602001908152602001600020549050919050565b6060600480546104c8906112e2565b80601f01602080910402602001604051908101604052809291908181526020018280546104f4906112e2565b80156105415780601f1061051657610100808354040283529160200191610541565b820191906000526020600020905b81548152906001019060200180831161052457829003601f168201915b5050505050905090565b6000806105566107cb565b905060006105648286610744565b9050838110156105a9576040517f08c379a00000000000000000000000000000000000000000000000000000000081526004016105a09061140b565b60405180910390fd5b6105b682868684036107d3565b60019250505092915050565b6000806105cd6107cb565b90506105da818585610a2a565b600191505092915050565b600560009054906101000a900473ffffffffffffffffffffffffffffffffffffffff1673ffffffffffffffffffffffffffffffffffffffff163373ffffffffffffffffffffffffffffffffffffffff1614610675576040517f08c379a000000000000000000000000000000000000000000000000000000000815260040161066c9061149d565b60405180910390fd5b600560149054906101000a900460ff166106c4576040517f08c379a00000000000000000000000000000000000000000000000000000000081526004016106bb90611509565b60405180910390fd5b6106cc6103c4565b6106d582610471565b14610715576040517f08c379a000000000000000000000000000000000000000000000000000000000815260040161070c90611575565b60405180910390fd5b610726816107216103c4565b610b4e565b6000600560146101000a81548160ff02191690831515021790555050565b6000600160008473ffffffffffffffffffffffffffffffffffffffff1673ffffffffffffffffffffffffffffffffffffffff16815260200190815260200160002060008373ffffffffffffffffffffffffffffffffffffffff1673ffffffffffffffffffffffffffffffffffffffff16815260200190815260200160002054905092915050565b600033905090565b600073ffffffffffffffffffffffffffffffffffffffff168373ffffffffffffffffffffffffffffffffffffffff161415610843576040517f08c379a000000000000000000000000000000000000000000000000000000000815260040161083a90611607565b60405180910390fd5b600073ffffffffffffffffffffffffffffffffffffffff168273ffffffffffffffffffffffffffffffffffffffff1614156108b3576040517f08c379a00000000000000000000000000000000000000000000000000000000081526004016108aa90611699565b60405180910390fd5b80600160008573ffffffffffffffffffffffffffffffffffffffff1673ffffffffffffffffffffffffffffffffffffffff16815260200190815260200160002060008473ffffffffffffffffffffffffffffffffffffffff1673ffffffffffffffffffffffffffffffffffffffff168152602001908152602001600020819055508173ffffffffffffffffffffffffffffffffffffffff168373ffffffffffffffffffffffffffffffffffffffff167f8c5be1e5ebec7d5bd14f71427d1e84f3dd0314c0f7b2291e5b200ac8c7c3b925836040516109919190611177565b60405180910390a3505050565b60006109aa8484610744565b90507fffffffffffffffffffffffffffffffffffffffffffffffffffffffffffffffff8114610a245781811015610a16576040517f08c379a0000000000000000000000000000000000000000000000000000000008152600401610a0d90611705565b60405180910390fd5b610a2384848484036107d3565b5b50505050565b6000600560009054906101000a900473ffffffffffffffffffffffffffffffffffffffff1690508073ffffffffffffffffffffffffffffffffffffffff1663d2dc24ba30856040518363ffffffff1660e01b8152600401610a8c929190611725565b600060405180830381600087803b158015610aa657600080fd5b505af1158015610aba573d6000803e3d6000fd5b505050506000610ac985610471565b1415610b3d578073ffffffffffffffffffffffffffffffffffffffff16634a03db0c30866040518363ffffffff1660e01b8152600401610b0a929190611725565b600060405180830381600087803b158015610b2457600080fd5b505af1158015610b38573d6000803e3d6000fd5b505050505b610b48848484610d1c565b50505050565b600073ffffffffffffffffffffffffffffffffffffffff168273ffffffffffffffffffffffffffffffffffffffff161415610bbe576040517f08c379a0000000000000000000000000000000000000000000000000000000008152600401610bb5906117c0565b60405180910390fd5b610bca82600083610f94565b60008060008473ffffffffffffffffffffffffffffffffffffffff1673ffffffffffffffffffffffffffffffffffffffff16815260200190815260200160002054905081811015610c50576040517f08c379a0000000000000000000000000000000000000000000000000000000008152600401610c4790611852565b60405180910390fd5b8181036000808573ffffffffffffffffffffffffffffffffffffffff1673ffffffffffffffffffffffffffffffffffffffff1681526020019081526020016000208190555081600260008282540392505081905550600073ffffffffffffffffffffffffffffffffffffffff168373ffffffffffffffffffffffffffffffffffffffff167fddf252ad1be2c89b69c2b068fc378daa952ba7f163c4a11628f55a4df523b3ef84604051610d039190611177565b60405180910390a3610d1783600084610f99565b505050565b600073ffffffffffffffffffffffffffffffffffffffff168373ffffffffffffffffffffffffffffffffffffffff161415610d8c576040517f08c379a0000000000000000000000000000000000000000000000000000000008152600401610d83906118e4565b60405180910390fd5b600073ffffffffffffffffffffffffffffffffffffffff168273ffffffffffffffffffffffffffffffffffffffff161415610dfc576040517f08c379a0000000000000000000000000000000000000000000000000000000008152600401610df390611976565b60405180910390fd5b610e07838383610f94565b60008060008573ffffffffffffffffffffffffffffffffffffffff1673ffffffffffffffffffffffffffffffffffffffff16815260200190815260200160002054905081811015610e8d576040517f08c379a0000000000000000000000000000000000000000000000000000000008152600401610e8490611a08565b60405180910390fd5b8181036000808673ffffffffffffffffffffffffffffffffffffffff1673ffffffffffffffffffffffffffffffffffffffff16815260200190815260200160002081905550816000808573ffffffffffffffffffffffffffffffffffffffff1673ffffffffffffffffffffffffffffffffffffffff168152602001908152602001600020600082825401925050819055508273ffffffffffffffffffffffffffffffffffffffff168473ffffffffffffffffffffffffffffffffffffffff167fddf252ad1be2c89b69c2b068fc378daa952ba7f163c4a11628f55a4df523b3ef84604051610f7b9190611177565b60405180910390a3610f8e848484610f99565b50505050565b505050565b505050565b600081519050919050565b600082825260208201905092915050565b60005b83811015610fd8578082015181840152602081019050610fbd565b83811115610fe7576000848401525b50505050565b6000601f19601f8301169050919050565b600061100982610f9e565b6110138185610fa9565b9350611023818560208601610fba565b61102c81610fed565b840191505092915050565b600060208201905081810360008301526110518184610ffe565b905092915050565b600080fd5b600073ffffffffffffffffffffffffffffffffffffffff82169050919050565b60006110898261105e565b9050919050565b6110998161107e565b81146110a457600080fd5b50565b6000813590506110b681611090565b92915050565b6000819050919050565b6110cf816110bc565b81146110da57600080fd5b50565b6000813590506110ec816110c6565b92915050565b6000806040838503121561110957611108611059565b5b6000611117858286016110a7565b9250506020611128858286016110dd565b9150509250929050565b60008115159050919050565b61114781611132565b82525050565b6000602082019050611162600083018461113e565b92915050565b611171816110bc565b82525050565b600060208201905061118c6000830184611168565b92915050565b6000806000606084860312156111ab576111aa611059565b5b60006111b9868287016110a7565b93505060206111ca868287016110a7565b92505060406111db868287016110dd565b9150509250925092565b600060ff82169050919050565b6111fb816111e5565b82525050565b600060208201905061121660008301846111f2565b92915050565b6112258161107e565b82525050565b6000602082019050611240600083018461121c565b92915050565b60006020828403121561125c5761125b611059565b5b600061126a848285016110a7565b91505092915050565b6000806040838503121561128a57611289611059565b5b6000611298858286016110a7565b92505060206112a9858286016110a7565b9150509250929050565b7f4e487b7100000000000000000000000000000000000000000000000000000000600052602260045260246000fd5b600060028204905060018216806112fa57607f821691505b6020821081141561130e5761130d6112b3565b5b50919050565b7f4e487b7100000000000000000000000000000000000000000000000000000000600052601160045260246000fd5b600061134e826110bc565b9150611359836110bc565b9250827fffffffffffffffffffffffffffffffffffffffffffffffffffffffffffffffff0382111561138e5761138d611314565b5b828201905092915050565b7f45524332303a2064656372656173656420616c6c6f77616e63652062656c6f7760008201527f207a65726f000000000000000000000000000000000000000000000000000000602082015250565b60006113f5602583610fa9565b915061140082611399565b604082019050919050565b60006020820190508181036000830152611424816113e8565b9050919050565b7f4f6e6c792074686520636f6e7472616374206465706c6f7965722063616e206460008201527f697361626c6520746865206672616374696f6e00000000000000000000000000602082015250565b6000611487603383610fa9565b91506114928261142b565b604082019050919050565b600060208201905081810360008301526114b68161147a565b9050919050565b7f4672616374696f6e20697320616c72656164792064697361626c656400000000600082015250565b60006114f3601c83610fa9565b91506114fe826114bd565b602082019050919050565b60006020820190508181036000830152611522816114e6565b9050919050565b7f596f7520646f206e6f74206f776e20616c6c2073686172657300000000000000600082015250565b600061155f601983610fa9565b915061156a82611529565b602082019050919050565b6000602082019050818103600083015261158e81611552565b9050919050565b7f45524332303a20617070726f76652066726f6d20746865207a65726f2061646460008201527f7265737300000000000000000000000000000000000000000000000000000000602082015250565b60006115f1602483610fa9565b91506115fc82611595565b604082019050919050565b60006020820190508181036000830152611620816115e4565b9050919050565b7f45524332303a20617070726f766520746f20746865207a65726f20616464726560008201527f7373000000000000000000000000000000000000000000000000000000000000602082015250565b6000611683602283610fa9565b915061168e82611627565b604082019050919050565b600060208201905081810360008301526116b281611676565b9050919050565b7f45524332303a20696e73756666696369656e7420616c6c6f77616e6365000000600082015250565b60006116ef601d83610fa9565b91506116fa826116b9565b602082019050919050565b6000602082019050818103600083015261171e816116e2565b9050919050565b600060408201905061173a600083018561121c565b611747602083018461121c565b9392505050565b7f45524332303a206275726e2066726f6d20746865207a65726f2061646472657360008201527f7300000000000000000000000000000000000000000000000000000000000000602082015250565b60006117aa602183610fa9565b91506117b58261174e565b604082019050919050565b600060208201905081810360008301526117d98161179d565b9050919050565b7f45524332303a206275726e20616d6f756e7420657863656564732062616c616e60008201527f6365000000000000000000000000000000000000000000000000000000000000602082015250565b600061183c602283610fa9565b9150611847826117e0565b604082019050919050565b6000602082019050818103600083015261186b8161182f565b9050919050565b7f45524332303a207472616e736665722066726f6d20746865207a65726f20616460008201527f6472657373000000000000000000000000000000000000000000000000000000602082015250565b60006118ce602583610fa9565b91506118d982611872565b604082019050919050565b600060208201905081810360008301526118fd816118c1565b9050919050565b7f45524332303a207472616e7366657220746f20746865207a65726f206164647260008201527f6573730000000000000000000000000000000000000000000000000000000000602082015250565b6000611960602383610fa9565b915061196b82611904565b604082019050919050565b6000602082019050818103600083015261198f81611953565b9050919050565b7f45524332303a207472616e7366657220616d6f756e742065786365656473206260008201527f616c616e63650000000000000000000000000000000000000000000000000000602082015250565b60006119f2602683610fa9565b91506119fd82611996565b604082019050919050565b60006020820190508181036000830152611a21816119e5565b905091905056fea2646970667358221220074ea0b6f56f1938ae4226d14cdabcc145261e3732d8aa5616576c6eceb1f0a764736f6c63430008090033",
  "linkReferences": {},
  "deployedLinkReferences": {}
}