{
  "_format": "hh-sol-artifact-1",
  "contractName": "FractionalizeNFT",
  "sourceName": "contracts/FractionalizeNFT.sol",
  "abi": [
    {
      "inputs": [
        {
          "internalType": "address",
          "name": "_NFTContractAddress",
          "type": "address"
        }
      ],
      "stateMutability": "nonpayable",
      "type": "constructor"
    },
    {
      "inputs": [
        {
          "internalType": "string",
          "name": "_fractionName",
          "type": "string"
        },
        {
          "internalType": "string",
          "name": "_factionSymbol",
          "type": "string"
        },
        {
          "internalType": "uint256",
          "name": "_nftid",
          "type": "uint256"
        },
        {
          "internalType": "uint256",
          "name": "_initialSupply",
          "type": "uint256"
        },
        {
          "internalType": "address",
          "name": "_mintAddress",
          "type": "address"
        }
      ],
      "name": "createFraction",
      "outputs": [],
      "stateMutability": "nonpayable",
      "type": "function"
    },
    {
      "inputs": [
        {
          "internalType": "address",
          "name": "useraddress",
          "type": "address"
        }
      ],
      "name": "getUserFractions",
      "outputs": [
        {
          "internalType": "address[]",
          "name": "",
          "type": "address[]"
        }
      ],
      "stateMutability": "view",
      "type": "function"
    },
    {
      "inputs": [
        {
          "internalType": "address",
          "name": "",
          "type": "address"
        },
        {
          "internalType": "address",
          "name": "from",
          "type": "address"
        },
        {
          "internalType": "uint256",
          "name": "",
          "type": "uint256"
        },
        {
          "internalType": "bytes",
          "name": "",
          "type": "bytes"
        }
      ],
      "name": "onERC721Received",
      "outputs": [
        {
          "internalType": "bytes4",
          "name": "",
          "type": "bytes4"
        }
      ],
      "stateMutability": "pure",
      "type": "function"
    },
    {
      "inputs": [
        {
          "internalType": "address",
          "name": "_shareAddress",
          "type": "address"
        },
        {
          "internalType": "address",
          "name": "_userAddress",
          "type": "address"
        }
      ],
      "name": "removeUserShareAddress",
      "outputs": [],
      "stateMutability": "nonpayable",
      "type": "function"
    },
    {
      "inputs": [
        {
          "internalType": "address",
          "name": "_shareAddress",
          "type": "address"
        },
        {
          "internalType": "address",
          "name": "_userAddress",
          "type": "address"
        }
      ],
      "name": "setUserShareAddress",
      "outputs": [],
      "stateMutability": "nonpayable",
      "type": "function"
    },
    {
      "inputs": [
        {
          "internalType": "address",
          "name": "_fractionContract",
          "type": "address"
        }
      ],
      "name": "withdrawNft",
      "outputs": [],
      "stateMutability": "nonpayable",
      "type": "function"
    }
  ],
  "bytecode": "0x60806040523480156200001157600080fd5b5060405162003dbb38038062003dbb8339818101604052810190620000379190620000e9565b80600160006101000a81548173ffffffffffffffffffffffffffffffffffffffff021916908373ffffffffffffffffffffffffffffffffffffffff160217905550506200011b565b600080fd5b600073ffffffffffffffffffffffffffffffffffffffff82169050919050565b6000620000b18262000084565b9050919050565b620000c381620000a4565b8114620000cf57600080fd5b50565b600081519050620000e381620000b8565b92915050565b6000602082840312156200010257620001016200007f565b5b60006200011284828501620000d2565b91505092915050565b613c90806200012b6000396000f3fe60806040523480156200001157600080fd5b50600436106200006a5760003560e01c8063046bd29e146200006f578063150b7a0214620000a55780634a03db0c14620000db5780635da3dd2b14620000fb578063ae68d92d146200011b578063d2dc24ba146200013b575b600080fd5b6200008d600480360381019062000087919062000f78565b6200015b565b6040516200009c919062001078565b60405180910390f35b620000c36004803603810190620000bd919062001145565b62000229565b604051620000d2919062001218565b60405180910390f35b620000f96004803603810190620000f3919062001235565b6200023e565b005b62000119600480360381019062000113919062000f78565b620005d0565b005b620001396004803603810190620001339190620013d9565b62000bab565b005b62000159600480360381019062000153919062001235565b62000c74565b005b60606000808373ffffffffffffffffffffffffffffffffffffffff1673ffffffffffffffffffffffffffffffffffffffff1681526020019081526020016000208054806020026020016040519081016040528092919081815260200182805480156200021d57602002820191906000526020600020905b8160009054906101000a900473ffffffffffffffffffffffffffffffffffffffff1673ffffffffffffffffffffffffffffffffffffffff1681526020019060010190808311620001d2575b50505050509050919050565b600063150b7a0260e01b905095945050505050565b620002498262000d9b565b806200028057503073ffffffffffffffffffffffffffffffffffffffff163373ffffffffffffffffffffffffffffffffffffffff16145b620002c2576040517f08c379a0000000000000000000000000000000000000000000000000000000008152600401620002b99062001526565b60405180910390fd5b60005b6000808373ffffffffffffffffffffffffffffffffffffffff1673ffffffffffffffffffffffffffffffffffffffff16815260200190815260200160002080549050811015620005cb578273ffffffffffffffffffffffffffffffffffffffff166000808473ffffffffffffffffffffffffffffffffffffffff1673ffffffffffffffffffffffffffffffffffffffff168152602001908152602001600020828154811062000379576200037862001548565b5b9060005260206000200160009054906101000a900473ffffffffffffffffffffffffffffffffffffffff1673ffffffffffffffffffffffffffffffffffffffff161415620005b5576000808373ffffffffffffffffffffffffffffffffffffffff1673ffffffffffffffffffffffffffffffffffffffff16815260200190815260200160002060016000808573ffffffffffffffffffffffffffffffffffffffff1673ffffffffffffffffffffffffffffffffffffffff168152602001908152602001600020805490506200044f9190620015a6565b8154811062000463576200046262001548565b5b9060005260206000200160009054906101000a900473ffffffffffffffffffffffffffffffffffffffff166000808473ffffffffffffffffffffffffffffffffffffffff1673ffffffffffffffffffffffffffffffffffffffff1681526020019081526020016000208281548110620004e157620004e062001548565b5b9060005260206000200160006101000a81548173ffffffffffffffffffffffffffffffffffffffff021916908373ffffffffffffffffffffffffffffffffffffffff1602179055506000808373ffffffffffffffffffffffffffffffffffffffff1673ffffffffffffffffffffffffffffffffffffffff1681526020019081526020016000208054806200057a5762000579620015e1565b5b6001900381819060005260206000200160006101000a81549073ffffffffffffffffffffffffffffffffffffffff02191690559055620005cb565b8080620005c29062001610565b915050620002c5565b505050565b60008190503073ffffffffffffffffffffffffffffffffffffffff168173ffffffffffffffffffffffffffffffffffffffff1663365002136040518163ffffffff1660e01b815260040160206040518083038186803b1580156200063357600080fd5b505afa15801562000648573d6000803e3d6000fd5b505050506040513d601f19601f820116820180604052508101906200066e919062001675565b73ffffffffffffffffffffffffffffffffffffffff1614620006c7576040517f08c379a0000000000000000000000000000000000000000000000000000000008152600401620006be9062001743565b60405180910390fd5b620006d28262000d9b565b62000714576040517f08c379a00000000000000000000000000000000000000000000000000000000081526004016200070b90620017b5565b60405180910390fd5b8073ffffffffffffffffffffffffffffffffffffffff166318160ddd6040518163ffffffff1660e01b815260040160206040518083038186803b1580156200075b57600080fd5b505afa15801562000770573d6000803e3d6000fd5b505050506040513d601f19601f82011682018060405250810190620007969190620017ee565b8173ffffffffffffffffffffffffffffffffffffffff166370a08231336040518263ffffffff1660e01b8152600401620007d1919062001831565b60206040518083038186803b158015620007ea57600080fd5b505afa158015620007ff573d6000803e3d6000fd5b505050506040513d601f19601f82011682018060405250810190620008259190620017ee565b1462000868576040517f08c379a00000000000000000000000000000000000000000000000000000000081526004016200085f906200189e565b60405180910390fd5b60008173ffffffffffffffffffffffffffffffffffffffff16634b4ff46f6040518163ffffffff1660e01b815260040160206040518083038186803b158015620008b157600080fd5b505afa158015620008c6573d6000803e3d6000fd5b505050506040513d601f19601f82011682018060405250810190620008ec9190620017ee565b90508173ffffffffffffffffffffffffffffffffffffffff1663bf15bc39336040518263ffffffff1660e01b815260040162000929919062001831565b600060405180830381600087803b1580156200094457600080fd5b505af115801562000959573d6000803e3d6000fd5b505050506000600160009054906101000a900473ffffffffffffffffffffffffffffffffffffffff1690508073ffffffffffffffffffffffffffffffffffffffff166342842e0e3033856040518463ffffffff1660e01b8152600401620009c393929190620018d1565b600060405180830381600087803b158015620009de57600080fd5b505af1158015620009f3573d6000803e3d6000fd5b5050505062000a0384336200023e565b60005b60028054905081101562000ba4578473ffffffffffffffffffffffffffffffffffffffff166002828154811062000a425762000a4162001548565b5b9060005260206000200160009054906101000a900473ffffffffffffffffffffffffffffffffffffffff1673ffffffffffffffffffffffffffffffffffffffff16141562000b8e576002600160028054905062000aa09190620015a6565b8154811062000ab45762000ab362001548565b5b9060005260206000200160009054906101000a900473ffffffffffffffffffffffffffffffffffffffff166002828154811062000af65762000af562001548565b5b9060005260206000200160006101000a81548173ffffffffffffffffffffffffffffffffffffffff021916908373ffffffffffffffffffffffffffffffffffffffff160217905550600280548062000b535762000b52620015e1565b5b6001900381819060005260206000200160006101000a81549073ffffffffffffffffffffffffffffffffffffffff0219169055905562000ba4565b808062000b9b9062001610565b91505062000a06565b5050505050565b62000bb68362000e53565b600085858585853060405162000bcc9062000ef1565b62000bdd9695949392919062001990565b604051809103906000f08015801562000bfa573d6000803e3d6000fd5b5090506002819080600181540180825580915050600190039060005260206000200160009091909190916101000a81548173ffffffffffffffffffffffffffffffffffffffff021916908373ffffffffffffffffffffffffffffffffffffffff16021790555062000c6c818362000c74565b505050505050565b62000c7f8262000d9b565b8062000cb657503073ffffffffffffffffffffffffffffffffffffffff163373ffffffffffffffffffffffffffffffffffffffff16145b62000cf8576040517f08c379a000000000000000000000000000000000000000000000000000000000815260040162000cef9062001526565b60405180910390fd5b6000808273ffffffffffffffffffffffffffffffffffffffff1673ffffffffffffffffffffffffffffffffffffffff168152602001908152602001600020829080600181540180825580915050600190039060005260206000200160009091909190916101000a81548173ffffffffffffffffffffffffffffffffffffffff021916908373ffffffffffffffffffffffffffffffffffffffff1602179055505050565b600080600090505b60028054905081101562000e48578273ffffffffffffffffffffffffffffffffffffffff166002828154811062000ddf5762000dde62001548565b5b9060005260206000200160009054906101000a900473ffffffffffffffffffffffffffffffffffffffff1673ffffffffffffffffffffffffffffffffffffffff16141562000e3257600191505062000e4e565b808062000e3f9062001610565b91505062000da3565b50600090505b919050565b6000600160009054906101000a900473ffffffffffffffffffffffffffffffffffffffff1690508073ffffffffffffffffffffffffffffffffffffffff166342842e0e3330856040518463ffffffff1660e01b815260040162000eb993929190620018d1565b600060405180830381600087803b15801562000ed457600080fd5b505af115801562000ee9573d6000803e3d6000fd5b505050505050565b61224f8062001a0c83390190565b6000604051905090565b600080fd5b600080fd5b600073ffffffffffffffffffffffffffffffffffffffff82169050919050565b600062000f408262000f13565b9050919050565b62000f528162000f33565b811462000f5e57600080fd5b50565b60008135905062000f728162000f47565b92915050565b60006020828403121562000f915762000f9062000f09565b5b600062000fa18482850162000f61565b91505092915050565b600081519050919050565b600082825260208201905092915050565b6000819050602082019050919050565b62000fe18162000f33565b82525050565b600062000ff5838362000fd6565b60208301905092915050565b6000602082019050919050565b60006200101b8262000faa565b62001027818562000fb5565b9350620010348362000fc6565b8060005b838110156200106b5781516200104f888262000fe7565b97506200105c8362001001565b92505060018101905062001038565b5085935050505092915050565b600060208201905081810360008301526200109481846200100e565b905092915050565b6000819050919050565b620010b1816200109c565b8114620010bd57600080fd5b50565b600081359050620010d181620010a6565b92915050565b600080fd5b600080fd5b600080fd5b60008083601f840112620010ff57620010fe620010d7565b5b8235905067ffffffffffffffff8111156200111f576200111e620010dc565b5b6020830191508360018202830111156200113e576200113d620010e1565b5b9250929050565b60008060008060006080868803121562001164576200116362000f09565b5b6000620011748882890162000f61565b9550506020620011878882890162000f61565b94505060406200119a88828901620010c0565b935050606086013567ffffffffffffffff811115620011be57620011bd62000f0e565b5b620011cc88828901620010e6565b92509250509295509295909350565b60007fffffffff0000000000000000000000000000000000000000000000000000000082169050919050565b6200121281620011db565b82525050565b60006020820190506200122f600083018462001207565b92915050565b600080604083850312156200124f576200124e62000f09565b5b60006200125f8582860162000f61565b9250506020620012728582860162000f61565b9150509250929050565b600080fd5b6000601f19601f8301169050919050565b7f4e487b7100000000000000000000000000000000000000000000000000000000600052604160045260246000fd5b620012cc8262001281565b810181811067ffffffffffffffff82111715620012ee57620012ed62001292565b5b80604052505050565b60006200130362000eff565b9050620013118282620012c1565b919050565b600067ffffffffffffffff82111562001334576200133362001292565b5b6200133f8262001281565b9050602081019050919050565b82818337600083830152505050565b6000620013726200136c8462001316565b620012f7565b9050828152602081018484840111156200139157620013906200127c565b5b6200139e8482856200134c565b509392505050565b600082601f830112620013be57620013bd620010d7565b5b8135620013d08482602086016200135b565b91505092915050565b600080600080600060a08688031215620013f857620013f762000f09565b5b600086013567ffffffffffffffff81111562001419576200141862000f0e565b5b6200142788828901620013a6565b955050602086013567ffffffffffffffff8111156200144b576200144a62000f0e565b5b6200145988828901620013a6565b94505060406200146c88828901620010c0565b93505060606200147f88828901620010c0565b9250506080620014928882890162000f61565b9150509295509295909350565b600082825260208201905092915050565b7f4f6e6c79206672616374696f6e73206f722074686520636f6e7472616374206960008201527f7473656c662063616e2063616c6c20746869732066756e6374696f6e00000000602082015250565b60006200150e603c836200149f565b91506200151b82620014b0565b604082019050919050565b600060208201905081810360008301526200154181620014ff565b9050919050565b7f4e487b7100000000000000000000000000000000000000000000000000000000600052603260045260246000fd5b7f4e487b7100000000000000000000000000000000000000000000000000000000600052601160045260246000fd5b6000620015b3826200109c565b9150620015c0836200109c565b925082821015620015d657620015d562001577565b5b828203905092915050565b7f4e487b7100000000000000000000000000000000000000000000000000000000600052603160045260246000fd5b60006200161d826200109c565b91507fffffffffffffffffffffffffffffffffffffffffffffffffffffffffffffffff82141562001653576200165262001577565b5b600182019050919050565b6000815190506200166f8162000f47565b92915050565b6000602082840312156200168e576200168d62000f09565b5b60006200169e848285016200165e565b91505092915050565b7f4f6e6c79206672616374696f6e20746f6b656e7320637265617465642062792060008201527f74686973206672616374696f6e616c697a6520636f6e74726163742063616e2060208201527f6265206163636570746564000000000000000000000000000000000000000000604082015250565b60006200172b604b836200149f565b91506200173882620016a7565b606082019050919050565b600060208201905081810360008301526200175e816200171c565b9050919050565b7f4672616374696f6e20636f6e747261637420646f6573206e6f74206578697374600082015250565b60006200179d6020836200149f565b9150620017aa8262001765565b602082019050919050565b60006020820190508181036000830152620017d0816200178e565b9050919050565b600081519050620017e881620010a6565b92915050565b60006020828403121562001807576200180662000f09565b5b60006200181784828501620017d7565b91505092915050565b6200182b8162000f33565b82525050565b600060208201905062001848600083018462001820565b92915050565b7f596f7520646f206e6f74206f776e20616c6c2073686172657300000000000000600082015250565b6000620018866019836200149f565b915062001893826200184e565b602082019050919050565b60006020820190508181036000830152620018b98162001877565b9050919050565b620018cb816200109c565b82525050565b6000606082019050620018e8600083018662001820565b620018f7602083018562001820565b620019066040830184620018c0565b949350505050565b600081519050919050565b60005b83811015620019395780820151818401526020810190506200191c565b8381111562001949576000848401525b50505050565b60006200195c826200190e565b6200196881856200149f565b93506200197a81856020860162001919565b620019858162001281565b840191505092915050565b600060c0820190508181036000830152620019ac81896200194f565b90508181036020830152620019c281886200194f565b9050620019d36040830187620018c0565b620019e26060830186620018c0565b620019f1608083018562001820565b62001a0060a083018462001820565b97965050505050505056fe60806040523480156200001157600080fd5b506040516200224f3803806200224f833981810160405281019062000037919062000553565b858581600390805190602001906200005192919062000266565b5080600490805190602001906200006a92919062000266565b5050508360068190555080600560006101000a81548173ffffffffffffffffffffffffffffffffffffffff021916908373ffffffffffffffffffffffffffffffffffffffff160217905550620000c78284620000ee60201b60201c565b6001600560146101000a81548160ff021916908315150217905550505050505050620007cf565b600073ffffffffffffffffffffffffffffffffffffffff168273ffffffffffffffffffffffffffffffffffffffff16141562000161576040517f08c379a000000000000000000000000000000000000000000000000000000000815260040162000158906200068e565b60405180910390fd5b62000175600083836200025c60201b60201c565b8060026000828254620001899190620006df565b92505081905550806000808473ffffffffffffffffffffffffffffffffffffffff1673ffffffffffffffffffffffffffffffffffffffff168152602001908152602001600020600082825401925050819055508173ffffffffffffffffffffffffffffffffffffffff16600073ffffffffffffffffffffffffffffffffffffffff167fddf252ad1be2c89b69c2b068fc378daa952ba7f163c4a11628f55a4df523b3ef836040516200023c91906200074d565b60405180910390a362000258600083836200026160201b60201c565b5050565b505050565b505050565b828054620002749062000799565b90600052602060002090601f016020900481019282620002985760008555620002e4565b82601f10620002b357805160ff1916838001178555620002e4565b82800160010185558215620002e4579182015b82811115620002e3578251825591602001919060010190620002c6565b5b509050620002f39190620002f7565b5090565b5b8082111562000312576000816000905550600101620002f8565b5090565b6000604051905090565b600080fd5b600080fd5b600080fd5b600080fd5b6000601f19601f8301169050919050565b7f4e487b7100000000000000000000000000000000000000000000000000000000600052604160045260246000fd5b6200037f8262000334565b810181811067ffffffffffffffff82111715620003a157620003a062000345565b5b80604052505050565b6000620003b662000316565b9050620003c4828262000374565b919050565b600067ffffffffffffffff821115620003e757620003e662000345565b5b620003f28262000334565b9050602081019050919050565b60005b838110156200041f57808201518184015260208101905062000402565b838111156200042f576000848401525b50505050565b60006200044c6200044684620003c9565b620003aa565b9050828152602081018484840111156200046b576200046a6200032f565b5b62000478848285620003ff565b509392505050565b600082601f8301126200049857620004976200032a565b5b8151620004aa84826020860162000435565b91505092915050565b6000819050919050565b620004c881620004b3565b8114620004d457600080fd5b50565b600081519050620004e881620004bd565b92915050565b600073ffffffffffffffffffffffffffffffffffffffff82169050919050565b60006200051b82620004ee565b9050919050565b6200052d816200050e565b81146200053957600080fd5b50565b6000815190506200054d8162000522565b92915050565b60008060008060008060c0878903121562000573576200057262000320565b5b600087015167ffffffffffffffff81111562000594576200059362000325565b5b620005a289828a0162000480565b965050602087015167ffffffffffffffff811115620005c657620005c562000325565b5b620005d489828a0162000480565b9550506040620005e789828a01620004d7565b9450506060620005fa89828a01620004d7565b93505060806200060d89828a016200053c565b92505060a06200062089828a016200053c565b9150509295509295509295565b600082825260208201905092915050565b7f45524332303a206d696e7420746f20746865207a65726f206164647265737300600082015250565b600062000676601f836200062d565b915062000683826200063e565b602082019050919050565b60006020820190508181036000830152620006a98162000667565b9050919050565b7f4e487b7100000000000000000000000000000000000000000000000000000000600052601160045260246000fd5b6000620006ec82620004b3565b9150620006f983620004b3565b9250827fffffffffffffffffffffffffffffffffffffffffffffffffffffffffffffffff03821115620007315762000730620006b0565b5b828201905092915050565b6200074781620004b3565b82525050565b60006020820190506200076460008301846200073c565b92915050565b7f4e487b7100000000000000000000000000000000000000000000000000000000600052602260045260246000fd5b60006002820490506001821680620007b257607f821691505b60208210811415620007c957620007c86200076a565b5b50919050565b611a7080620007df6000396000f3fe608060405234801561001057600080fd5b50600436106100ea5760003560e01c80634b4ff46f1161008c578063a457c2d711610066578063a457c2d714610263578063a9059cbb14610293578063bf15bc39146102c3578063dd62ed3e146102df576100ea565b80634b4ff46f146101f757806370a082311461021557806395d89b4114610245576100ea565b806323b872dd116100c857806323b872dd1461015b578063313ce5671461018b57806336500213146101a957806339509351146101c7576100ea565b806306fdde03146100ef578063095ea7b31461010d57806318160ddd1461013d575b600080fd5b6100f761030f565b6040516101049190611049565b60405180910390f35b61012760048036038101906101229190611104565b6103a1565b604051610134919061115f565b60405180910390f35b6101456103c4565b6040516101529190611189565b60405180910390f35b610175600480360381019061017091906111a4565b6103ce565b604051610182919061115f565b60405180910390f35b6101936103fd565b6040516101a09190611213565b60405180910390f35b6101b1610406565b6040516101be919061123d565b60405180910390f35b6101e160048036038101906101dc9190611104565b610430565b6040516101ee919061115f565b60405180910390f35b6101ff610467565b60405161020c9190611189565b60405180910390f35b61022f600480360381019061022a9190611258565b610471565b60405161023c9190611189565b60405180910390f35b61024d6104b9565b60405161025a9190611049565b60405180910390f35b61027d60048036038101906102789190611104565b61054b565b60405161028a919061115f565b60405180910390f35b6102ad60048036038101906102a89190611104565b6105c2565b6040516102ba919061115f565b60405180910390f35b6102dd60048036038101906102d89190611258565b6105e5565b005b6102f960048036038101906102f49190611285565b610744565b6040516103069190611189565b60405180910390f35b60606003805461031e906112f4565b80601f016020809104026020016040519081016040528092919081815260200182805461034a906112f4565b80156103975780601f1061036c57610100808354040283529160200191610397565b820191906000526020600020905b81548152906001019060200180831161037a57829003601f168201915b5050505050905090565b6000806103ac6107cb565b90506103b98185856107d3565b600191505092915050565b6000600254905090565b6000806103d96107cb565b90506103e685828561099e565b6103f1858585610a2a565b60019150509392505050565b60006012905090565b6000600560009054906101000a900473ffffffffffffffffffffffffffffffffffffffff16905090565b60008061043b6107cb565b905061045c81858561044d8589610744565b6104579190611355565b6107d3565b600191505092915050565b6000600654905090565b60008060008373ffffffffffffffffffffffffffffffffffffffff1673ffffffffffffffffffffffffffffffffffffffff168152602001908152602001600020549050919050565b6060600480546104c8906112f4565b80601f01602080910402602001604051908101604052809291908181526020018280546104f4906112f4565b80156105415780601f1061051657610100808354040283529160200191610541565b820191906000526020600020905b81548152906001019060200180831161052457829003601f168201915b5050505050905090565b6000806105566107cb565b905060006105648286610744565b9050838110156105a9576040517f08c379a00000000000000000000000000000000000000000000000000000000081526004016105a09061141d565b60405180910390fd5b6105b682868684036107d3565b60019250505092915050565b6000806105cd6107cb565b90506105da818585610a2a565b600191505092915050565b600560009054906101000a900473ffffffffffffffffffffffffffffffffffffffff1673ffffffffffffffffffffffffffffffffffffffff163373ffffffffffffffffffffffffffffffffffffffff1614610675576040517f08c379a000000000000000000000000000000000000000000000000000000000815260040161066c906114af565b60405180910390fd5b600560149054906101000a900460ff166106c4576040517f08c379a00000000000000000000000000000000000000000000000000000000081526004016106bb9061151b565b60405180910390fd5b6106cc6103c4565b6106d582610471565b14610715576040517f08c379a000000000000000000000000000000000000000000000000000000000815260040161070c90611587565b60405180910390fd5b610726816107216103c4565b610b60565b6000600560146101000a81548160ff02191690831515021790555050565b6000600160008473ffffffffffffffffffffffffffffffffffffffff1673ffffffffffffffffffffffffffffffffffffffff16815260200190815260200160002060008373ffffffffffffffffffffffffffffffffffffffff1673ffffffffffffffffffffffffffffffffffffffff16815260200190815260200160002054905092915050565b600033905090565b600073ffffffffffffffffffffffffffffffffffffffff168373ffffffffffffffffffffffffffffffffffffffff161415610843576040517f08c379a000000000000000000000000000000000000000000000000000000000815260040161083a90611619565b60405180910390fd5b600073ffffffffffffffffffffffffffffffffffffffff168273ffffffffffffffffffffffffffffffffffffffff1614156108b3576040517f08c379a00000000000000000000000000000000000000000000000000000000081526004016108aa906116ab565b60405180910390fd5b80600160008573ffffffffffffffffffffffffffffffffffffffff1673ffffffffffffffffffffffffffffffffffffffff16815260200190815260200160002060008473ffffffffffffffffffffffffffffffffffffffff1673ffffffffffffffffffffffffffffffffffffffff168152602001908152602001600020819055508173ffffffffffffffffffffffffffffffffffffffff168373ffffffffffffffffffffffffffffffffffffffff167f8c5be1e5ebec7d5bd14f71427d1e84f3dd0314c0f7b2291e5b200ac8c7c3b925836040516109919190611189565b60405180910390a3505050565b60006109aa8484610744565b90507fffffffffffffffffffffffffffffffffffffffffffffffffffffffffffffffff8114610a245781811015610a16576040517f08c379a0000000000000000000000000000000000000000000000000000000008152600401610a0d90611717565b60405180910390fd5b610a2384848484036107d3565b5b50505050565b6000600560009054906101000a900473ffffffffffffffffffffffffffffffffffffffff1690506000610a5c84610471565b1415610ad0578073ffffffffffffffffffffffffffffffffffffffff1663d2dc24ba30856040518363ffffffff1660e01b8152600401610a9d929190611737565b600060405180830381600087803b158015610ab757600080fd5b505af1158015610acb573d6000803e3d6000fd5b505050505b610adb848484610d2e565b6000610ae685610471565b1415610b5a578073ffffffffffffffffffffffffffffffffffffffff16634a03db0c30866040518363ffffffff1660e01b8152600401610b27929190611737565b600060405180830381600087803b158015610b4157600080fd5b505af1158015610b55573d6000803e3d6000fd5b505050505b50505050565b600073ffffffffffffffffffffffffffffffffffffffff168273ffffffffffffffffffffffffffffffffffffffff161415610bd0576040517f08c379a0000000000000000000000000000000000000000000000000000000008152600401610bc7906117d2565b60405180910390fd5b610bdc82600083610fa6565b60008060008473ffffffffffffffffffffffffffffffffffffffff1673ffffffffffffffffffffffffffffffffffffffff16815260200190815260200160002054905081811015610c62576040517f08c379a0000000000000000000000000000000000000000000000000000000008152600401610c5990611864565b60405180910390fd5b8181036000808573ffffffffffffffffffffffffffffffffffffffff1673ffffffffffffffffffffffffffffffffffffffff1681526020019081526020016000208190555081600260008282540392505081905550600073ffffffffffffffffffffffffffffffffffffffff168373ffffffffffffffffffffffffffffffffffffffff167fddf252ad1be2c89b69c2b068fc378daa952ba7f163c4a11628f55a4df523b3ef84604051610d159190611189565b60405180910390a3610d2983600084610fab565b505050565b600073ffffffffffffffffffffffffffffffffffffffff168373ffffffffffffffffffffffffffffffffffffffff161415610d9e576040517f08c379a0000000000000000000000000000000000000000000000000000000008152600401610d95906118f6565b60405180910390fd5b600073ffffffffffffffffffffffffffffffffffffffff168273ffffffffffffffffffffffffffffffffffffffff161415610e0e576040517f08c379a0000000000000000000000000000000000000000000000000000000008152600401610e0590611988565b60405180910390fd5b610e19838383610fa6565b60008060008573ffffffffffffffffffffffffffffffffffffffff1673ffffffffffffffffffffffffffffffffffffffff16815260200190815260200160002054905081811015610e9f576040517f08c379a0000000000000000000000000000000000000000000000000000000008152600401610e9690611a1a565b60405180910390fd5b8181036000808673ffffffffffffffffffffffffffffffffffffffff1673ffffffffffffffffffffffffffffffffffffffff16815260200190815260200160002081905550816000808573ffffffffffffffffffffffffffffffffffffffff1673ffffffffffffffffffffffffffffffffffffffff168152602001908152602001600020600082825401925050819055508273ffffffffffffffffffffffffffffffffffffffff168473ffffffffffffffffffffffffffffffffffffffff167fddf252ad1be2c89b69c2b068fc378daa952ba7f163c4a11628f55a4df523b3ef84604051610f8d9190611189565b60405180910390a3610fa0848484610fab565b50505050565b505050565b505050565b600081519050919050565b600082825260208201905092915050565b60005b83811015610fea578082015181840152602081019050610fcf565b83811115610ff9576000848401525b50505050565b6000601f19601f8301169050919050565b600061101b82610fb0565b6110258185610fbb565b9350611035818560208601610fcc565b61103e81610fff565b840191505092915050565b600060208201905081810360008301526110638184611010565b905092915050565b600080fd5b600073ffffffffffffffffffffffffffffffffffffffff82169050919050565b600061109b82611070565b9050919050565b6110ab81611090565b81146110b657600080fd5b50565b6000813590506110c8816110a2565b92915050565b6000819050919050565b6110e1816110ce565b81146110ec57600080fd5b50565b6000813590506110fe816110d8565b92915050565b6000806040838503121561111b5761111a61106b565b5b6000611129858286016110b9565b925050602061113a858286016110ef565b9150509250929050565b60008115159050919050565b61115981611144565b82525050565b60006020820190506111746000830184611150565b92915050565b611183816110ce565b82525050565b600060208201905061119e600083018461117a565b92915050565b6000806000606084860312156111bd576111bc61106b565b5b60006111cb868287016110b9565b93505060206111dc868287016110b9565b92505060406111ed868287016110ef565b9150509250925092565b600060ff82169050919050565b61120d816111f7565b82525050565b60006020820190506112286000830184611204565b92915050565b61123781611090565b82525050565b6000602082019050611252600083018461122e565b92915050565b60006020828403121561126e5761126d61106b565b5b600061127c848285016110b9565b91505092915050565b6000806040838503121561129c5761129b61106b565b5b60006112aa858286016110b9565b92505060206112bb858286016110b9565b9150509250929050565b7f4e487b7100000000000000000000000000000000000000000000000000000000600052602260045260246000fd5b6000600282049050600182168061130c57607f821691505b602082108114156113205761131f6112c5565b5b50919050565b7f4e487b7100000000000000000000000000000000000000000000000000000000600052601160045260246000fd5b6000611360826110ce565b915061136b836110ce565b9250827fffffffffffffffffffffffffffffffffffffffffffffffffffffffffffffffff038211156113a05761139f611326565b5b828201905092915050565b7f45524332303a2064656372656173656420616c6c6f77616e63652062656c6f7760008201527f207a65726f000000000000000000000000000000000000000000000000000000602082015250565b6000611407602583610fbb565b9150611412826113ab565b604082019050919050565b60006020820190508181036000830152611436816113fa565b9050919050565b7f4f6e6c792074686520636f6e7472616374206465706c6f7965722063616e206460008201527f697361626c6520746865206672616374696f6e00000000000000000000000000602082015250565b6000611499603383610fbb565b91506114a48261143d565b604082019050919050565b600060208201905081810360008301526114c88161148c565b9050919050565b7f4672616374696f6e20697320616c72656164792064697361626c656400000000600082015250565b6000611505601c83610fbb565b9150611510826114cf565b602082019050919050565b60006020820190508181036000830152611534816114f8565b9050919050565b7f596f7520646f206e6f74206f776e20616c6c2073686172657300000000000000600082015250565b6000611571601983610fbb565b915061157c8261153b565b602082019050919050565b600060208201905081810360008301526115a081611564565b9050919050565b7f45524332303a20617070726f76652066726f6d20746865207a65726f2061646460008201527f7265737300000000000000000000000000000000000000000000000000000000602082015250565b6000611603602483610fbb565b915061160e826115a7565b604082019050919050565b60006020820190508181036000830152611632816115f6565b9050919050565b7f45524332303a20617070726f766520746f20746865207a65726f20616464726560008201527f7373000000000000000000000000000000000000000000000000000000000000602082015250565b6000611695602283610fbb565b91506116a082611639565b604082019050919050565b600060208201905081810360008301526116c481611688565b9050919050565b7f45524332303a20696e73756666696369656e7420616c6c6f77616e6365000000600082015250565b6000611701601d83610fbb565b915061170c826116cb565b602082019050919050565b60006020820190508181036000830152611730816116f4565b9050919050565b600060408201905061174c600083018561122e565b611759602083018461122e565b9392505050565b7f45524332303a206275726e2066726f6d20746865207a65726f2061646472657360008201527f7300000000000000000000000000000000000000000000000000000000000000602082015250565b60006117bc602183610fbb565b91506117c782611760565b604082019050919050565b600060208201905081810360008301526117eb816117af565b9050919050565b7f45524332303a206275726e20616d6f756e7420657863656564732062616c616e60008201527f6365000000000000000000000000000000000000000000000000000000000000602082015250565b600061184e602283610fbb565b9150611859826117f2565b604082019050919050565b6000602082019050818103600083015261187d81611841565b9050919050565b7f45524332303a207472616e736665722066726f6d20746865207a65726f20616460008201527f6472657373000000000000000000000000000000000000000000000000000000602082015250565b60006118e0602583610fbb565b91506118eb82611884565b604082019050919050565b6000602082019050818103600083015261190f816118d3565b9050919050565b7f45524332303a207472616e7366657220746f20746865207a65726f206164647260008201527f6573730000000000000000000000000000000000000000000000000000000000602082015250565b6000611972602383610fbb565b915061197d82611916565b604082019050919050565b600060208201905081810360008301526119a181611965565b9050919050565b7f45524332303a207472616e7366657220616d6f756e742065786365656473206260008201527f616c616e63650000000000000000000000000000000000000000000000000000602082015250565b6000611a04602683610fbb565b9150611a0f826119a8565b604082019050919050565b60006020820190508181036000830152611a33816119f7565b905091905056fea26469706673582212207902dc2b2ee9ec15739d8ba2d4867654ccb970fdda2fd57170bfc307b276d95f64736f6c63430008090033a26469706673582212204bb9f982942c2f57cd37be2c513a4a22a168730023bf6813a4abb76a9fac4c3c64736f6c63430008090033",
  "linkReferences": {},
  "deployedLinkReferences": {}
}