{
  "_format": "hh-sol-artifact-1",
  "contractName": "License_Contract",
  "sourceName": "contracts/License_Contract.sol",
  "abi": [
    {
      "inputs": [],
      "stateMutability": "nonpayable",
      "type": "constructor"
    },
    {
      "anonymous": false,
      "inputs": [
        {
          "indexed": true,
          "internalType": "address",
          "name": "owner",
          "type": "address"
        },
        {
          "indexed": true,
          "internalType": "address",
          "name": "approved",
          "type": "address"
        },
        {
          "indexed": true,
          "internalType": "uint256",
          "name": "tokenId",
          "type": "uint256"
        }
      ],
      "name": "Approval",
      "type": "event"
    },
    {
      "anonymous": false,
      "inputs": [
        {
          "indexed": true,
          "internalType": "address",
          "name": "owner",
          "type": "address"
        },
        {
          "indexed": true,
          "internalType": "address",
          "name": "operator",
          "type": "address"
        },
        {
          "indexed": false,
          "internalType": "bool",
          "name": "approved",
          "type": "bool"
        }
      ],
      "name": "ApprovalForAll",
      "type": "event"
    },
    {
      "anonymous": false,
      "inputs": [
        {
          "indexed": true,
          "internalType": "address",
          "name": "owner",
          "type": "address"
        },
        {
          "indexed": true,
          "internalType": "uint256",
          "name": "tokenId",
          "type": "uint256"
        },
        {
          "indexed": false,
          "internalType": "string",
          "name": "tokenURI",
          "type": "string"
        }
      ],
      "name": "LicenseCreated",
      "type": "event"
    },
    {
      "anonymous": false,
      "inputs": [
        {
          "indexed": true,
          "internalType": "address",
          "name": "previousOwner",
          "type": "address"
        },
        {
          "indexed": true,
          "internalType": "address",
          "name": "newOwner",
          "type": "address"
        }
      ],
      "name": "OwnershipTransferred",
      "type": "event"
    },
    {
      "anonymous": false,
      "inputs": [
        {
          "indexed": true,
          "internalType": "address",
          "name": "from",
          "type": "address"
        },
        {
          "indexed": true,
          "internalType": "address",
          "name": "to",
          "type": "address"
        },
        {
          "indexed": true,
          "internalType": "uint256",
          "name": "tokenId",
          "type": "uint256"
        }
      ],
      "name": "Transfer",
      "type": "event"
    },
    {
      "inputs": [
        {
          "internalType": "address",
          "name": "to",
          "type": "address"
        },
        {
          "internalType": "uint256",
          "name": "tokenId",
          "type": "uint256"
        }
      ],
      "name": "approve",
      "outputs": [],
      "stateMutability": "nonpayable",
      "type": "function"
    },
    {
      "inputs": [
        {
          "internalType": "address",
          "name": "owner",
          "type": "address"
        }
      ],
      "name": "balanceOf",
      "outputs": [
        {
          "internalType": "uint256",
          "name": "",
          "type": "uint256"
        }
      ],
      "stateMutability": "view",
      "type": "function"
    },
    {
      "inputs": [
        {
          "internalType": "uint256",
          "name": "",
          "type": "uint256"
        },
        {
          "internalType": "uint256",
          "name": "",
          "type": "uint256"
        }
      ],
      "name": "childTokens",
      "outputs": [
        {
          "internalType": "uint256",
          "name": "",
          "type": "uint256"
        }
      ],
      "stateMutability": "view",
      "type": "function"
    },
    {
      "inputs": [
        {
          "internalType": "uint256[]",
          "name": "tokenId",
          "type": "uint256[]"
        }
      ],
      "name": "combine",
      "outputs": [],
      "stateMutability": "nonpayable",
      "type": "function"
    },
    {
      "inputs": [
        {
          "internalType": "uint256[]",
          "name": "a",
          "type": "uint256[]"
        },
        {
          "internalType": "uint256[]",
          "name": "b",
          "type": "uint256[]"
        }
      ],
      "name": "compareArrays",
      "outputs": [
        {
          "internalType": "bool",
          "name": "",
          "type": "bool"
        }
      ],
      "stateMutability": "pure",
      "type": "function"
    },
    {
      "inputs": [
        {
          "internalType": "uint256",
          "name": "ancestor",
          "type": "uint256"
        }
      ],
      "name": "getAllDescendants",
      "outputs": [
        {
          "internalType": "uint256[]",
          "name": "",
          "type": "uint256[]"
        }
      ],
      "stateMutability": "view",
      "type": "function"
    },
    {
      "inputs": [
        {
          "internalType": "uint256",
          "name": "tokenId",
          "type": "uint256"
        }
      ],
      "name": "getApproved",
      "outputs": [
        {
          "internalType": "address",
          "name": "",
          "type": "address"
        }
      ],
      "stateMutability": "view",
      "type": "function"
    },
    {
      "inputs": [
        {
          "internalType": "uint256",
          "name": "tokenId",
          "type": "uint256"
        }
      ],
      "name": "getAttributes",
      "outputs": [
        {
          "internalType": "string[]",
          "name": "",
          "type": "string[]"
        }
      ],
      "stateMutability": "view",
      "type": "function"
    },
    {
      "inputs": [
        {
          "internalType": "uint256",
          "name": "tokenId",
          "type": "uint256"
        }
      ],
      "name": "getChildren",
      "outputs": [
        {
          "internalType": "uint256[]",
          "name": "",
          "type": "uint256[]"
        }
      ],
      "stateMutability": "view",
      "type": "function"
    },
    {
      "inputs": [
        {
          "internalType": "uint256",
          "name": "tokenId",
          "type": "uint256"
        }
      ],
      "name": "getCurrentTotalShares",
      "outputs": [
        {
          "internalType": "uint256",
          "name": "",
          "type": "uint256"
        }
      ],
      "stateMutability": "view",
      "type": "function"
    },
    {
      "inputs": [],
      "name": "getNextId",
      "outputs": [
        {
          "internalType": "uint256",
          "name": "",
          "type": "uint256"
        }
      ],
      "stateMutability": "view",
      "type": "function"
    },
    {
      "inputs": [
        {
          "internalType": "uint256",
          "name": "tokenId",
          "type": "uint256"
        }
      ],
      "name": "getOriginal",
      "outputs": [
        {
          "internalType": "uint256",
          "name": "",
          "type": "uint256"
        }
      ],
      "stateMutability": "view",
      "type": "function"
    },
    {
      "inputs": [
        {
          "internalType": "uint256",
          "name": "tokenId",
          "type": "uint256"
        }
      ],
      "name": "getParent",
      "outputs": [
        {
          "internalType": "uint256",
          "name": "",
          "type": "uint256"
        }
      ],
      "stateMutability": "view",
      "type": "function"
    },
    {
      "inputs": [
        {
          "internalType": "uint256",
          "name": "tokenId",
          "type": "uint256"
        }
      ],
      "name": "getParts",
      "outputs": [
        {
          "internalType": "uint256[]",
          "name": "",
          "type": "uint256[]"
        }
      ],
      "stateMutability": "view",
      "type": "function"
    },
    {
      "inputs": [
        {
          "internalType": "uint256",
          "name": "tokenId",
          "type": "uint256"
        }
      ],
      "name": "getSharesOfChild",
      "outputs": [
        {
          "internalType": "uint256",
          "name": "",
          "type": "uint256"
        }
      ],
      "stateMutability": "view",
      "type": "function"
    },
    {
      "inputs": [
        {
          "internalType": "address",
          "name": "owner",
          "type": "address"
        },
        {
          "internalType": "address",
          "name": "operator",
          "type": "address"
        }
      ],
      "name": "isApprovedForAll",
      "outputs": [
        {
          "internalType": "bool",
          "name": "",
          "type": "bool"
        }
      ],
      "stateMutability": "view",
      "type": "function"
    },
    {
      "inputs": [
        {
          "internalType": "uint256[]",
          "name": "tokenIds",
          "type": "uint256[]"
        }
      ],
      "name": "merge",
      "outputs": [],
      "stateMutability": "nonpayable",
      "type": "function"
    },
    {
      "inputs": [
        {
          "internalType": "address",
          "name": "to",
          "type": "address"
        },
        {
          "internalType": "string",
          "name": "tokenURI",
          "type": "string"
        }
      ],
      "name": "mint",
      "outputs": [],
      "stateMutability": "nonpayable",
      "type": "function"
    },
    {
      "inputs": [
        {
          "internalType": "address",
          "name": "to",
          "type": "address"
        },
        {
          "internalType": "string",
          "name": "tokenURI",
          "type": "string"
        },
        {
          "internalType": "string[]",
          "name": "attributes",
          "type": "string[]"
        },
        {
          "internalType": "string[]",
          "name": "values",
          "type": "string[]"
        }
      ],
      "name": "mintWithAttributes",
      "outputs": [],
      "stateMutability": "nonpayable",
      "type": "function"
    },
    {
      "inputs": [],
      "name": "name",
      "outputs": [
        {
          "internalType": "string",
          "name": "",
          "type": "string"
        }
      ],
      "stateMutability": "view",
      "type": "function"
    },
    {
      "inputs": [
        {
          "internalType": "address",
          "name": "operator",
          "type": "address"
        },
        {
          "internalType": "address",
          "name": "from",
          "type": "address"
        },
        {
          "internalType": "uint256",
          "name": "tokenId",
          "type": "uint256"
        },
        {
          "internalType": "bytes",
          "name": "data",
          "type": "bytes"
        }
      ],
      "name": "onERC721Received",
      "outputs": [
        {
          "internalType": "bytes4",
          "name": "",
          "type": "bytes4"
        }
      ],
      "stateMutability": "nonpayable",
      "type": "function"
    },
    {
      "inputs": [
        {
          "internalType": "uint256",
          "name": "",
          "type": "uint256"
        }
      ],
      "name": "originalToken",
      "outputs": [
        {
          "internalType": "uint256",
          "name": "",
          "type": "uint256"
        }
      ],
      "stateMutability": "view",
      "type": "function"
    },
    {
      "inputs": [],
      "name": "owner",
      "outputs": [
        {
          "internalType": "address",
          "name": "",
          "type": "address"
        }
      ],
      "stateMutability": "view",
      "type": "function"
    },
    {
      "inputs": [
        {
          "internalType": "uint256",
          "name": "tokenId",
          "type": "uint256"
        }
      ],
      "name": "ownerOf",
      "outputs": [
        {
          "internalType": "address",
          "name": "",
          "type": "address"
        }
      ],
      "stateMutability": "view",
      "type": "function"
    },
    {
      "inputs": [
        {
          "internalType": "uint256",
          "name": "",
          "type": "uint256"
        }
      ],
      "name": "parentToken",
      "outputs": [
        {
          "internalType": "uint256",
          "name": "",
          "type": "uint256"
        }
      ],
      "stateMutability": "view",
      "type": "function"
    },
    {
      "inputs": [
        {
          "internalType": "uint256",
          "name": "",
          "type": "uint256"
        },
        {
          "internalType": "uint256",
          "name": "",
          "type": "uint256"
        }
      ],
      "name": "parts",
      "outputs": [
        {
          "internalType": "uint256",
          "name": "",
          "type": "uint256"
        }
      ],
      "stateMutability": "view",
      "type": "function"
    },
    {
      "inputs": [],
      "name": "renounceOwnership",
      "outputs": [],
      "stateMutability": "nonpayable",
      "type": "function"
    },
    {
      "inputs": [
        {
          "internalType": "address",
          "name": "from",
          "type": "address"
        },
        {
          "internalType": "address",
          "name": "to",
          "type": "address"
        },
        {
          "internalType": "uint256",
          "name": "tokenId",
          "type": "uint256"
        }
      ],
      "name": "safeTransferFrom",
      "outputs": [],
      "stateMutability": "nonpayable",
      "type": "function"
    },
    {
      "inputs": [
        {
          "internalType": "address",
          "name": "from",
          "type": "address"
        },
        {
          "internalType": "address",
          "name": "to",
          "type": "address"
        },
        {
          "internalType": "uint256",
          "name": "tokenId",
          "type": "uint256"
        },
        {
          "internalType": "bytes",
          "name": "data",
          "type": "bytes"
        }
      ],
      "name": "safeTransferFrom",
      "outputs": [],
      "stateMutability": "nonpayable",
      "type": "function"
    },
    {
      "inputs": [
        {
          "internalType": "uint256",
          "name": "tokenId",
          "type": "uint256"
        }
      ],
      "name": "separate",
      "outputs": [],
      "stateMutability": "nonpayable",
      "type": "function"
    },
    {
      "inputs": [
        {
          "internalType": "address",
          "name": "operator",
          "type": "address"
        },
        {
          "internalType": "bool",
          "name": "approved",
          "type": "bool"
        }
      ],
      "name": "setApprovalForAll",
      "outputs": [],
      "stateMutability": "nonpayable",
      "type": "function"
    },
    {
      "inputs": [
        {
          "internalType": "uint256",
          "name": "",
          "type": "uint256"
        }
      ],
      "name": "shareValue",
      "outputs": [
        {
          "internalType": "uint256",
          "name": "",
          "type": "uint256"
        }
      ],
      "stateMutability": "view",
      "type": "function"
    },
    {
      "inputs": [
        {
          "internalType": "uint256",
          "name": "tokenId",
          "type": "uint256"
        },
        {
          "internalType": "string[]",
          "name": "tokenURIs",
          "type": "string[]"
        },
        {
          "internalType": "uint256[]",
          "name": "shares",
          "type": "uint256[]"
        }
      ],
      "name": "splitWithShares",
      "outputs": [],
      "stateMutability": "nonpayable",
      "type": "function"
    },
    {
      "inputs": [
        {
          "internalType": "bytes4",
          "name": "interfaceId",
          "type": "bytes4"
        }
      ],
      "name": "supportsInterface",
      "outputs": [
        {
          "internalType": "bool",
          "name": "",
          "type": "bool"
        }
      ],
      "stateMutability": "view",
      "type": "function"
    },
    {
      "inputs": [],
      "name": "symbol",
      "outputs": [
        {
          "internalType": "string",
          "name": "",
          "type": "string"
        }
      ],
      "stateMutability": "view",
      "type": "function"
    },
    {
      "inputs": [
        {
          "internalType": "uint256",
          "name": "",
          "type": "uint256"
        },
        {
          "internalType": "uint256",
          "name": "",
          "type": "uint256"
        }
      ],
      "name": "tokenAttributes",
      "outputs": [
        {
          "internalType": "string",
          "name": "name",
          "type": "string"
        },
        {
          "internalType": "string",
          "name": "value",
          "type": "string"
        }
      ],
      "stateMutability": "view",
      "type": "function"
    },
    {
      "inputs": [
        {
          "internalType": "address",
          "name": "owner",
          "type": "address"
        }
      ],
      "name": "tokenOfOwner",
      "outputs": [
        {
          "internalType": "uint256[]",
          "name": "",
          "type": "uint256[]"
        }
      ],
      "stateMutability": "view",
      "type": "function"
    },
    {
      "inputs": [
        {
          "internalType": "uint256",
          "name": "tokenId",
          "type": "uint256"
        }
      ],
      "name": "tokenURI",
      "outputs": [
        {
          "internalType": "string",
          "name": "",
          "type": "string"
        }
      ],
      "stateMutability": "view",
      "type": "function"
    },
    {
      "inputs": [
        {
          "internalType": "uint256",
          "name": "",
          "type": "uint256"
        }
      ],
      "name": "totalShareValue",
      "outputs": [
        {
          "internalType": "uint256",
          "name": "",
          "type": "uint256"
        }
      ],
      "stateMutability": "view",
      "type": "function"
    },
    {
      "inputs": [
        {
          "internalType": "address",
          "name": "from",
          "type": "address"
        },
        {
          "internalType": "address",
          "name": "to",
          "type": "address"
        },
        {
          "internalType": "uint256",
          "name": "tokenId",
          "type": "uint256"
        }
      ],
      "name": "transferFrom",
      "outputs": [],
      "stateMutability": "nonpayable",
      "type": "function"
    },
    {
      "inputs": [
        {
          "internalType": "address",
          "name": "newOwner",
          "type": "address"
        }
      ],
      "name": "transferOwnership",
      "outputs": [],
      "stateMutability": "nonpayable",
      "type": "function"
    }
  ],
  "bytecode": "0x60806040523480156200001157600080fd5b506040518060400160405280600a81526020017f4c6963656e73654e4654000000000000000000000000000000000000000000008152506040518060400160405280600481526020017f4c4e465400000000000000000000000000000000000000000000000000000000815250816000908051906020019062000096929190620001a6565b508060019080519060200190620000af929190620001a6565b505050620000d2620000c6620000d860201b60201c565b620000e060201b60201c565b620002bb565b600033905090565b6000600760009054906101000a900473ffffffffffffffffffffffffffffffffffffffff16905081600760006101000a81548173ffffffffffffffffffffffffffffffffffffffff021916908373ffffffffffffffffffffffffffffffffffffffff1602179055508173ffffffffffffffffffffffffffffffffffffffff168173ffffffffffffffffffffffffffffffffffffffff167f8be0079c531659141344cd1fd0a4f28419497f9722a3daafe3b4186f6b6457e060405160405180910390a35050565b828054620001b49062000285565b90600052602060002090601f016020900481019282620001d8576000855562000224565b82601f10620001f357805160ff191683800117855562000224565b8280016001018555821562000224579182015b828111156200022357825182559160200191906001019062000206565b5b50905062000233919062000237565b5090565b5b808211156200025257600081600090555060010162000238565b5090565b7f4e487b7100000000000000000000000000000000000000000000000000000000600052602260045260246000fd5b600060028204905060018216806200029e57607f821691505b60208210811415620002b557620002b462000256565b5b50919050565b615fe380620002cb6000396000f3fe608060405234801561001057600080fd5b50600436106102525760003560e01c806361f1037a11610146578063a6fc2b62116100c3578063c87b56dd11610087578063c87b56dd146107c6578063d0def521146107f6578063de62d84214610812578063e985e9c51461082e578063ee5412601461085e578063f2fde38b1461088e57610252565b8063a6fc2b62146106fc578063b88d4fde1461072c578063bc8c778f14610748578063bc96832614610778578063c5d57fd81461079657610252565b80637307d4bc1161010a5780637307d4bc146106585780638da5cb5b1461067457806395d89b4114610692578063974d8c93146106b0578063a22cb465146106e057610252565b806361f1037a1461058e5780636352211e146105be5780636fe8635e146105ee57806370a082311461061e578063715018a61461064e57610252565b8063294cdf0d116101d45780634378a6e3116101985780634378a6e3146104b257806349ae8dc3146104e257806349b00d57146105125780635296d23414610542578063556043811461057257610252565b8063294cdf0d146103ea5780633121266e1461041a578063343867f414610436578063414533de1461046657806342842e0e1461049657610252565b8063150b7a021161021b578063150b7a0214610322578063153409041461035257806323b872dd1461038257806324574a601461039e57806325e514c6146103ce57610252565b806206f0741461025757806301ffc9a71461028857806306fdde03146102b8578063081812fc146102d6578063095ea7b314610306575b600080fd5b610271600480360381019061026c91906140c7565b6108aa565b60405161027f9291906141a0565b60405180910390f35b6102a2600480360381019061029d919061422f565b6109fb565b6040516102af9190614277565b60405180910390f35b6102c0610add565b6040516102cd9190614292565b60405180910390f35b6102f060048036038101906102eb91906142b4565b610b6f565b6040516102fd9190614322565b60405180910390f35b610320600480360381019061031b9190614369565b610bb5565b005b61033c6004803603810190610337919061440e565b610ccd565b60405161034991906144a5565b60405180910390f35b61036c600480360381019061036791906142b4565b610cfb565b604051610379919061457e565b60405180910390f35b61039c600480360381019061039791906145a0565b610f4a565b005b6103b860048036038101906103b391906140c7565b610faa565b6040516103c59190614602565b60405180910390f35b6103e860048036038101906103e3919061475b565b610fdb565b005b61040460048036038101906103ff91906147a4565b611279565b604051610411919061457e565b60405180910390f35b610434600480360381019061042f9190614967565b611310565b005b610450600480360381019061044b91906142b4565b6114bf565b60405161045d9190614602565b60405180910390f35b610480600480360381019061047b91906142b4565b6114d7565b60405161048d9190614602565b60405180910390f35b6104b060048036038101906104ab91906145a0565b61153c565b005b6104cc60048036038101906104c791906142b4565b61155c565b6040516104d99190614b2e565b60405180910390f35b6104fc60048036038101906104f791906142b4565b6116f6565b604051610509919061457e565b60405180910390f35b61052c60048036038101906105279190614b50565b6117a9565b6040516105399190614277565b60405180910390f35b61055c600480360381019061055791906142b4565b61181a565b6040516105699190614602565b60405180910390f35b61058c60048036038101906105879190614bc8565b611832565b005b6105a860048036038101906105a391906142b4565b611ae9565b6040516105b59190614602565b60405180910390f35b6105d860048036038101906105d391906142b4565b611b4e565b6040516105e59190614322565b60405180910390f35b610608600480360381019061060391906140c7565b611bd5565b6040516106159190614602565b60405180910390f35b610638600480360381019061063391906147a4565b611c06565b6040516106459190614602565b60405180910390f35b610656611c52565b005b610672600480360381019061066d91906142b4565b611c66565b005b61067c611f18565b6040516106899190614322565b60405180910390f35b61069a611f42565b6040516106a79190614292565b60405180910390f35b6106ca60048036038101906106c591906142b4565b611fd4565b6040516106d79190614602565b60405180910390f35b6106fa60048036038101906106f59190614c7f565b611fec565b005b610716600480360381019061071191906142b4565b612002565b6040516107239190614602565b60405180910390f35b61074660048036038101906107419190614d60565b61201a565b005b610762600480360381019061075d91906142b4565b61207c565b60405161076f9190614602565b60405180910390f35b6107806120e1565b60405161078d9190614602565b60405180910390f35b6107b060048036038101906107ab91906142b4565b612103565b6040516107bd919061457e565b60405180910390f35b6107e060048036038101906107db91906142b4565b6121b6565b6040516107ed9190614292565b60405180910390f35b610810600480360381019061080b9190614de3565b6122c9565b005b61082c6004803603810190610827919061475b565b612351565b005b61084860048036038101906108439190614e3f565b6125b0565b6040516108559190614277565b60405180910390f35b610878600480360381019061087391906142b4565b612644565b6040516108859190614602565b60405180910390f35b6108a860048036038101906108a391906147a4565b6126a9565b005b600b60205281600052604060002081815481106108c657600080fd5b9060005260206000209060020201600091509150508060000180546108ea90614eae565b80601f016020809104026020016040519081016040528092919081815260200182805461091690614eae565b80156109635780601f1061093857610100808354040283529160200191610963565b820191906000526020600020905b81548152906001019060200180831161094657829003601f168201915b50505050509080600101805461097890614eae565b80601f01602080910402602001604051908101604052809291908181526020018280546109a490614eae565b80156109f15780601f106109c6576101008083540402835291602001916109f1565b820191906000526020600020905b8154815290600101906020018083116109d457829003601f168201915b5050505050905082565b60007f80ac58cd000000000000000000000000000000000000000000000000000000007bffffffffffffffffffffffffffffffffffffffffffffffffffffffff1916827bffffffffffffffffffffffffffffffffffffffffffffffffffffffff19161480610ac657507f5b5e139f000000000000000000000000000000000000000000000000000000007bffffffffffffffffffffffffffffffffffffffffffffffffffffffff1916827bffffffffffffffffffffffffffffffffffffffffffffffffffffffff1916145b80610ad65750610ad58261272d565b5b9050919050565b606060008054610aec90614eae565b80601f0160208091040260200160405190810160405280929190818152602001828054610b1890614eae565b8015610b655780601f10610b3a57610100808354040283529160200191610b65565b820191906000526020600020905b815481529060010190602001808311610b4857829003601f168201915b5050505050905090565b6000610b7a82612797565b6004600083815260200190815260200160002060009054906101000a900473ffffffffffffffffffffffffffffffffffffffff169050919050565b6000610bc082611b4e565b90508073ffffffffffffffffffffffffffffffffffffffff168373ffffffffffffffffffffffffffffffffffffffff161415610c31576040517f08c379a0000000000000000000000000000000000000000000000000000000008152600401610c2890614f52565b60405180910390fd5b8073ffffffffffffffffffffffffffffffffffffffff16610c506127e2565b73ffffffffffffffffffffffffffffffffffffffff161480610c7f5750610c7e81610c796127e2565b6125b0565b5b610cbe576040517f08c379a0000000000000000000000000000000000000000000000000000000008152600401610cb590614fe4565b60405180910390fd5b610cc883836127ea565b505050565b60007f150b7a023d4804d13e8c85fb27262cb750cf6ba9f9dd3bb30d90f482ceeb4b1f905095945050505050565b6060806000600a6000858152602001908152602001600020805480602002602001604051908101604052809291908181526020018280548015610d5d57602002820191906000526020600020905b815481526020019060010190808311610d49575b50505050509050600081511415610de557600167ffffffffffffffff811115610d8957610d8861461d565b5b604051908082528060200260200182016040528015610db75781602001602082028036833780820191505090505b5091508382600081518110610dcf57610dce615004565b5b6020026020010181815250508192505050610f45565b600080600090505b8251811015610e40576000610e1b848381518110610e0e57610e0d615004565b5b6020026020010151610cfb565b9050805183610e2a9190615062565b9250508080610e38906150b8565b915050610ded565b508067ffffffffffffffff811115610e5b57610e5a61461d565b5b604051908082528060200260200182016040528015610e895781602001602082028036833780820191505090505b5092506000805b8351811015610f3c576000610ebe858381518110610eb157610eb0615004565b5b6020026020010151610cfb565b905060005b8151811015610f2757818181518110610edf57610ede615004565b5b6020026020010151878581518110610efa57610ef9615004565b5b6020026020010181815250508380610f11906150b8565b9450508080610f1f906150b8565b915050610ec3565b50508080610f34906150b8565b915050610e90565b50839450505050505b919050565b610f5b610f556127e2565b826128a3565b610f9a576040517f08c379a0000000000000000000000000000000000000000000000000000000008152600401610f9190615173565b60405180910390fd5b610fa5838383612938565b505050565b600e6020528160005260406000208181548110610fc657600080fd5b90600052602060002001600091509150505481565b6000600f600083600081518110610ff557610ff4615004565b5b6020026020010151815260200190815260200160002054905061101781612b69565b611056576040517f08c379a000000000000000000000000000000000000000000000000000000000815260040161104d906151df565b60405180910390fd5b6000600e60008381526020019081526020016000208054806020026020016040519081016040528092919081815260200182805480156110b557602002820191906000526020600020905b8154815260200190600101908083116110a1575b505050505090506110c681846117a9565b611105576040517f08c379a00000000000000000000000000000000000000000000000000000000081526004016110fc90615297565b60405180910390fd5b60005b83518110156111b4573373ffffffffffffffffffffffffffffffffffffffff1661114b85838151811061113e5761113d615004565b5b6020026020010151611b4e565b73ffffffffffffffffffffffffffffffffffffffff16146111a1576040517f08c379a000000000000000000000000000000000000000000000000000000000815260040161119890615303565b60405180910390fd5b80806111ac906150b8565b915050611108565b506111c0303384612938565b60005b8351811015611202576111ef8482815181106111e2576111e1615004565b5b6020026020010151612baa565b80806111fa906150b8565b9150506111c3565b50600067ffffffffffffffff81111561121e5761121d61461d565b5b60405190808252806020026020018201604052801561124c5781602001602082028036833780820191505090505b50600e60008481526020019081526020016000209080519060200190611273929190613df1565b50505050565b6060600860008373ffffffffffffffffffffffffffffffffffffffff1673ffffffffffffffffffffffffffffffffffffffff16815260200190815260200160002080548060200260200160405190810160405280929190818152602001828054801561130457602002820191906000526020600020905b8154815260200190600101908083116112f0575b50505050509050919050565b611318612d7f565b805182511461135c576040517f08c379a000000000000000000000000000000000000000000000000000000000815260040161135390615395565b60405180910390fd5b6113666010612dfd565b60006113726010612e13565b905061137e8582612e21565b6113888185612e95565b60005b835181101561146857600b600083815260200190815260200160002060405180604001604052808684815181106113c5576113c4615004565b5b602002602001015181526020018584815181106113e5576113e4615004565b5b602002602001015181525090806001815401808255809150506001900390600052602060002090600202016000909190919091506000820151816000019080519060200190611435929190613e3e565b506020820151816001019080519060200190611452929190613e3e565b5050508080611460906150b8565b91505061138b565b50803373ffffffffffffffffffffffffffffffffffffffff167f8dd8fd4d09ded7ef8c4e4649c1182e5d807bbcf387f614d92b89ba21bf45c1cd866040516114b09190614292565b60405180910390a35050505050565b60096020528060005260406000206000915090505481565b60006114e282612b69565b611521576040517f08c379a0000000000000000000000000000000000000000000000000000000008152600401611518906151df565b60405180910390fd5b60096000838152602001908152602001600020549050919050565b6115578383836040518060200160405280600081525061201a565b505050565b606061156782612b69565b6115a6576040517f08c379a000000000000000000000000000000000000000000000000000000000815260040161159d906151df565b60405180910390fd5b6000600b60008481526020019081526020016000208054905067ffffffffffffffff8111156115d8576115d761461d565b5b60405190808252806020026020018201604052801561160b57816020015b60608152602001906001900390816115f65790505b50905060005b600b6000858152602001908152602001600020805490508110156116ec57600b6000858152602001908152602001600020818154811061165457611653615004565b5b9060005260206000209060020201600001600b6000868152602001908152602001600020828154811061168a57611689615004565b5b90600052602060002090600202016001016040516020016116ac9291906154a0565b6040516020818303038152906040528282815181106116ce576116cd615004565b5b602002602001018190525080806116e4906150b8565b915050611611565b5080915050919050565b606061170182612b69565b611740576040517f08c379a0000000000000000000000000000000000000000000000000000000008152600401611737906151df565b60405180910390fd5b600a600083815260200190815260200160002080548060200260200160405190810160405280929190818152602001828054801561179d57602002820191906000526020600020905b815481526020019060010190808311611789575b50505050509050919050565b600081518351146117bd5760009050611814565b60005b835181101561180e576117ed838583815181106117e0576117df615004565b5b6020026020010151612f09565b6117fb576000915050611814565b8080611806906150b8565b9150506117c0565b50600190505b92915050565b600f6020528060005260406000206000915090505481565b6001825111611876576040517f08c379a000000000000000000000000000000000000000000000000000000000815260040161186d90615541565b60405180910390fd5b3373ffffffffffffffffffffffffffffffffffffffff1661189684611b4e565b73ffffffffffffffffffffffffffffffffffffffff16146118b657600080fd5b81518151146118fa576040517f08c379a00000000000000000000000000000000000000000000000000000000081526004016118f1906155d3565b60405180910390fd5b61190533308561153c565b6000805b825181101561198257600083828151811061192757611926615004565b5b60200260200101511161196f576040517f08c379a00000000000000000000000000000000000000000000000000000000081526004016119669061563f565b60405180910390fd5b808061197a906150b8565b915050611909565b5060005b8351811015611aca576119996010612dfd565b60006119a56010612e13565b90506119b13382612e21565b6119d5818684815181106119c8576119c7615004565b5b6020026020010151612e95565b856009600083815260200190815260200160002081905550600a6000878152602001908152602001600020819080600181540180825580915050600190039060005260206000200160009091909190915055838281518110611a3a57611a39615004565b5b6020026020010151600d600083815260200190815260200160002081905550838281518110611a6c57611a6b615004565b5b602002602001015183611a7f9190615062565b9250600b6000878152602001908152602001600020600b6000838152602001908152602001600020908054611ab5929190613ec4565b50508080611ac2906150b8565b915050611986565b5080600c60008681526020019081526020016000208190555050505050565b6000611af482612b69565b611b33576040517f08c379a0000000000000000000000000000000000000000000000000000000008152600401611b2a906151df565b60405180910390fd5b600d6000838152602001908152602001600020549050919050565b600080611b5a83612f65565b9050600073ffffffffffffffffffffffffffffffffffffffff168173ffffffffffffffffffffffffffffffffffffffff161415611bcc576040517f08c379a0000000000000000000000000000000000000000000000000000000008152600401611bc3906156ab565b60405180910390fd5b80915050919050565b600a6020528160005260406000208181548110611bf157600080fd5b90600052602060002001600091509150505481565b6000600860008373ffffffffffffffffffffffffffffffffffffffff1673ffffffffffffffffffffffffffffffffffffffff168152602001908152602001600020805490509050919050565b611c5a612d7f565b611c646000612fa2565b565b6000600960008381526020019081526020016000205414611cbc576040517f08c379a0000000000000000000000000000000000000000000000000000000008152600401611cb390615717565b60405180910390fd5b611cc581612b69565b611d04576040517f08c379a0000000000000000000000000000000000000000000000000000000008152600401611cfb906151df565b60405180910390fd5b3373ffffffffffffffffffffffffffffffffffffffff16611d2482611b4e565b73ffffffffffffffffffffffffffffffffffffffff1614611d4457600080fd5b6001600b60008381526020019081526020016000208054905011611d9d576040517f08c379a0000000000000000000000000000000000000000000000000000000008152600401611d94906157a9565b60405180910390fd5b611da833308361153c565b60005b600b600083815260200190815260200160002080549050811015611f1457611dd36010612dfd565b6000611ddf6010612e13565b9050611deb3382612e21565b611dfd81611df8856121b6565b612e95565b82600f600083815260200190815260200160002081905550600e6000848152602001908152602001600020819080600181540180825580915050600190039060005260206000200160009091909190915055600b6000828152602001908152602001600020600b60008581526020019081526020016000208381548110611e8757611e86615004565b5b906000526020600020906002020190806001815401808255809150506001900390600052602060002090600202016000909190919091506000820181600001908054611ed290614eae565b611edd929190613f5c565b506001820181600101908054611ef290614eae565b611efd929190613f5c565b505050508080611f0c906150b8565b915050611dab565b5050565b6000600760009054906101000a900473ffffffffffffffffffffffffffffffffffffffff16905090565b606060018054611f5190614eae565b80601f0160208091040260200160405190810160405280929190818152602001828054611f7d90614eae565b8015611fca5780601f10611f9f57610100808354040283529160200191611fca565b820191906000526020600020905b815481529060010190602001808311611fad57829003601f168201915b5050505050905090565b600d6020528060005260406000206000915090505481565b611ffe611ff76127e2565b8383613068565b5050565b600c6020528060005260406000206000915090505481565b61202b6120256127e2565b836128a3565b61206a576040517f08c379a000000000000000000000000000000000000000000000000000000000815260040161206190615173565b60405180910390fd5b612076848484846131d5565b50505050565b600061208782612b69565b6120c6576040517f08c379a00000000000000000000000000000000000000000000000000000000081526004016120bd906151df565b60405180910390fd5b600f6000838152602001908152602001600020549050919050565b6000806120ee6010612e13565b90506001816120fd9190615062565b91505090565b606061210e82612b69565b61214d576040517f08c379a0000000000000000000000000000000000000000000000000000000008152600401612144906151df565b60405180910390fd5b600e60008381526020019081526020016000208054806020026020016040519081016040528092919081815260200182805480156121aa57602002820191906000526020600020905b815481526020019060010190808311612196575b50505050509050919050565b60606121c182612797565b60006006600084815260200190815260200160002080546121e190614eae565b80601f016020809104026020016040519081016040528092919081815260200182805461220d90614eae565b801561225a5780601f1061222f5761010080835404028352916020019161225a565b820191906000526020600020905b81548152906001019060200180831161223d57829003601f168201915b50505050509050600061226b613231565b90506000815114156122815781925050506122c4565b6000825111156122b657808260405160200161229e9291906157fa565b604051602081830303815290604052925050506122c4565b6122bf84613248565b925050505b919050565b6122d1612d7f565b6122db6010612dfd565b60006122e76010612e13565b90506122f38382612e21565b6122fd8183612e95565b803373ffffffffffffffffffffffffffffffffffffffff167f8dd8fd4d09ded7ef8c4e4649c1182e5d807bbcf387f614d92b89ba21bf45c1cd846040516123449190614292565b60405180910390a3505050565b6000600960008360008151811061236b5761236a615004565b5b6020026020010151815260200190815260200160002054905061238d81612b69565b6123cc576040517f08c379a00000000000000000000000000000000000000000000000000000000081526004016123c39061586a565b60405180910390fd5b5b600060096000838152602001908152602001600020541461240357600960008281526020019081526020016000205490506123cd565b600061240e82610cfb565b905061241a81846117a9565b612459576040517f08c379a000000000000000000000000000000000000000000000000000000000815260040161245090615922565b60405180910390fd5b60005b83518110156124d2573373ffffffffffffffffffffffffffffffffffffffff1661249f85838151811061249257612491615004565b5b6020026020010151611b4e565b73ffffffffffffffffffffffffffffffffffffffff16146124bf57600080fd5b80806124ca906150b8565b91505061245c565b506124de303384612938565b60005b83518110156125205761250d848281518110612500576124ff615004565b5b6020026020010151612baa565b8080612518906150b8565b9150506124e1565b50600067ffffffffffffffff81111561253c5761253b61461d565b5b60405190808252806020026020018201604052801561256a5781602001602082028036833780820191505090505b50600a60008481526020019081526020016000209080519060200190612591929190613df1565b506000600c600084815260200190815260200160002081905550505050565b6000600560008473ffffffffffffffffffffffffffffffffffffffff1673ffffffffffffffffffffffffffffffffffffffff16815260200190815260200160002060008373ffffffffffffffffffffffffffffffffffffffff1673ffffffffffffffffffffffffffffffffffffffff16815260200190815260200160002060009054906101000a900460ff16905092915050565b600061264f82612b69565b61268e576040517f08c379a0000000000000000000000000000000000000000000000000000000008152600401612685906151df565b60405180910390fd5b600c6000838152602001908152602001600020549050919050565b6126b1612d7f565b600073ffffffffffffffffffffffffffffffffffffffff168173ffffffffffffffffffffffffffffffffffffffff161415612721576040517f08c379a0000000000000000000000000000000000000000000000000000000008152600401612718906159b4565b60405180910390fd5b61272a81612fa2565b50565b60007f01ffc9a7000000000000000000000000000000000000000000000000000000007bffffffffffffffffffffffffffffffffffffffffffffffffffffffff1916827bffffffffffffffffffffffffffffffffffffffffffffffffffffffff1916149050919050565b6127a081612b69565b6127df576040517f08c379a00000000000000000000000000000000000000000000000000000000081526004016127d6906156ab565b60405180910390fd5b50565b600033905090565b816004600083815260200190815260200160002060006101000a81548173ffffffffffffffffffffffffffffffffffffffff021916908373ffffffffffffffffffffffffffffffffffffffff160217905550808273ffffffffffffffffffffffffffffffffffffffff1661285d83611b4e565b73ffffffffffffffffffffffffffffffffffffffff167f8c5be1e5ebec7d5bd14f71427d1e84f3dd0314c0f7b2291e5b200ac8c7c3b92560405160405180910390a45050565b6000806128af83611b4e565b90508073ffffffffffffffffffffffffffffffffffffffff168473ffffffffffffffffffffffffffffffffffffffff1614806128f157506128f081856125b0565b5b8061292f57508373ffffffffffffffffffffffffffffffffffffffff1661291784610b6f565b73ffffffffffffffffffffffffffffffffffffffff16145b91505092915050565b6129438383836132b0565b600061298d600860008673ffffffffffffffffffffffffffffffffffffffff1673ffffffffffffffffffffffffffffffffffffffff168152602001908152602001600020836135aa565b9050600860008573ffffffffffffffffffffffffffffffffffffffff1673ffffffffffffffffffffffffffffffffffffffff1681526020019081526020016000206001600860008773ffffffffffffffffffffffffffffffffffffffff1673ffffffffffffffffffffffffffffffffffffffff16815260200190815260200160002080549050612a1d91906159d4565b81548110612a2e57612a2d615004565b5b9060005260206000200154600860008673ffffffffffffffffffffffffffffffffffffffff1673ffffffffffffffffffffffffffffffffffffffff1681526020019081526020016000208281548110612a8a57612a89615004565b5b9060005260206000200181905550600860008573ffffffffffffffffffffffffffffffffffffffff1673ffffffffffffffffffffffffffffffffffffffff168152602001908152602001600020805480612ae757612ae6615a08565b5b60019003818190600052602060002001600090559055600860008473ffffffffffffffffffffffffffffffffffffffff1673ffffffffffffffffffffffffffffffffffffffff16815260200190815260200160002082908060018154018082558091505060019003906000526020600020016000909190919091505550505050565b60008073ffffffffffffffffffffffffffffffffffffffff16612b8b83612f65565b73ffffffffffffffffffffffffffffffffffffffff1614159050919050565b6000612bb582611b4e565b90506000612c01600860008473ffffffffffffffffffffffffffffffffffffffff1673ffffffffffffffffffffffffffffffffffffffff168152602001908152602001600020846135aa565b9050600860008373ffffffffffffffffffffffffffffffffffffffff1673ffffffffffffffffffffffffffffffffffffffff1681526020019081526020016000206001600860008573ffffffffffffffffffffffffffffffffffffffff1673ffffffffffffffffffffffffffffffffffffffff16815260200190815260200160002080549050612c9191906159d4565b81548110612ca257612ca1615004565b5b9060005260206000200154600860008473ffffffffffffffffffffffffffffffffffffffff1673ffffffffffffffffffffffffffffffffffffffff1681526020019081526020016000208281548110612cfe57612cfd615004565b5b9060005260206000200181905550600860008373ffffffffffffffffffffffffffffffffffffffff1673ffffffffffffffffffffffffffffffffffffffff168152602001908152602001600020805480612d5b57612d5a615a08565b5b60019003818190600052602060002001600090559055612d7a83613641565b505050565b612d876127e2565b73ffffffffffffffffffffffffffffffffffffffff16612da5611f18565b73ffffffffffffffffffffffffffffffffffffffff1614612dfb576040517f08c379a0000000000000000000000000000000000000000000000000000000008152600401612df290615a83565b60405180910390fd5b565b6001816000016000828254019250508190555050565b600081600001549050919050565b612e2b8282613694565b600860008373ffffffffffffffffffffffffffffffffffffffff1673ffffffffffffffffffffffffffffffffffffffff1681526020019081526020016000208190806001815401808255809150506001900390600052602060002001600090919091909150555050565b612e9e82612b69565b612edd576040517f08c379a0000000000000000000000000000000000000000000000000000000008152600401612ed490615b15565b60405180910390fd5b80600660008481526020019081526020016000209080519060200190612f04929190613e3e565b505050565b600080600090505b8351811015612f595782848281518110612f2e57612f2d615004565b5b60200260200101511415612f46576001915050612f5f565b8080612f51906150b8565b915050612f11565b50600090505b92915050565b60006002600083815260200190815260200160002060009054906101000a900473ffffffffffffffffffffffffffffffffffffffff169050919050565b6000600760009054906101000a900473ffffffffffffffffffffffffffffffffffffffff16905081600760006101000a81548173ffffffffffffffffffffffffffffffffffffffff021916908373ffffffffffffffffffffffffffffffffffffffff1602179055508173ffffffffffffffffffffffffffffffffffffffff168173ffffffffffffffffffffffffffffffffffffffff167f8be0079c531659141344cd1fd0a4f28419497f9722a3daafe3b4186f6b6457e060405160405180910390a35050565b8173ffffffffffffffffffffffffffffffffffffffff168373ffffffffffffffffffffffffffffffffffffffff1614156130d7576040517f08c379a00000000000000000000000000000000000000000000000000000000081526004016130ce90615b81565b60405180910390fd5b80600560008573ffffffffffffffffffffffffffffffffffffffff1673ffffffffffffffffffffffffffffffffffffffff16815260200190815260200160002060008473ffffffffffffffffffffffffffffffffffffffff1673ffffffffffffffffffffffffffffffffffffffff16815260200190815260200160002060006101000a81548160ff0219169083151502179055508173ffffffffffffffffffffffffffffffffffffffff168373ffffffffffffffffffffffffffffffffffffffff167f17307eab39ab6107e8899845ad3d59bd9653f200f220920489ca2b5937696c31836040516131c89190614277565b60405180910390a3505050565b6131e0848484612938565b6131ec848484846138b2565b61322b576040517f08c379a000000000000000000000000000000000000000000000000000000000815260040161322290615c13565b60405180910390fd5b50505050565b606060405180602001604052806000815250905090565b606061325382612797565b600061325d613231565b9050600081511161327d57604051806020016040528060008152506132a8565b8061328784613a49565b6040516020016132989291906157fa565b6040516020818303038152906040525b915050919050565b8273ffffffffffffffffffffffffffffffffffffffff166132d082611b4e565b73ffffffffffffffffffffffffffffffffffffffff1614613326576040517f08c379a000000000000000000000000000000000000000000000000000000000815260040161331d90615ca5565b60405180910390fd5b600073ffffffffffffffffffffffffffffffffffffffff168273ffffffffffffffffffffffffffffffffffffffff161415613396576040517f08c379a000000000000000000000000000000000000000000000000000000000815260040161338d90615d37565b60405180910390fd5b6133a38383836001613b21565b8273ffffffffffffffffffffffffffffffffffffffff166133c382611b4e565b73ffffffffffffffffffffffffffffffffffffffff1614613419576040517f08c379a000000000000000000000000000000000000000000000000000000000815260040161341090615ca5565b60405180910390fd5b6004600082815260200190815260200160002060006101000a81549073ffffffffffffffffffffffffffffffffffffffff02191690556001600360008573ffffffffffffffffffffffffffffffffffffffff1673ffffffffffffffffffffffffffffffffffffffff168152602001908152602001600020600082825403925050819055506001600360008473ffffffffffffffffffffffffffffffffffffffff1673ffffffffffffffffffffffffffffffffffffffff16815260200190815260200160002060008282540192505081905550816002600083815260200190815260200160002060006101000a81548173ffffffffffffffffffffffffffffffffffffffff021916908373ffffffffffffffffffffffffffffffffffffffff160217905550808273ffffffffffffffffffffffffffffffffffffffff168473ffffffffffffffffffffffffffffffffffffffff167fddf252ad1be2c89b69c2b068fc378daa952ba7f163c4a11628f55a4df523b3ef60405160405180910390a46135a58383836001613b27565b505050565b600080600090505b83805490508110156135ff57828482815481106135d2576135d1615004565b5b906000526020600020015414156135ec578091505061363b565b80806135f7906150b8565b9150506135b2565b506040517f08c379a000000000000000000000000000000000000000000000000000000000815260040161363290615da3565b60405180910390fd5b92915050565b61364a81613b2d565b600060066000838152602001908152602001600020805461366a90614eae565b905014613691576006600082815260200190815260200160002060006136909190613fe9565b5b50565b600073ffffffffffffffffffffffffffffffffffffffff168273ffffffffffffffffffffffffffffffffffffffff161415613704576040517f08c379a00000000000000000000000000000000000000000000000000000000081526004016136fb90615e0f565b60405180910390fd5b61370d81612b69565b1561374d576040517f08c379a000000000000000000000000000000000000000000000000000000000815260040161374490615e7b565b60405180910390fd5b61375b600083836001613b21565b61376481612b69565b156137a4576040517f08c379a000000000000000000000000000000000000000000000000000000000815260040161379b90615e7b565b60405180910390fd5b6001600360008473ffffffffffffffffffffffffffffffffffffffff1673ffffffffffffffffffffffffffffffffffffffff16815260200190815260200160002060008282540192505081905550816002600083815260200190815260200160002060006101000a81548173ffffffffffffffffffffffffffffffffffffffff021916908373ffffffffffffffffffffffffffffffffffffffff160217905550808273ffffffffffffffffffffffffffffffffffffffff16600073ffffffffffffffffffffffffffffffffffffffff167fddf252ad1be2c89b69c2b068fc378daa952ba7f163c4a11628f55a4df523b3ef60405160405180910390a46138ae600083836001613b27565b5050565b60006138d38473ffffffffffffffffffffffffffffffffffffffff16613c7b565b15613a3c578373ffffffffffffffffffffffffffffffffffffffff1663150b7a026138fc6127e2565b8786866040518563ffffffff1660e01b815260040161391e9493929190615ef0565b602060405180830381600087803b15801561393857600080fd5b505af192505050801561396957506040513d601f19601f820116820180604052508101906139669190615f51565b60015b6139ec573d8060008114613999576040519150601f19603f3d011682016040523d82523d6000602084013e61399e565b606091505b506000815114156139e4576040517f08c379a00000000000000000000000000000000000000000000000000000000081526004016139db90615c13565b60405180910390fd5b805181602001fd5b63150b7a0260e01b7bffffffffffffffffffffffffffffffffffffffffffffffffffffffff1916817bffffffffffffffffffffffffffffffffffffffffffffffffffffffff191614915050613a41565b600190505b949350505050565b606060006001613a5884613c9e565b01905060008167ffffffffffffffff811115613a7757613a7661461d565b5b6040519080825280601f01601f191660200182016040528015613aa95781602001600182028036833780820191505090505b509050600082602001820190505b600115613b16578080600190039150507f3031323334353637383961626364656600000000000000000000000000000000600a86061a8153600a8581613b0057613aff615f7e565b5b0494506000851415613b1157613b16565b613ab7565b819350505050919050565b50505050565b50505050565b6000613b3882611b4e565b9050613b48816000846001613b21565b613b5182611b4e565b90506004600083815260200190815260200160002060006101000a81549073ffffffffffffffffffffffffffffffffffffffff02191690556001600360008373ffffffffffffffffffffffffffffffffffffffff1673ffffffffffffffffffffffffffffffffffffffff168152602001908152602001600020600082825403925050819055506002600083815260200190815260200160002060006101000a81549073ffffffffffffffffffffffffffffffffffffffff021916905581600073ffffffffffffffffffffffffffffffffffffffff168273ffffffffffffffffffffffffffffffffffffffff167fddf252ad1be2c89b69c2b068fc378daa952ba7f163c4a11628f55a4df523b3ef60405160405180910390a4613c77816000846001613b27565b5050565b6000808273ffffffffffffffffffffffffffffffffffffffff163b119050919050565b600080600090507a184f03e93ff9f4daa797ed6e38ed64bf6a1f0100000000000000008310613cfc577a184f03e93ff9f4daa797ed6e38ed64bf6a1f0100000000000000008381613cf257613cf1615f7e565b5b0492506040810190505b6d04ee2d6d415b85acef81000000008310613d39576d04ee2d6d415b85acef81000000008381613d2f57613d2e615f7e565b5b0492506020810190505b662386f26fc100008310613d6857662386f26fc100008381613d5e57613d5d615f7e565b5b0492506010810190505b6305f5e1008310613d91576305f5e1008381613d8757613d86615f7e565b5b0492506008810190505b6127108310613db6576127108381613dac57613dab615f7e565b5b0492506004810190505b60648310613dd95760648381613dcf57613dce615f7e565b5b0492506002810190505b600a8310613de8576001810190505b80915050919050565b828054828255906000526020600020908101928215613e2d579160200282015b82811115613e2c578251825591602001919060010190613e11565b5b509050613e3a9190614029565b5090565b828054613e4a90614eae565b90600052602060002090601f016020900481019282613e6c5760008555613eb3565b82601f10613e8557805160ff1916838001178555613eb3565b82800160010185558215613eb3579182015b82811115613eb2578251825591602001919060010190613e97565b5b509050613ec09190614029565b5090565b828054828255906000526020600020906002028101928215613f4b5760005260206000209160020282015b82811115613f4a5782826000820181600001908054613f0d90614eae565b613f18929190613f5c565b506001820181600101908054613f2d90614eae565b613f38929190613f5c565b50505091600201919060020190613eef565b5b509050613f589190614046565b5090565b828054613f6890614eae565b90600052602060002090601f016020900481019282613f8a5760008555613fd8565b82601f10613f9b5780548555613fd8565b82800160010185558215613fd857600052602060002091601f016020900482015b82811115613fd7578254825591600101919060010190613fbc565b5b509050613fe59190614029565b5090565b508054613ff590614eae565b6000825580601f106140075750614026565b601f0160209004906000526020600020908101906140259190614029565b5b50565b5b8082111561404257600081600090555060010161402a565b5090565b5b8082111561407957600080820160006140609190613fe9565b6001820160006140709190613fe9565b50600201614047565b5090565b6000604051905090565b600080fd5b600080fd5b6000819050919050565b6140a481614091565b81146140af57600080fd5b50565b6000813590506140c18161409b565b92915050565b600080604083850312156140de576140dd614087565b5b60006140ec858286016140b2565b92505060206140fd858286016140b2565b9150509250929050565b600081519050919050565b600082825260208201905092915050565b60005b83811015614141578082015181840152602081019050614126565b83811115614150576000848401525b50505050565b6000601f19601f8301169050919050565b600061417282614107565b61417c8185614112565b935061418c818560208601614123565b61419581614156565b840191505092915050565b600060408201905081810360008301526141ba8185614167565b905081810360208301526141ce8184614167565b90509392505050565b60007fffffffff0000000000000000000000000000000000000000000000000000000082169050919050565b61420c816141d7565b811461421757600080fd5b50565b60008135905061422981614203565b92915050565b60006020828403121561424557614244614087565b5b60006142538482850161421a565b91505092915050565b60008115159050919050565b6142718161425c565b82525050565b600060208201905061428c6000830184614268565b92915050565b600060208201905081810360008301526142ac8184614167565b905092915050565b6000602082840312156142ca576142c9614087565b5b60006142d8848285016140b2565b91505092915050565b600073ffffffffffffffffffffffffffffffffffffffff82169050919050565b600061430c826142e1565b9050919050565b61431c81614301565b82525050565b60006020820190506143376000830184614313565b92915050565b61434681614301565b811461435157600080fd5b50565b6000813590506143638161433d565b92915050565b600080604083850312156143805761437f614087565b5b600061438e85828601614354565b925050602061439f858286016140b2565b9150509250929050565b600080fd5b600080fd5b600080fd5b60008083601f8401126143ce576143cd6143a9565b5b8235905067ffffffffffffffff8111156143eb576143ea6143ae565b5b602083019150836001820283011115614407576144066143b3565b5b9250929050565b60008060008060006080868803121561442a57614429614087565b5b600061443888828901614354565b955050602061444988828901614354565b945050604061445a888289016140b2565b935050606086013567ffffffffffffffff81111561447b5761447a61408c565b5b614487888289016143b8565b92509250509295509295909350565b61449f816141d7565b82525050565b60006020820190506144ba6000830184614496565b92915050565b600081519050919050565b600082825260208201905092915050565b6000819050602082019050919050565b6144f581614091565b82525050565b600061450783836144ec565b60208301905092915050565b6000602082019050919050565b600061452b826144c0565b61453581856144cb565b9350614540836144dc565b8060005b8381101561457157815161455888826144fb565b975061456383614513565b925050600181019050614544565b5085935050505092915050565b600060208201905081810360008301526145988184614520565b905092915050565b6000806000606084860312156145b9576145b8614087565b5b60006145c786828701614354565b93505060206145d886828701614354565b92505060406145e9868287016140b2565b9150509250925092565b6145fc81614091565b82525050565b600060208201905061461760008301846145f3565b92915050565b7f4e487b7100000000000000000000000000000000000000000000000000000000600052604160045260246000fd5b61465582614156565b810181811067ffffffffffffffff821117156146745761467361461d565b5b80604052505050565b600061468761407d565b9050614693828261464c565b919050565b600067ffffffffffffffff8211156146b3576146b261461d565b5b602082029050602081019050919050565b60006146d76146d284614698565b61467d565b905080838252602082019050602084028301858111156146fa576146f96143b3565b5b835b81811015614723578061470f88826140b2565b8452602084019350506020810190506146fc565b5050509392505050565b600082601f830112614742576147416143a9565b5b81356147528482602086016146c4565b91505092915050565b60006020828403121561477157614770614087565b5b600082013567ffffffffffffffff81111561478f5761478e61408c565b5b61479b8482850161472d565b91505092915050565b6000602082840312156147ba576147b9614087565b5b60006147c884828501614354565b91505092915050565b600080fd5b600067ffffffffffffffff8211156147f1576147f061461d565b5b6147fa82614156565b9050602081019050919050565b82818337600083830152505050565b6000614829614824846147d6565b61467d565b905082815260208101848484011115614845576148446147d1565b5b614850848285614807565b509392505050565b600082601f83011261486d5761486c6143a9565b5b813561487d848260208601614816565b91505092915050565b600067ffffffffffffffff8211156148a1576148a061461d565b5b602082029050602081019050919050565b60006148c56148c084614886565b61467d565b905080838252602082019050602084028301858111156148e8576148e76143b3565b5b835b8181101561492f57803567ffffffffffffffff81111561490d5761490c6143a9565b5b80860161491a8982614858565b855260208501945050506020810190506148ea565b5050509392505050565b600082601f83011261494e5761494d6143a9565b5b813561495e8482602086016148b2565b91505092915050565b6000806000806080858703121561498157614980614087565b5b600061498f87828801614354565b945050602085013567ffffffffffffffff8111156149b0576149af61408c565b5b6149bc87828801614858565b935050604085013567ffffffffffffffff8111156149dd576149dc61408c565b5b6149e987828801614939565b925050606085013567ffffffffffffffff811115614a0a57614a0961408c565b5b614a1687828801614939565b91505092959194509250565b600081519050919050565b600082825260208201905092915050565b6000819050602082019050919050565b600082825260208201905092915050565b6000614a6a82614107565b614a748185614a4e565b9350614a84818560208601614123565b614a8d81614156565b840191505092915050565b6000614aa48383614a5f565b905092915050565b6000602082019050919050565b6000614ac482614a22565b614ace8185614a2d565b935083602082028501614ae085614a3e565b8060005b85811015614b1c5784840389528151614afd8582614a98565b9450614b0883614aac565b925060208a01995050600181019050614ae4565b50829750879550505050505092915050565b60006020820190508181036000830152614b488184614ab9565b905092915050565b60008060408385031215614b6757614b66614087565b5b600083013567ffffffffffffffff811115614b8557614b8461408c565b5b614b918582860161472d565b925050602083013567ffffffffffffffff811115614bb257614bb161408c565b5b614bbe8582860161472d565b9150509250929050565b600080600060608486031215614be157614be0614087565b5b6000614bef868287016140b2565b935050602084013567ffffffffffffffff811115614c1057614c0f61408c565b5b614c1c86828701614939565b925050604084013567ffffffffffffffff811115614c3d57614c3c61408c565b5b614c498682870161472d565b9150509250925092565b614c5c8161425c565b8114614c6757600080fd5b50565b600081359050614c7981614c53565b92915050565b60008060408385031215614c9657614c95614087565b5b6000614ca485828601614354565b9250506020614cb585828601614c6a565b9150509250929050565b600067ffffffffffffffff821115614cda57614cd961461d565b5b614ce382614156565b9050602081019050919050565b6000614d03614cfe84614cbf565b61467d565b905082815260208101848484011115614d1f57614d1e6147d1565b5b614d2a848285614807565b509392505050565b600082601f830112614d4757614d466143a9565b5b8135614d57848260208601614cf0565b91505092915050565b60008060008060808587031215614d7a57614d79614087565b5b6000614d8887828801614354565b9450506020614d9987828801614354565b9350506040614daa878288016140b2565b925050606085013567ffffffffffffffff811115614dcb57614dca61408c565b5b614dd787828801614d32565b91505092959194509250565b60008060408385031215614dfa57614df9614087565b5b6000614e0885828601614354565b925050602083013567ffffffffffffffff811115614e2957614e2861408c565b5b614e3585828601614858565b9150509250929050565b60008060408385031215614e5657614e55614087565b5b6000614e6485828601614354565b9250506020614e7585828601614354565b9150509250929050565b7f4e487b7100000000000000000000000000000000000000000000000000000000600052602260045260246000fd5b60006002820490506001821680614ec657607f821691505b60208210811415614eda57614ed9614e7f565b5b50919050565b7f4552433732313a20617070726f76616c20746f2063757272656e74206f776e6560008201527f7200000000000000000000000000000000000000000000000000000000000000602082015250565b6000614f3c602183614112565b9150614f4782614ee0565b604082019050919050565b60006020820190508181036000830152614f6b81614f2f565b9050919050565b7f4552433732313a20617070726f76652063616c6c6572206973206e6f7420746f60008201527f6b656e206f776e6572206f7220617070726f76656420666f7220616c6c000000602082015250565b6000614fce603d83614112565b9150614fd982614f72565b604082019050919050565b60006020820190508181036000830152614ffd81614fc1565b9050919050565b7f4e487b7100000000000000000000000000000000000000000000000000000000600052603260045260246000fd5b7f4e487b7100000000000000000000000000000000000000000000000000000000600052601160045260246000fd5b600061506d82614091565b915061507883614091565b9250827fffffffffffffffffffffffffffffffffffffffffffffffffffffffffffffffff038211156150ad576150ac615033565b5b828201905092915050565b60006150c382614091565b91507fffffffffffffffffffffffffffffffffffffffffffffffffffffffffffffffff8214156150f6576150f5615033565b5b600182019050919050565b7f4552433732313a2063616c6c6572206973206e6f7420746f6b656e206f776e6560008201527f72206f7220617070726f76656400000000000000000000000000000000000000602082015250565b600061515d602d83614112565b915061516882615101565b604082019050919050565b6000602082019050818103600083015261518c81615150565b9050919050565b7f546f6b656e20646f6573206e6f74206578697374000000000000000000000000600082015250565b60006151c9601483614112565b91506151d482615193565b602082019050919050565b600060208201905081810360008301526151f8816151bc565b9050919050565b7f506172747320617265206e6f742066726f6d207468652073616d6520616e636560008201527f73746f72206f72206e6f7420616c6c207061727473206172652070726573656e60208201527f7400000000000000000000000000000000000000000000000000000000000000604082015250565b6000615281604183614112565b915061528c826151ff565b606082019050919050565b600060208201905081810360008301526152b081615274565b9050919050565b7f496e76616c696420636f6d62696e650000000000000000000000000000000000600082015250565b60006152ed600f83614112565b91506152f8826152b7565b602082019050919050565b6000602082019050818103600083015261531c816152e0565b9050919050565b7f4174747269627574657320616e642076616c756573206d75737420686176652060008201527f7468652073616d65206c656e6774680000000000000000000000000000000000602082015250565b600061537f602f83614112565b915061538a82615323565b604082019050919050565b600060208201905081810360008301526153ae81615372565b9050919050565b600081905092915050565b60008190508160005260206000209050919050565b600081546153e281614eae565b6153ec81866153b5565b9450600182166000811461540757600181146154185761544b565b60ff1983168652818601935061544b565b615421856153c0565b60005b8381101561544357815481890152600182019150602081019050615424565b838801955050505b50505092915050565b7f2400000000000000000000000000000000000000000000000000000000000000600082015250565b600061548a6001836153b5565b915061549582615454565b600182019050919050565b60006154ac82856153d5565b91506154b78261547d565b91506154c382846153d5565b91508190509392505050565b7f5468657265206d757374206265206d6f7265207468616e206f6e65206368696c60008201527f6420746f6b656e00000000000000000000000000000000000000000000000000602082015250565b600061552b602783614112565b9150615536826154cf565b604082019050919050565b6000602082019050818103600083015261555a8161551e565b9050919050565b7f53686172657320616e6420746f6b656e55524973206d7573742068617665207460008201527f68652073616d65206c656e677468000000000000000000000000000000000000602082015250565b60006155bd602e83614112565b91506155c882615561565b604082019050919050565b600060208201905081810360008301526155ec816155b0565b9050919050565b7f536861726573206d7573742062652067726561746572207468616e2030000000600082015250565b6000615629601d83614112565b9150615634826155f3565b602082019050919050565b600060208201905081810360008301526156588161561c565b9050919050565b7f4552433732313a20696e76616c696420746f6b656e2049440000000000000000600082015250565b6000615695601883614112565b91506156a08261565f565b602082019050919050565b600060208201905081810360008301526156c481615688565b9050919050565b7f546f6b656e206d757374206265206f726967696e616c00000000000000000000600082015250565b6000615701601683614112565b915061570c826156cb565b602082019050919050565b60006020820190508181036000830152615730816156f4565b9050919050565b7f546f6b656e20686173206e6f20617474726962757465732f6f6e6c79206f6e6560008201527f2061747472696275746500000000000000000000000000000000000000000000602082015250565b6000615793602a83614112565b915061579e82615737565b604082019050919050565b600060208201905081810360008301526157c281615786565b9050919050565b60006157d482614107565b6157de81856153b5565b93506157ee818560208601614123565b80840191505092915050565b600061580682856157c9565b915061581282846157c9565b91508190509392505050565b7f546f6b656e20646f6573206e6f74206861766520706172656e74000000000000600082015250565b6000615854601a83614112565b915061585f8261581e565b602082019050919050565b6000602082019050818103600083015261588381615847565b9050919050565b7f44657363656e64616e747320617265206e6f742066726f6d207468652073616d60008201527f6520616e636573746f72206f72206e6f7420616c6c2064657363656e64616e7460208201527f73206172652070726573656e7400000000000000000000000000000000000000604082015250565b600061590c604d83614112565b91506159178261588a565b606082019050919050565b6000602082019050818103600083015261593b816158ff565b9050919050565b7f4f776e61626c653a206e6577206f776e657220697320746865207a65726f206160008201527f6464726573730000000000000000000000000000000000000000000000000000602082015250565b600061599e602683614112565b91506159a982615942565b604082019050919050565b600060208201905081810360008301526159cd81615991565b9050919050565b60006159df82614091565b91506159ea83614091565b9250828210156159fd576159fc615033565b5b828203905092915050565b7f4e487b7100000000000000000000000000000000000000000000000000000000600052603160045260246000fd5b7f4f776e61626c653a2063616c6c6572206973206e6f7420746865206f776e6572600082015250565b6000615a6d602083614112565b9150615a7882615a37565b602082019050919050565b60006020820190508181036000830152615a9c81615a60565b9050919050565b7f45524337323155524953746f726167653a2055524920736574206f66206e6f6e60008201527f6578697374656e7420746f6b656e000000000000000000000000000000000000602082015250565b6000615aff602e83614112565b9150615b0a82615aa3565b604082019050919050565b60006020820190508181036000830152615b2e81615af2565b9050919050565b7f4552433732313a20617070726f766520746f2063616c6c657200000000000000600082015250565b6000615b6b601983614112565b9150615b7682615b35565b602082019050919050565b60006020820190508181036000830152615b9a81615b5e565b9050919050565b7f4552433732313a207472616e7366657220746f206e6f6e20455243373231526560008201527f63656976657220696d706c656d656e7465720000000000000000000000000000602082015250565b6000615bfd603283614112565b9150615c0882615ba1565b604082019050919050565b60006020820190508181036000830152615c2c81615bf0565b9050919050565b7f4552433732313a207472616e736665722066726f6d20696e636f72726563742060008201527f6f776e6572000000000000000000000000000000000000000000000000000000602082015250565b6000615c8f602583614112565b9150615c9a82615c33565b604082019050919050565b60006020820190508181036000830152615cbe81615c82565b9050919050565b7f4552433732313a207472616e7366657220746f20746865207a65726f2061646460008201527f7265737300000000000000000000000000000000000000000000000000000000602082015250565b6000615d21602483614112565b9150615d2c82615cc5565b604082019050919050565b60006020820190508181036000830152615d5081615d14565b9050919050565b7f456c656d656e74206e6f7420666f756e6420696e206172726179000000000000600082015250565b6000615d8d601a83614112565b9150615d9882615d57565b602082019050919050565b60006020820190508181036000830152615dbc81615d80565b9050919050565b7f4552433732313a206d696e7420746f20746865207a65726f2061646472657373600082015250565b6000615df9602083614112565b9150615e0482615dc3565b602082019050919050565b60006020820190508181036000830152615e2881615dec565b9050919050565b7f4552433732313a20746f6b656e20616c7265616479206d696e74656400000000600082015250565b6000615e65601c83614112565b9150615e7082615e2f565b602082019050919050565b60006020820190508181036000830152615e9481615e58565b9050919050565b600081519050919050565b600082825260208201905092915050565b6000615ec282615e9b565b615ecc8185615ea6565b9350615edc818560208601614123565b615ee581614156565b840191505092915050565b6000608082019050615f056000830187614313565b615f126020830186614313565b615f1f60408301856145f3565b8181036060830152615f318184615eb7565b905095945050505050565b600081519050615f4b81614203565b92915050565b600060208284031215615f6757615f66614087565b5b6000615f7584828501615f3c565b91505092915050565b7f4e487b7100000000000000000000000000000000000000000000000000000000600052601260045260246000fdfea2646970667358221220a3637f155af4a2b8a04c2332ead27e42ba3b881b82dc88b6749057a78030223c64736f6c63430008090033",
  "linkReferences": {},
  "deployedLinkReferences": {}
}