{
  "_format": "hh-sol-artifact-1",
  "contractName": "License_Contract",
  "sourceName": "contracts/License_Contract.sol",
  "abi": [
    {
      "inputs": [],
      "stateMutability": "nonpayable",
      "type": "constructor"
    },
    {
      "anonymous": false,
      "inputs": [
        {
          "indexed": true,
          "internalType": "address",
          "name": "owner",
          "type": "address"
        },
        {
          "indexed": true,
          "internalType": "address",
          "name": "approved",
          "type": "address"
        },
        {
          "indexed": true,
          "internalType": "uint256",
          "name": "tokenId",
          "type": "uint256"
        }
      ],
      "name": "Approval",
      "type": "event"
    },
    {
      "anonymous": false,
      "inputs": [
        {
          "indexed": true,
          "internalType": "address",
          "name": "owner",
          "type": "address"
        },
        {
          "indexed": true,
          "internalType": "address",
          "name": "operator",
          "type": "address"
        },
        {
          "indexed": false,
          "internalType": "bool",
          "name": "approved",
          "type": "bool"
        }
      ],
      "name": "ApprovalForAll",
      "type": "event"
    },
    {
      "anonymous": false,
      "inputs": [
        {
          "indexed": true,
          "internalType": "address",
          "name": "owner",
          "type": "address"
        },
        {
          "indexed": true,
          "internalType": "uint256",
          "name": "tokenId",
          "type": "uint256"
        },
        {
          "indexed": false,
          "internalType": "string",
          "name": "tokenURI",
          "type": "string"
        }
      ],
      "name": "LicenseCreated",
      "type": "event"
    },
    {
      "anonymous": false,
      "inputs": [
        {
          "indexed": true,
          "internalType": "address",
          "name": "previousOwner",
          "type": "address"
        },
        {
          "indexed": true,
          "internalType": "address",
          "name": "newOwner",
          "type": "address"
        }
      ],
      "name": "OwnershipTransferred",
      "type": "event"
    },
    {
      "anonymous": false,
      "inputs": [
        {
          "indexed": true,
          "internalType": "address",
          "name": "from",
          "type": "address"
        },
        {
          "indexed": true,
          "internalType": "address",
          "name": "to",
          "type": "address"
        },
        {
          "indexed": true,
          "internalType": "uint256",
          "name": "tokenId",
          "type": "uint256"
        }
      ],
      "name": "Transfer",
      "type": "event"
    },
    {
      "inputs": [
        {
          "internalType": "address",
          "name": "to",
          "type": "address"
        },
        {
          "internalType": "uint256",
          "name": "tokenId",
          "type": "uint256"
        }
      ],
      "name": "approve",
      "outputs": [],
      "stateMutability": "nonpayable",
      "type": "function"
    },
    {
      "inputs": [
        {
          "internalType": "address",
          "name": "owner",
          "type": "address"
        }
      ],
      "name": "balanceOf",
      "outputs": [
        {
          "internalType": "uint256",
          "name": "",
          "type": "uint256"
        }
      ],
      "stateMutability": "view",
      "type": "function"
    },
    {
      "inputs": [
        {
          "internalType": "uint256",
          "name": "",
          "type": "uint256"
        },
        {
          "internalType": "uint256",
          "name": "",
          "type": "uint256"
        }
      ],
      "name": "childTokens",
      "outputs": [
        {
          "internalType": "uint256",
          "name": "",
          "type": "uint256"
        }
      ],
      "stateMutability": "view",
      "type": "function"
    },
    {
      "inputs": [
        {
          "internalType": "uint256[]",
          "name": "tokenId",
          "type": "uint256[]"
        }
      ],
      "name": "combine",
      "outputs": [],
      "stateMutability": "nonpayable",
      "type": "function"
    },
    {
      "inputs": [
        {
          "internalType": "uint256[]",
          "name": "a",
          "type": "uint256[]"
        },
        {
          "internalType": "uint256[]",
          "name": "b",
          "type": "uint256[]"
        }
      ],
      "name": "compareArrays",
      "outputs": [
        {
          "internalType": "bool",
          "name": "",
          "type": "bool"
        }
      ],
      "stateMutability": "pure",
      "type": "function"
    },
    {
      "inputs": [
        {
          "internalType": "uint256",
          "name": "ancestor",
          "type": "uint256"
        }
      ],
      "name": "getAllDescendants",
      "outputs": [
        {
          "internalType": "uint256[]",
          "name": "",
          "type": "uint256[]"
        }
      ],
      "stateMutability": "view",
      "type": "function"
    },
    {
      "inputs": [
        {
          "internalType": "uint256",
          "name": "tokenId",
          "type": "uint256"
        }
      ],
      "name": "getApproved",
      "outputs": [
        {
          "internalType": "address",
          "name": "",
          "type": "address"
        }
      ],
      "stateMutability": "view",
      "type": "function"
    },
    {
      "inputs": [
        {
          "internalType": "uint256",
          "name": "tokenId",
          "type": "uint256"
        }
      ],
      "name": "getAttributes",
      "outputs": [
        {
          "internalType": "string[]",
          "name": "",
          "type": "string[]"
        }
      ],
      "stateMutability": "view",
      "type": "function"
    },
    {
      "inputs": [
        {
          "internalType": "uint256",
          "name": "tokenId",
          "type": "uint256"
        }
      ],
      "name": "getChildren",
      "outputs": [
        {
          "internalType": "uint256[]",
          "name": "",
          "type": "uint256[]"
        }
      ],
      "stateMutability": "view",
      "type": "function"
    },
    {
      "inputs": [
        {
          "internalType": "uint256",
          "name": "tokenId",
          "type": "uint256"
        }
      ],
      "name": "getCurrentTotalShares",
      "outputs": [
        {
          "internalType": "uint256",
          "name": "",
          "type": "uint256"
        }
      ],
      "stateMutability": "view",
      "type": "function"
    },
    {
      "inputs": [],
      "name": "getNextId",
      "outputs": [
        {
          "internalType": "uint256",
          "name": "",
          "type": "uint256"
        }
      ],
      "stateMutability": "view",
      "type": "function"
    },
    {
      "inputs": [
        {
          "internalType": "uint256",
          "name": "tokenId",
          "type": "uint256"
        }
      ],
      "name": "getOriginal",
      "outputs": [
        {
          "internalType": "uint256",
          "name": "",
          "type": "uint256"
        }
      ],
      "stateMutability": "view",
      "type": "function"
    },
    {
      "inputs": [
        {
          "internalType": "uint256",
          "name": "tokenId",
          "type": "uint256"
        }
      ],
      "name": "getParent",
      "outputs": [
        {
          "internalType": "uint256",
          "name": "",
          "type": "uint256"
        }
      ],
      "stateMutability": "view",
      "type": "function"
    },
    {
      "inputs": [
        {
          "internalType": "uint256",
          "name": "tokenId",
          "type": "uint256"
        }
      ],
      "name": "getParts",
      "outputs": [
        {
          "internalType": "uint256[]",
          "name": "",
          "type": "uint256[]"
        }
      ],
      "stateMutability": "view",
      "type": "function"
    },
    {
      "inputs": [
        {
          "internalType": "uint256",
          "name": "tokenId",
          "type": "uint256"
        }
      ],
      "name": "getSharesOfChild",
      "outputs": [
        {
          "internalType": "uint256",
          "name": "",
          "type": "uint256"
        }
      ],
      "stateMutability": "view",
      "type": "function"
    },
    {
      "inputs": [
        {
          "internalType": "address",
          "name": "owner",
          "type": "address"
        },
        {
          "internalType": "address",
          "name": "operator",
          "type": "address"
        }
      ],
      "name": "isApprovedForAll",
      "outputs": [
        {
          "internalType": "bool",
          "name": "",
          "type": "bool"
        }
      ],
      "stateMutability": "view",
      "type": "function"
    },
    {
      "inputs": [
        {
          "internalType": "uint256[]",
          "name": "tokenIds",
          "type": "uint256[]"
        }
      ],
      "name": "merge",
      "outputs": [],
      "stateMutability": "nonpayable",
      "type": "function"
    },
    {
      "inputs": [
        {
          "internalType": "address",
          "name": "to",
          "type": "address"
        },
        {
          "internalType": "string",
          "name": "tokenURI",
          "type": "string"
        }
      ],
      "name": "mint",
      "outputs": [],
      "stateMutability": "nonpayable",
      "type": "function"
    },
    {
      "inputs": [
        {
          "internalType": "address",
          "name": "to",
          "type": "address"
        },
        {
          "internalType": "string",
          "name": "tokenURI",
          "type": "string"
        },
        {
          "internalType": "string[]",
          "name": "attributes",
          "type": "string[]"
        },
        {
          "internalType": "string[]",
          "name": "values",
          "type": "string[]"
        }
      ],
      "name": "mintWithAttributes",
      "outputs": [],
      "stateMutability": "nonpayable",
      "type": "function"
    },
    {
      "inputs": [],
      "name": "name",
      "outputs": [
        {
          "internalType": "string",
          "name": "",
          "type": "string"
        }
      ],
      "stateMutability": "view",
      "type": "function"
    },
    {
      "inputs": [
        {
          "internalType": "address",
          "name": "operator",
          "type": "address"
        },
        {
          "internalType": "address",
          "name": "from",
          "type": "address"
        },
        {
          "internalType": "uint256",
          "name": "tokenId",
          "type": "uint256"
        },
        {
          "internalType": "bytes",
          "name": "data",
          "type": "bytes"
        }
      ],
      "name": "onERC721Received",
      "outputs": [
        {
          "internalType": "bytes4",
          "name": "",
          "type": "bytes4"
        }
      ],
      "stateMutability": "nonpayable",
      "type": "function"
    },
    {
      "inputs": [
        {
          "internalType": "uint256",
          "name": "",
          "type": "uint256"
        }
      ],
      "name": "originalToken",
      "outputs": [
        {
          "internalType": "uint256",
          "name": "",
          "type": "uint256"
        }
      ],
      "stateMutability": "view",
      "type": "function"
    },
    {
      "inputs": [],
      "name": "owner",
      "outputs": [
        {
          "internalType": "address",
          "name": "",
          "type": "address"
        }
      ],
      "stateMutability": "view",
      "type": "function"
    },
    {
      "inputs": [
        {
          "internalType": "uint256",
          "name": "tokenId",
          "type": "uint256"
        }
      ],
      "name": "ownerOf",
      "outputs": [
        {
          "internalType": "address",
          "name": "",
          "type": "address"
        }
      ],
      "stateMutability": "view",
      "type": "function"
    },
    {
      "inputs": [
        {
          "internalType": "uint256",
          "name": "",
          "type": "uint256"
        }
      ],
      "name": "parentToken",
      "outputs": [
        {
          "internalType": "uint256",
          "name": "",
          "type": "uint256"
        }
      ],
      "stateMutability": "view",
      "type": "function"
    },
    {
      "inputs": [
        {
          "internalType": "uint256",
          "name": "",
          "type": "uint256"
        },
        {
          "internalType": "uint256",
          "name": "",
          "type": "uint256"
        }
      ],
      "name": "parts",
      "outputs": [
        {
          "internalType": "uint256",
          "name": "",
          "type": "uint256"
        }
      ],
      "stateMutability": "view",
      "type": "function"
    },
    {
      "inputs": [],
      "name": "renounceOwnership",
      "outputs": [],
      "stateMutability": "nonpayable",
      "type": "function"
    },
    {
      "inputs": [
        {
          "internalType": "address",
          "name": "from",
          "type": "address"
        },
        {
          "internalType": "address",
          "name": "to",
          "type": "address"
        },
        {
          "internalType": "uint256",
          "name": "tokenId",
          "type": "uint256"
        }
      ],
      "name": "safeTransferFrom",
      "outputs": [],
      "stateMutability": "nonpayable",
      "type": "function"
    },
    {
      "inputs": [
        {
          "internalType": "address",
          "name": "from",
          "type": "address"
        },
        {
          "internalType": "address",
          "name": "to",
          "type": "address"
        },
        {
          "internalType": "uint256",
          "name": "tokenId",
          "type": "uint256"
        },
        {
          "internalType": "bytes",
          "name": "data",
          "type": "bytes"
        }
      ],
      "name": "safeTransferFrom",
      "outputs": [],
      "stateMutability": "nonpayable",
      "type": "function"
    },
    {
      "inputs": [
        {
          "internalType": "uint256",
          "name": "tokenId",
          "type": "uint256"
        }
      ],
      "name": "separate",
      "outputs": [],
      "stateMutability": "nonpayable",
      "type": "function"
    },
    {
      "inputs": [
        {
          "internalType": "address",
          "name": "operator",
          "type": "address"
        },
        {
          "internalType": "bool",
          "name": "approved",
          "type": "bool"
        }
      ],
      "name": "setApprovalForAll",
      "outputs": [],
      "stateMutability": "nonpayable",
      "type": "function"
    },
    {
      "inputs": [
        {
          "internalType": "uint256",
          "name": "",
          "type": "uint256"
        }
      ],
      "name": "shareValue",
      "outputs": [
        {
          "internalType": "uint256",
          "name": "",
          "type": "uint256"
        }
      ],
      "stateMutability": "view",
      "type": "function"
    },
    {
      "inputs": [
        {
          "internalType": "uint256",
          "name": "tokenId",
          "type": "uint256"
        },
        {
          "internalType": "string[]",
          "name": "tokenURIs",
          "type": "string[]"
        },
        {
          "internalType": "uint256[]",
          "name": "shares",
          "type": "uint256[]"
        }
      ],
      "name": "splitWithShares",
      "outputs": [],
      "stateMutability": "nonpayable",
      "type": "function"
    },
    {
      "inputs": [
        {
          "internalType": "bytes4",
          "name": "interfaceId",
          "type": "bytes4"
        }
      ],
      "name": "supportsInterface",
      "outputs": [
        {
          "internalType": "bool",
          "name": "",
          "type": "bool"
        }
      ],
      "stateMutability": "view",
      "type": "function"
    },
    {
      "inputs": [],
      "name": "symbol",
      "outputs": [
        {
          "internalType": "string",
          "name": "",
          "type": "string"
        }
      ],
      "stateMutability": "view",
      "type": "function"
    },
    {
      "inputs": [
        {
          "internalType": "uint256",
          "name": "",
          "type": "uint256"
        },
        {
          "internalType": "uint256",
          "name": "",
          "type": "uint256"
        }
      ],
      "name": "tokenAttributes",
      "outputs": [
        {
          "internalType": "string",
          "name": "name",
          "type": "string"
        },
        {
          "internalType": "string",
          "name": "value",
          "type": "string"
        }
      ],
      "stateMutability": "view",
      "type": "function"
    },
    {
      "inputs": [
        {
          "internalType": "address",
          "name": "owner",
          "type": "address"
        }
      ],
      "name": "tokenOfOwner",
      "outputs": [
        {
          "internalType": "uint256[]",
          "name": "",
          "type": "uint256[]"
        }
      ],
      "stateMutability": "view",
      "type": "function"
    },
    {
      "inputs": [
        {
          "internalType": "uint256",
          "name": "tokenId",
          "type": "uint256"
        }
      ],
      "name": "tokenURI",
      "outputs": [
        {
          "internalType": "string",
          "name": "",
          "type": "string"
        }
      ],
      "stateMutability": "view",
      "type": "function"
    },
    {
      "inputs": [
        {
          "internalType": "uint256",
          "name": "",
          "type": "uint256"
        }
      ],
      "name": "totalShareValue",
      "outputs": [
        {
          "internalType": "uint256",
          "name": "",
          "type": "uint256"
        }
      ],
      "stateMutability": "view",
      "type": "function"
    },
    {
      "inputs": [
        {
          "internalType": "address",
          "name": "from",
          "type": "address"
        },
        {
          "internalType": "address",
          "name": "to",
          "type": "address"
        },
        {
          "internalType": "uint256",
          "name": "tokenId",
          "type": "uint256"
        }
      ],
      "name": "transferFrom",
      "outputs": [],
      "stateMutability": "nonpayable",
      "type": "function"
    },
    {
      "inputs": [
        {
          "internalType": "address",
          "name": "newOwner",
          "type": "address"
        }
      ],
      "name": "transferOwnership",
      "outputs": [],
      "stateMutability": "nonpayable",
      "type": "function"
    }
  ],
  "bytecode": "0x60806040523480156200001157600080fd5b506040518060400160405280600a81526020017f4c6963656e73654e4654000000000000000000000000000000000000000000008152506040518060400160405280600481526020017f4c4e465400000000000000000000000000000000000000000000000000000000815250816000908051906020019062000096929190620001a6565b508060019080519060200190620000af929190620001a6565b505050620000d2620000c6620000d860201b60201c565b620000e060201b60201c565b620002bb565b600033905090565b6000600760009054906101000a900473ffffffffffffffffffffffffffffffffffffffff16905081600760006101000a81548173ffffffffffffffffffffffffffffffffffffffff021916908373ffffffffffffffffffffffffffffffffffffffff1602179055508173ffffffffffffffffffffffffffffffffffffffff168173ffffffffffffffffffffffffffffffffffffffff167f8be0079c531659141344cd1fd0a4f28419497f9722a3daafe3b4186f6b6457e060405160405180910390a35050565b828054620001b49062000285565b90600052602060002090601f016020900481019282620001d8576000855562000224565b82601f10620001f357805160ff191683800117855562000224565b8280016001018555821562000224579182015b828111156200022357825182559160200191906001019062000206565b5b50905062000233919062000237565b5090565b5b808211156200025257600081600090555060010162000238565b5090565b7f4e487b7100000000000000000000000000000000000000000000000000000000600052602260045260246000fd5b600060028204905060018216806200029e57607f821691505b60208210811415620002b557620002b462000256565b5b50919050565b615f4080620002cb6000396000f3fe608060405234801561001057600080fd5b50600436106102525760003560e01c806361f1037a11610146578063a6fc2b62116100c3578063c87b56dd11610087578063c87b56dd146107c6578063d0def521146107f6578063de62d84214610812578063e985e9c51461082e578063ee5412601461085e578063f2fde38b1461088e57610252565b8063a6fc2b62146106fc578063b88d4fde1461072c578063bc8c778f14610748578063bc96832614610778578063c5d57fd81461079657610252565b80637307d4bc1161010a5780637307d4bc146106585780638da5cb5b1461067457806395d89b4114610692578063974d8c93146106b0578063a22cb465146106e057610252565b806361f1037a1461058e5780636352211e146105be5780636fe8635e146105ee57806370a082311461061e578063715018a61461064e57610252565b8063294cdf0d116101d45780634378a6e3116101985780634378a6e3146104b257806349ae8dc3146104e257806349b00d57146105125780635296d23414610542578063556043811461057257610252565b8063294cdf0d146103ea5780633121266e1461041a578063343867f414610436578063414533de1461046657806342842e0e1461049657610252565b8063150b7a021161021b578063150b7a0214610322578063153409041461035257806323b872dd1461038257806324574a601461039e57806325e514c6146103ce57610252565b806206f0741461025757806301ffc9a71461028857806306fdde03146102b8578063081812fc146102d6578063095ea7b314610306575b600080fd5b610271600480360381019061026c9190614090565b6108aa565b60405161027f929190614169565b60405180910390f35b6102a2600480360381019061029d91906141f8565b6109fb565b6040516102af9190614240565b60405180910390f35b6102c0610add565b6040516102cd919061425b565b60405180910390f35b6102f060048036038101906102eb919061427d565b610b6f565b6040516102fd91906142eb565b60405180910390f35b610320600480360381019061031b9190614332565b610bb5565b005b61033c600480360381019061033791906143d7565b610ccd565b604051610349919061446e565b60405180910390f35b61036c6004803603810190610367919061427d565b610cfb565b6040516103799190614547565b60405180910390f35b61039c60048036038101906103979190614569565b610f4a565b005b6103b860048036038101906103b39190614090565b610faa565b6040516103c591906145cb565b60405180910390f35b6103e860048036038101906103e39190614724565b610fdb565b005b61040460048036038101906103ff919061476d565b611279565b6040516104119190614547565b60405180910390f35b610434600480360381019061042f9190614930565b611310565b005b610450600480360381019061044b919061427d565b6114bf565b60405161045d91906145cb565b60405180910390f35b610480600480360381019061047b919061427d565b6114d7565b60405161048d91906145cb565b60405180910390f35b6104b060048036038101906104ab9190614569565b61153c565b005b6104cc60048036038101906104c7919061427d565b61155c565b6040516104d99190614af7565b60405180910390f35b6104fc60048036038101906104f7919061427d565b6116f6565b6040516105099190614547565b60405180910390f35b61052c60048036038101906105279190614b19565b6117a9565b6040516105399190614240565b60405180910390f35b61055c6004803603810190610557919061427d565b61181a565b60405161056991906145cb565b60405180910390f35b61058c60048036038101906105879190614b91565b611832565b005b6105a860048036038101906105a3919061427d565b611ae9565b6040516105b591906145cb565b60405180910390f35b6105d860048036038101906105d3919061427d565b611b4e565b6040516105e591906142eb565b60405180910390f35b61060860048036038101906106039190614090565b611bd5565b60405161061591906145cb565b60405180910390f35b6106386004803603810190610633919061476d565b611c06565b60405161064591906145cb565b60405180910390f35b610656611c52565b005b610672600480360381019061066d919061427d565b611c66565b005b61067c611f18565b60405161068991906142eb565b60405180910390f35b61069a611f42565b6040516106a7919061425b565b60405180910390f35b6106ca60048036038101906106c5919061427d565b611fd4565b6040516106d791906145cb565b60405180910390f35b6106fa60048036038101906106f59190614c48565b611fec565b005b6107166004803603810190610711919061427d565b612002565b60405161072391906145cb565b60405180910390f35b61074660048036038101906107419190614d29565b61201a565b005b610762600480360381019061075d919061427d565b61207c565b60405161076f91906145cb565b60405180910390f35b6107806120e1565b60405161078d91906145cb565b60405180910390f35b6107b060048036038101906107ab919061427d565b612103565b6040516107bd9190614547565b60405180910390f35b6107e060048036038101906107db919061427d565b6121b6565b6040516107ed919061425b565b60405180910390f35b610810600480360381019061080b9190614dac565b6122c9565b005b61082c60048036038101906108279190614724565b612351565b005b61084860048036038101906108439190614e08565b612579565b6040516108559190614240565b60405180910390f35b6108786004803603810190610873919061427d565b61260d565b60405161088591906145cb565b60405180910390f35b6108a860048036038101906108a3919061476d565b612672565b005b600b60205281600052604060002081815481106108c657600080fd5b9060005260206000209060020201600091509150508060000180546108ea90614e77565b80601f016020809104026020016040519081016040528092919081815260200182805461091690614e77565b80156109635780601f1061093857610100808354040283529160200191610963565b820191906000526020600020905b81548152906001019060200180831161094657829003601f168201915b50505050509080600101805461097890614e77565b80601f01602080910402602001604051908101604052809291908181526020018280546109a490614e77565b80156109f15780601f106109c6576101008083540402835291602001916109f1565b820191906000526020600020905b8154815290600101906020018083116109d457829003601f168201915b5050505050905082565b60007f80ac58cd000000000000000000000000000000000000000000000000000000007bffffffffffffffffffffffffffffffffffffffffffffffffffffffff1916827bffffffffffffffffffffffffffffffffffffffffffffffffffffffff19161480610ac657507f5b5e139f000000000000000000000000000000000000000000000000000000007bffffffffffffffffffffffffffffffffffffffffffffffffffffffff1916827bffffffffffffffffffffffffffffffffffffffffffffffffffffffff1916145b80610ad65750610ad5826126f6565b5b9050919050565b606060008054610aec90614e77565b80601f0160208091040260200160405190810160405280929190818152602001828054610b1890614e77565b8015610b655780601f10610b3a57610100808354040283529160200191610b65565b820191906000526020600020905b815481529060010190602001808311610b4857829003601f168201915b5050505050905090565b6000610b7a82612760565b6004600083815260200190815260200160002060009054906101000a900473ffffffffffffffffffffffffffffffffffffffff169050919050565b6000610bc082611b4e565b90508073ffffffffffffffffffffffffffffffffffffffff168373ffffffffffffffffffffffffffffffffffffffff161415610c31576040517f08c379a0000000000000000000000000000000000000000000000000000000008152600401610c2890614f1b565b60405180910390fd5b8073ffffffffffffffffffffffffffffffffffffffff16610c506127ab565b73ffffffffffffffffffffffffffffffffffffffff161480610c7f5750610c7e81610c796127ab565b612579565b5b610cbe576040517f08c379a0000000000000000000000000000000000000000000000000000000008152600401610cb590614fad565b60405180910390fd5b610cc883836127b3565b505050565b60007f150b7a023d4804d13e8c85fb27262cb750cf6ba9f9dd3bb30d90f482ceeb4b1f905095945050505050565b6060806000600a6000858152602001908152602001600020805480602002602001604051908101604052809291908181526020018280548015610d5d57602002820191906000526020600020905b815481526020019060010190808311610d49575b50505050509050600081511415610de557600167ffffffffffffffff811115610d8957610d886145e6565b5b604051908082528060200260200182016040528015610db75781602001602082028036833780820191505090505b5091508382600081518110610dcf57610dce614fcd565b5b6020026020010181815250508192505050610f45565b600080600090505b8251811015610e40576000610e1b848381518110610e0e57610e0d614fcd565b5b6020026020010151610cfb565b9050805183610e2a919061502b565b9250508080610e3890615081565b915050610ded565b508067ffffffffffffffff811115610e5b57610e5a6145e6565b5b604051908082528060200260200182016040528015610e895781602001602082028036833780820191505090505b5092506000805b8351811015610f3c576000610ebe858381518110610eb157610eb0614fcd565b5b6020026020010151610cfb565b905060005b8151811015610f2757818181518110610edf57610ede614fcd565b5b6020026020010151878581518110610efa57610ef9614fcd565b5b6020026020010181815250508380610f1190615081565b9450508080610f1f90615081565b915050610ec3565b50508080610f3490615081565b915050610e90565b50839450505050505b919050565b610f5b610f556127ab565b8261286c565b610f9a576040517f08c379a0000000000000000000000000000000000000000000000000000000008152600401610f919061513c565b60405180910390fd5b610fa5838383612901565b505050565b600e6020528160005260406000208181548110610fc657600080fd5b90600052602060002001600091509150505481565b6000600f600083600081518110610ff557610ff4614fcd565b5b6020026020010151815260200190815260200160002054905061101781612b32565b611056576040517f08c379a000000000000000000000000000000000000000000000000000000000815260040161104d906151a8565b60405180910390fd5b6000600e60008381526020019081526020016000208054806020026020016040519081016040528092919081815260200182805480156110b557602002820191906000526020600020905b8154815260200190600101908083116110a1575b505050505090506110c681846117a9565b611105576040517f08c379a00000000000000000000000000000000000000000000000000000000081526004016110fc90615260565b60405180910390fd5b60005b83518110156111b4573373ffffffffffffffffffffffffffffffffffffffff1661114b85838151811061113e5761113d614fcd565b5b6020026020010151611b4e565b73ffffffffffffffffffffffffffffffffffffffff16146111a1576040517f08c379a0000000000000000000000000000000000000000000000000000000008152600401611198906152cc565b60405180910390fd5b80806111ac90615081565b915050611108565b506111c0303384612901565b60005b8351811015611202576111ef8482815181106111e2576111e1614fcd565b5b6020026020010151612b73565b80806111fa90615081565b9150506111c3565b50600067ffffffffffffffff81111561121e5761121d6145e6565b5b60405190808252806020026020018201604052801561124c5781602001602082028036833780820191505090505b50600e60008481526020019081526020016000209080519060200190611273929190613dba565b50505050565b6060600860008373ffffffffffffffffffffffffffffffffffffffff1673ffffffffffffffffffffffffffffffffffffffff16815260200190815260200160002080548060200260200160405190810160405280929190818152602001828054801561130457602002820191906000526020600020905b8154815260200190600101908083116112f0575b50505050509050919050565b611318612d48565b805182511461135c576040517f08c379a00000000000000000000000000000000000000000000000000000000081526004016113539061535e565b60405180910390fd5b6113666010612dc6565b60006113726010612ddc565b905061137e8582612dea565b6113888185612e5e565b60005b835181101561146857600b600083815260200190815260200160002060405180604001604052808684815181106113c5576113c4614fcd565b5b602002602001015181526020018584815181106113e5576113e4614fcd565b5b602002602001015181525090806001815401808255809150506001900390600052602060002090600202016000909190919091506000820151816000019080519060200190611435929190613e07565b506020820151816001019080519060200190611452929190613e07565b505050808061146090615081565b91505061138b565b50803373ffffffffffffffffffffffffffffffffffffffff167f8dd8fd4d09ded7ef8c4e4649c1182e5d807bbcf387f614d92b89ba21bf45c1cd866040516114b0919061425b565b60405180910390a35050505050565b60096020528060005260406000206000915090505481565b60006114e282612b32565b611521576040517f08c379a0000000000000000000000000000000000000000000000000000000008152600401611518906151a8565b60405180910390fd5b60096000838152602001908152602001600020549050919050565b6115578383836040518060200160405280600081525061201a565b505050565b606061156782612b32565b6115a6576040517f08c379a000000000000000000000000000000000000000000000000000000000815260040161159d906151a8565b60405180910390fd5b6000600b60008481526020019081526020016000208054905067ffffffffffffffff8111156115d8576115d76145e6565b5b60405190808252806020026020018201604052801561160b57816020015b60608152602001906001900390816115f65790505b50905060005b600b6000858152602001908152602001600020805490508110156116ec57600b6000858152602001908152602001600020818154811061165457611653614fcd565b5b9060005260206000209060020201600001600b6000868152602001908152602001600020828154811061168a57611689614fcd565b5b90600052602060002090600202016001016040516020016116ac929190615469565b6040516020818303038152906040528282815181106116ce576116cd614fcd565b5b602002602001018190525080806116e490615081565b915050611611565b5080915050919050565b606061170182612b32565b611740576040517f08c379a0000000000000000000000000000000000000000000000000000000008152600401611737906151a8565b60405180910390fd5b600a600083815260200190815260200160002080548060200260200160405190810160405280929190818152602001828054801561179d57602002820191906000526020600020905b815481526020019060010190808311611789575b50505050509050919050565b600081518351146117bd5760009050611814565b60005b835181101561180e576117ed838583815181106117e0576117df614fcd565b5b6020026020010151612ed2565b6117fb576000915050611814565b808061180690615081565b9150506117c0565b50600190505b92915050565b600f6020528060005260406000206000915090505481565b6001825111611876576040517f08c379a000000000000000000000000000000000000000000000000000000000815260040161186d9061550a565b60405180910390fd5b3373ffffffffffffffffffffffffffffffffffffffff1661189684611b4e565b73ffffffffffffffffffffffffffffffffffffffff16146118b657600080fd5b81518151146118fa576040517f08c379a00000000000000000000000000000000000000000000000000000000081526004016118f19061559c565b60405180910390fd5b61190533308561153c565b6000805b825181101561198257600083828151811061192757611926614fcd565b5b60200260200101511161196f576040517f08c379a000000000000000000000000000000000000000000000000000000000815260040161196690615608565b60405180910390fd5b808061197a90615081565b915050611909565b5060005b8351811015611aca576119996010612dc6565b60006119a56010612ddc565b90506119b13382612dea565b6119d5818684815181106119c8576119c7614fcd565b5b6020026020010151612e5e565b856009600083815260200190815260200160002081905550600a6000878152602001908152602001600020819080600181540180825580915050600190039060005260206000200160009091909190915055838281518110611a3a57611a39614fcd565b5b6020026020010151600d600083815260200190815260200160002081905550838281518110611a6c57611a6b614fcd565b5b602002602001015183611a7f919061502b565b9250600b6000878152602001908152602001600020600b6000838152602001908152602001600020908054611ab5929190613e8d565b50508080611ac290615081565b915050611986565b5080600c60008681526020019081526020016000208190555050505050565b6000611af482612b32565b611b33576040517f08c379a0000000000000000000000000000000000000000000000000000000008152600401611b2a906151a8565b60405180910390fd5b600d6000838152602001908152602001600020549050919050565b600080611b5a83612f2e565b9050600073ffffffffffffffffffffffffffffffffffffffff168173ffffffffffffffffffffffffffffffffffffffff161415611bcc576040517f08c379a0000000000000000000000000000000000000000000000000000000008152600401611bc390615674565b60405180910390fd5b80915050919050565b600a6020528160005260406000208181548110611bf157600080fd5b90600052602060002001600091509150505481565b6000600860008373ffffffffffffffffffffffffffffffffffffffff1673ffffffffffffffffffffffffffffffffffffffff168152602001908152602001600020805490509050919050565b611c5a612d48565b611c646000612f6b565b565b6000600960008381526020019081526020016000205414611cbc576040517f08c379a0000000000000000000000000000000000000000000000000000000008152600401611cb3906156e0565b60405180910390fd5b611cc581612b32565b611d04576040517f08c379a0000000000000000000000000000000000000000000000000000000008152600401611cfb906151a8565b60405180910390fd5b3373ffffffffffffffffffffffffffffffffffffffff16611d2482611b4e565b73ffffffffffffffffffffffffffffffffffffffff1614611d4457600080fd5b6001600b60008381526020019081526020016000208054905011611d9d576040517f08c379a0000000000000000000000000000000000000000000000000000000008152600401611d9490615772565b60405180910390fd5b611da833308361153c565b60005b600b600083815260200190815260200160002080549050811015611f1457611dd36010612dc6565b6000611ddf6010612ddc565b9050611deb3382612dea565b611dfd81611df8856121b6565b612e5e565b82600f600083815260200190815260200160002081905550600e6000848152602001908152602001600020819080600181540180825580915050600190039060005260206000200160009091909190915055600b6000828152602001908152602001600020600b60008581526020019081526020016000208381548110611e8757611e86614fcd565b5b906000526020600020906002020190806001815401808255809150506001900390600052602060002090600202016000909190919091506000820181600001908054611ed290614e77565b611edd929190613f25565b506001820181600101908054611ef290614e77565b611efd929190613f25565b505050508080611f0c90615081565b915050611dab565b5050565b6000600760009054906101000a900473ffffffffffffffffffffffffffffffffffffffff16905090565b606060018054611f5190614e77565b80601f0160208091040260200160405190810160405280929190818152602001828054611f7d90614e77565b8015611fca5780601f10611f9f57610100808354040283529160200191611fca565b820191906000526020600020905b815481529060010190602001808311611fad57829003601f168201915b5050505050905090565b600d6020528060005260406000206000915090505481565b611ffe611ff76127ab565b8383613031565b5050565b600c6020528060005260406000206000915090505481565b61202b6120256127ab565b8361286c565b61206a576040517f08c379a00000000000000000000000000000000000000000000000000000000081526004016120619061513c565b60405180910390fd5b6120768484848461319e565b50505050565b600061208782612b32565b6120c6576040517f08c379a00000000000000000000000000000000000000000000000000000000081526004016120bd906151a8565b60405180910390fd5b600f6000838152602001908152602001600020549050919050565b6000806120ee6010612ddc565b90506001816120fd919061502b565b91505090565b606061210e82612b32565b61214d576040517f08c379a0000000000000000000000000000000000000000000000000000000008152600401612144906151a8565b60405180910390fd5b600e60008381526020019081526020016000208054806020026020016040519081016040528092919081815260200182805480156121aa57602002820191906000526020600020905b815481526020019060010190808311612196575b50505050509050919050565b60606121c182612760565b60006006600084815260200190815260200160002080546121e190614e77565b80601f016020809104026020016040519081016040528092919081815260200182805461220d90614e77565b801561225a5780601f1061222f5761010080835404028352916020019161225a565b820191906000526020600020905b81548152906001019060200180831161223d57829003601f168201915b50505050509050600061226b6131fa565b90506000815114156122815781925050506122c4565b6000825111156122b657808260405160200161229e9291906157c3565b604051602081830303815290604052925050506122c4565b6122bf84613211565b925050505b919050565b6122d1612d48565b6122db6010612dc6565b60006122e76010612ddc565b90506122f38382612dea565b6122fd8183612e5e565b803373ffffffffffffffffffffffffffffffffffffffff167f8dd8fd4d09ded7ef8c4e4649c1182e5d807bbcf387f614d92b89ba21bf45c1cd84604051612344919061425b565b60405180910390a3505050565b6000600960008360008151811061236b5761236a614fcd565b5b6020026020010151815260200190815260200160002054905061238d81612b32565b6123cc576040517f08c379a00000000000000000000000000000000000000000000000000000000081526004016123c3906151a8565b60405180910390fd5b60006123d782610cfb565b90506123e381846117a9565b612422576040517f08c379a00000000000000000000000000000000000000000000000000000000081526004016124199061587f565b60405180910390fd5b60005b835181101561249b573373ffffffffffffffffffffffffffffffffffffffff1661246885838151811061245b5761245a614fcd565b5b6020026020010151611b4e565b73ffffffffffffffffffffffffffffffffffffffff161461248857600080fd5b808061249390615081565b915050612425565b506124a7303384612901565b60005b83518110156124e9576124d68482815181106124c9576124c8614fcd565b5b6020026020010151612b73565b80806124e190615081565b9150506124aa565b50600067ffffffffffffffff811115612505576125046145e6565b5b6040519080825280602002602001820160405280156125335781602001602082028036833780820191505090505b50600a6000848152602001908152602001600020908051906020019061255a929190613dba565b506000600c600084815260200190815260200160002081905550505050565b6000600560008473ffffffffffffffffffffffffffffffffffffffff1673ffffffffffffffffffffffffffffffffffffffff16815260200190815260200160002060008373ffffffffffffffffffffffffffffffffffffffff1673ffffffffffffffffffffffffffffffffffffffff16815260200190815260200160002060009054906101000a900460ff16905092915050565b600061261882612b32565b612657576040517f08c379a000000000000000000000000000000000000000000000000000000000815260040161264e906151a8565b60405180910390fd5b600c6000838152602001908152602001600020549050919050565b61267a612d48565b600073ffffffffffffffffffffffffffffffffffffffff168173ffffffffffffffffffffffffffffffffffffffff1614156126ea576040517f08c379a00000000000000000000000000000000000000000000000000000000081526004016126e190615911565b60405180910390fd5b6126f381612f6b565b50565b60007f01ffc9a7000000000000000000000000000000000000000000000000000000007bffffffffffffffffffffffffffffffffffffffffffffffffffffffff1916827bffffffffffffffffffffffffffffffffffffffffffffffffffffffff1916149050919050565b61276981612b32565b6127a8576040517f08c379a000000000000000000000000000000000000000000000000000000000815260040161279f90615674565b60405180910390fd5b50565b600033905090565b816004600083815260200190815260200160002060006101000a81548173ffffffffffffffffffffffffffffffffffffffff021916908373ffffffffffffffffffffffffffffffffffffffff160217905550808273ffffffffffffffffffffffffffffffffffffffff1661282683611b4e565b73ffffffffffffffffffffffffffffffffffffffff167f8c5be1e5ebec7d5bd14f71427d1e84f3dd0314c0f7b2291e5b200ac8c7c3b92560405160405180910390a45050565b60008061287883611b4e565b90508073ffffffffffffffffffffffffffffffffffffffff168473ffffffffffffffffffffffffffffffffffffffff1614806128ba57506128b98185612579565b5b806128f857508373ffffffffffffffffffffffffffffffffffffffff166128e084610b6f565b73ffffffffffffffffffffffffffffffffffffffff16145b91505092915050565b61290c838383613279565b6000612956600860008673ffffffffffffffffffffffffffffffffffffffff1673ffffffffffffffffffffffffffffffffffffffff16815260200190815260200160002083613573565b9050600860008573ffffffffffffffffffffffffffffffffffffffff1673ffffffffffffffffffffffffffffffffffffffff1681526020019081526020016000206001600860008773ffffffffffffffffffffffffffffffffffffffff1673ffffffffffffffffffffffffffffffffffffffff168152602001908152602001600020805490506129e69190615931565b815481106129f7576129f6614fcd565b5b9060005260206000200154600860008673ffffffffffffffffffffffffffffffffffffffff1673ffffffffffffffffffffffffffffffffffffffff1681526020019081526020016000208281548110612a5357612a52614fcd565b5b9060005260206000200181905550600860008573ffffffffffffffffffffffffffffffffffffffff1673ffffffffffffffffffffffffffffffffffffffff168152602001908152602001600020805480612ab057612aaf615965565b5b60019003818190600052602060002001600090559055600860008473ffffffffffffffffffffffffffffffffffffffff1673ffffffffffffffffffffffffffffffffffffffff16815260200190815260200160002082908060018154018082558091505060019003906000526020600020016000909190919091505550505050565b60008073ffffffffffffffffffffffffffffffffffffffff16612b5483612f2e565b73ffffffffffffffffffffffffffffffffffffffff1614159050919050565b6000612b7e82611b4e565b90506000612bca600860008473ffffffffffffffffffffffffffffffffffffffff1673ffffffffffffffffffffffffffffffffffffffff16815260200190815260200160002084613573565b9050600860008373ffffffffffffffffffffffffffffffffffffffff1673ffffffffffffffffffffffffffffffffffffffff1681526020019081526020016000206001600860008573ffffffffffffffffffffffffffffffffffffffff1673ffffffffffffffffffffffffffffffffffffffff16815260200190815260200160002080549050612c5a9190615931565b81548110612c6b57612c6a614fcd565b5b9060005260206000200154600860008473ffffffffffffffffffffffffffffffffffffffff1673ffffffffffffffffffffffffffffffffffffffff1681526020019081526020016000208281548110612cc757612cc6614fcd565b5b9060005260206000200181905550600860008373ffffffffffffffffffffffffffffffffffffffff1673ffffffffffffffffffffffffffffffffffffffff168152602001908152602001600020805480612d2457612d23615965565b5b60019003818190600052602060002001600090559055612d438361360a565b505050565b612d506127ab565b73ffffffffffffffffffffffffffffffffffffffff16612d6e611f18565b73ffffffffffffffffffffffffffffffffffffffff1614612dc4576040517f08c379a0000000000000000000000000000000000000000000000000000000008152600401612dbb906159e0565b60405180910390fd5b565b6001816000016000828254019250508190555050565b600081600001549050919050565b612df4828261365d565b600860008373ffffffffffffffffffffffffffffffffffffffff1673ffffffffffffffffffffffffffffffffffffffff1681526020019081526020016000208190806001815401808255809150506001900390600052602060002001600090919091909150555050565b612e6782612b32565b612ea6576040517f08c379a0000000000000000000000000000000000000000000000000000000008152600401612e9d90615a72565b60405180910390fd5b80600660008481526020019081526020016000209080519060200190612ecd929190613e07565b505050565b600080600090505b8351811015612f225782848281518110612ef757612ef6614fcd565b5b60200260200101511415612f0f576001915050612f28565b8080612f1a90615081565b915050612eda565b50600090505b92915050565b60006002600083815260200190815260200160002060009054906101000a900473ffffffffffffffffffffffffffffffffffffffff169050919050565b6000600760009054906101000a900473ffffffffffffffffffffffffffffffffffffffff16905081600760006101000a81548173ffffffffffffffffffffffffffffffffffffffff021916908373ffffffffffffffffffffffffffffffffffffffff1602179055508173ffffffffffffffffffffffffffffffffffffffff168173ffffffffffffffffffffffffffffffffffffffff167f8be0079c531659141344cd1fd0a4f28419497f9722a3daafe3b4186f6b6457e060405160405180910390a35050565b8173ffffffffffffffffffffffffffffffffffffffff168373ffffffffffffffffffffffffffffffffffffffff1614156130a0576040517f08c379a000000000000000000000000000000000000000000000000000000000815260040161309790615ade565b60405180910390fd5b80600560008573ffffffffffffffffffffffffffffffffffffffff1673ffffffffffffffffffffffffffffffffffffffff16815260200190815260200160002060008473ffffffffffffffffffffffffffffffffffffffff1673ffffffffffffffffffffffffffffffffffffffff16815260200190815260200160002060006101000a81548160ff0219169083151502179055508173ffffffffffffffffffffffffffffffffffffffff168373ffffffffffffffffffffffffffffffffffffffff167f17307eab39ab6107e8899845ad3d59bd9653f200f220920489ca2b5937696c31836040516131919190614240565b60405180910390a3505050565b6131a9848484612901565b6131b58484848461387b565b6131f4576040517f08c379a00000000000000000000000000000000000000000000000000000000081526004016131eb90615b70565b60405180910390fd5b50505050565b606060405180602001604052806000815250905090565b606061321c82612760565b60006132266131fa565b905060008151116132465760405180602001604052806000815250613271565b8061325084613a12565b6040516020016132619291906157c3565b6040516020818303038152906040525b915050919050565b8273ffffffffffffffffffffffffffffffffffffffff1661329982611b4e565b73ffffffffffffffffffffffffffffffffffffffff16146132ef576040517f08c379a00000000000000000000000000000000000000000000000000000000081526004016132e690615c02565b60405180910390fd5b600073ffffffffffffffffffffffffffffffffffffffff168273ffffffffffffffffffffffffffffffffffffffff16141561335f576040517f08c379a000000000000000000000000000000000000000000000000000000000815260040161335690615c94565b60405180910390fd5b61336c8383836001613aea565b8273ffffffffffffffffffffffffffffffffffffffff1661338c82611b4e565b73ffffffffffffffffffffffffffffffffffffffff16146133e2576040517f08c379a00000000000000000000000000000000000000000000000000000000081526004016133d990615c02565b60405180910390fd5b6004600082815260200190815260200160002060006101000a81549073ffffffffffffffffffffffffffffffffffffffff02191690556001600360008573ffffffffffffffffffffffffffffffffffffffff1673ffffffffffffffffffffffffffffffffffffffff168152602001908152602001600020600082825403925050819055506001600360008473ffffffffffffffffffffffffffffffffffffffff1673ffffffffffffffffffffffffffffffffffffffff16815260200190815260200160002060008282540192505081905550816002600083815260200190815260200160002060006101000a81548173ffffffffffffffffffffffffffffffffffffffff021916908373ffffffffffffffffffffffffffffffffffffffff160217905550808273ffffffffffffffffffffffffffffffffffffffff168473ffffffffffffffffffffffffffffffffffffffff167fddf252ad1be2c89b69c2b068fc378daa952ba7f163c4a11628f55a4df523b3ef60405160405180910390a461356e8383836001613af0565b505050565b600080600090505b83805490508110156135c8578284828154811061359b5761359a614fcd565b5b906000526020600020015414156135b55780915050613604565b80806135c090615081565b91505061357b565b506040517f08c379a00000000000000000000000000000000000000000000000000000000081526004016135fb90615d00565b60405180910390fd5b92915050565b61361381613af6565b600060066000838152602001908152602001600020805461363390614e77565b90501461365a576006600082815260200190815260200160002060006136599190613fb2565b5b50565b600073ffffffffffffffffffffffffffffffffffffffff168273ffffffffffffffffffffffffffffffffffffffff1614156136cd576040517f08c379a00000000000000000000000000000000000000000000000000000000081526004016136c490615d6c565b60405180910390fd5b6136d681612b32565b15613716576040517f08c379a000000000000000000000000000000000000000000000000000000000815260040161370d90615dd8565b60405180910390fd5b613724600083836001613aea565b61372d81612b32565b1561376d576040517f08c379a000000000000000000000000000000000000000000000000000000000815260040161376490615dd8565b60405180910390fd5b6001600360008473ffffffffffffffffffffffffffffffffffffffff1673ffffffffffffffffffffffffffffffffffffffff16815260200190815260200160002060008282540192505081905550816002600083815260200190815260200160002060006101000a81548173ffffffffffffffffffffffffffffffffffffffff021916908373ffffffffffffffffffffffffffffffffffffffff160217905550808273ffffffffffffffffffffffffffffffffffffffff16600073ffffffffffffffffffffffffffffffffffffffff167fddf252ad1be2c89b69c2b068fc378daa952ba7f163c4a11628f55a4df523b3ef60405160405180910390a4613877600083836001613af0565b5050565b600061389c8473ffffffffffffffffffffffffffffffffffffffff16613c44565b15613a05578373ffffffffffffffffffffffffffffffffffffffff1663150b7a026138c56127ab565b8786866040518563ffffffff1660e01b81526004016138e79493929190615e4d565b602060405180830381600087803b15801561390157600080fd5b505af192505050801561393257506040513d601f19601f8201168201806040525081019061392f9190615eae565b60015b6139b5573d8060008114613962576040519150601f19603f3d011682016040523d82523d6000602084013e613967565b606091505b506000815114156139ad576040517f08c379a00000000000000000000000000000000000000000000000000000000081526004016139a490615b70565b60405180910390fd5b805181602001fd5b63150b7a0260e01b7bffffffffffffffffffffffffffffffffffffffffffffffffffffffff1916817bffffffffffffffffffffffffffffffffffffffffffffffffffffffff191614915050613a0a565b600190505b949350505050565b606060006001613a2184613c67565b01905060008167ffffffffffffffff811115613a4057613a3f6145e6565b5b6040519080825280601f01601f191660200182016040528015613a725781602001600182028036833780820191505090505b509050600082602001820190505b600115613adf578080600190039150507f3031323334353637383961626364656600000000000000000000000000000000600a86061a8153600a8581613ac957613ac8615edb565b5b0494506000851415613ada57613adf565b613a80565b819350505050919050565b50505050565b50505050565b6000613b0182611b4e565b9050613b11816000846001613aea565b613b1a82611b4e565b90506004600083815260200190815260200160002060006101000a81549073ffffffffffffffffffffffffffffffffffffffff02191690556001600360008373ffffffffffffffffffffffffffffffffffffffff1673ffffffffffffffffffffffffffffffffffffffff168152602001908152602001600020600082825403925050819055506002600083815260200190815260200160002060006101000a81549073ffffffffffffffffffffffffffffffffffffffff021916905581600073ffffffffffffffffffffffffffffffffffffffff168273ffffffffffffffffffffffffffffffffffffffff167fddf252ad1be2c89b69c2b068fc378daa952ba7f163c4a11628f55a4df523b3ef60405160405180910390a4613c40816000846001613af0565b5050565b6000808273ffffffffffffffffffffffffffffffffffffffff163b119050919050565b600080600090507a184f03e93ff9f4daa797ed6e38ed64bf6a1f0100000000000000008310613cc5577a184f03e93ff9f4daa797ed6e38ed64bf6a1f0100000000000000008381613cbb57613cba615edb565b5b0492506040810190505b6d04ee2d6d415b85acef81000000008310613d02576d04ee2d6d415b85acef81000000008381613cf857613cf7615edb565b5b0492506020810190505b662386f26fc100008310613d3157662386f26fc100008381613d2757613d26615edb565b5b0492506010810190505b6305f5e1008310613d5a576305f5e1008381613d5057613d4f615edb565b5b0492506008810190505b6127108310613d7f576127108381613d7557613d74615edb565b5b0492506004810190505b60648310613da25760648381613d9857613d97615edb565b5b0492506002810190505b600a8310613db1576001810190505b80915050919050565b828054828255906000526020600020908101928215613df6579160200282015b82811115613df5578251825591602001919060010190613dda565b5b509050613e039190613ff2565b5090565b828054613e1390614e77565b90600052602060002090601f016020900481019282613e355760008555613e7c565b82601f10613e4e57805160ff1916838001178555613e7c565b82800160010185558215613e7c579182015b82811115613e7b578251825591602001919060010190613e60565b5b509050613e899190613ff2565b5090565b828054828255906000526020600020906002028101928215613f145760005260206000209160020282015b82811115613f135782826000820181600001908054613ed690614e77565b613ee1929190613f25565b506001820181600101908054613ef690614e77565b613f01929190613f25565b50505091600201919060020190613eb8565b5b509050613f21919061400f565b5090565b828054613f3190614e77565b90600052602060002090601f016020900481019282613f535760008555613fa1565b82601f10613f645780548555613fa1565b82800160010185558215613fa157600052602060002091601f016020900482015b82811115613fa0578254825591600101919060010190613f85565b5b509050613fae9190613ff2565b5090565b508054613fbe90614e77565b6000825580601f10613fd05750613fef565b601f016020900490600052602060002090810190613fee9190613ff2565b5b50565b5b8082111561400b576000816000905550600101613ff3565b5090565b5b8082111561404257600080820160006140299190613fb2565b6001820160006140399190613fb2565b50600201614010565b5090565b6000604051905090565b600080fd5b600080fd5b6000819050919050565b61406d8161405a565b811461407857600080fd5b50565b60008135905061408a81614064565b92915050565b600080604083850312156140a7576140a6614050565b5b60006140b58582860161407b565b92505060206140c68582860161407b565b9150509250929050565b600081519050919050565b600082825260208201905092915050565b60005b8381101561410a5780820151818401526020810190506140ef565b83811115614119576000848401525b50505050565b6000601f19601f8301169050919050565b600061413b826140d0565b61414581856140db565b93506141558185602086016140ec565b61415e8161411f565b840191505092915050565b600060408201905081810360008301526141838185614130565b905081810360208301526141978184614130565b90509392505050565b60007fffffffff0000000000000000000000000000000000000000000000000000000082169050919050565b6141d5816141a0565b81146141e057600080fd5b50565b6000813590506141f2816141cc565b92915050565b60006020828403121561420e5761420d614050565b5b600061421c848285016141e3565b91505092915050565b60008115159050919050565b61423a81614225565b82525050565b60006020820190506142556000830184614231565b92915050565b600060208201905081810360008301526142758184614130565b905092915050565b60006020828403121561429357614292614050565b5b60006142a18482850161407b565b91505092915050565b600073ffffffffffffffffffffffffffffffffffffffff82169050919050565b60006142d5826142aa565b9050919050565b6142e5816142ca565b82525050565b600060208201905061430060008301846142dc565b92915050565b61430f816142ca565b811461431a57600080fd5b50565b60008135905061432c81614306565b92915050565b6000806040838503121561434957614348614050565b5b60006143578582860161431d565b92505060206143688582860161407b565b9150509250929050565b600080fd5b600080fd5b600080fd5b60008083601f84011261439757614396614372565b5b8235905067ffffffffffffffff8111156143b4576143b3614377565b5b6020830191508360018202830111156143d0576143cf61437c565b5b9250929050565b6000806000806000608086880312156143f3576143f2614050565b5b60006144018882890161431d565b95505060206144128882890161431d565b94505060406144238882890161407b565b935050606086013567ffffffffffffffff81111561444457614443614055565b5b61445088828901614381565b92509250509295509295909350565b614468816141a0565b82525050565b6000602082019050614483600083018461445f565b92915050565b600081519050919050565b600082825260208201905092915050565b6000819050602082019050919050565b6144be8161405a565b82525050565b60006144d083836144b5565b60208301905092915050565b6000602082019050919050565b60006144f482614489565b6144fe8185614494565b9350614509836144a5565b8060005b8381101561453a57815161452188826144c4565b975061452c836144dc565b92505060018101905061450d565b5085935050505092915050565b6000602082019050818103600083015261456181846144e9565b905092915050565b60008060006060848603121561458257614581614050565b5b60006145908682870161431d565b93505060206145a18682870161431d565b92505060406145b28682870161407b565b9150509250925092565b6145c58161405a565b82525050565b60006020820190506145e060008301846145bc565b92915050565b7f4e487b7100000000000000000000000000000000000000000000000000000000600052604160045260246000fd5b61461e8261411f565b810181811067ffffffffffffffff8211171561463d5761463c6145e6565b5b80604052505050565b6000614650614046565b905061465c8282614615565b919050565b600067ffffffffffffffff82111561467c5761467b6145e6565b5b602082029050602081019050919050565b60006146a061469b84614661565b614646565b905080838252602082019050602084028301858111156146c3576146c261437c565b5b835b818110156146ec57806146d8888261407b565b8452602084019350506020810190506146c5565b5050509392505050565b600082601f83011261470b5761470a614372565b5b813561471b84826020860161468d565b91505092915050565b60006020828403121561473a57614739614050565b5b600082013567ffffffffffffffff81111561475857614757614055565b5b614764848285016146f6565b91505092915050565b60006020828403121561478357614782614050565b5b60006147918482850161431d565b91505092915050565b600080fd5b600067ffffffffffffffff8211156147ba576147b96145e6565b5b6147c38261411f565b9050602081019050919050565b82818337600083830152505050565b60006147f26147ed8461479f565b614646565b90508281526020810184848401111561480e5761480d61479a565b5b6148198482856147d0565b509392505050565b600082601f83011261483657614835614372565b5b81356148468482602086016147df565b91505092915050565b600067ffffffffffffffff82111561486a576148696145e6565b5b602082029050602081019050919050565b600061488e6148898461484f565b614646565b905080838252602082019050602084028301858111156148b1576148b061437c565b5b835b818110156148f857803567ffffffffffffffff8111156148d6576148d5614372565b5b8086016148e38982614821565b855260208501945050506020810190506148b3565b5050509392505050565b600082601f83011261491757614916614372565b5b813561492784826020860161487b565b91505092915050565b6000806000806080858703121561494a57614949614050565b5b60006149588782880161431d565b945050602085013567ffffffffffffffff81111561497957614978614055565b5b61498587828801614821565b935050604085013567ffffffffffffffff8111156149a6576149a5614055565b5b6149b287828801614902565b925050606085013567ffffffffffffffff8111156149d3576149d2614055565b5b6149df87828801614902565b91505092959194509250565b600081519050919050565b600082825260208201905092915050565b6000819050602082019050919050565b600082825260208201905092915050565b6000614a33826140d0565b614a3d8185614a17565b9350614a4d8185602086016140ec565b614a568161411f565b840191505092915050565b6000614a6d8383614a28565b905092915050565b6000602082019050919050565b6000614a8d826149eb565b614a9781856149f6565b935083602082028501614aa985614a07565b8060005b85811015614ae55784840389528151614ac68582614a61565b9450614ad183614a75565b925060208a01995050600181019050614aad565b50829750879550505050505092915050565b60006020820190508181036000830152614b118184614a82565b905092915050565b60008060408385031215614b3057614b2f614050565b5b600083013567ffffffffffffffff811115614b4e57614b4d614055565b5b614b5a858286016146f6565b925050602083013567ffffffffffffffff811115614b7b57614b7a614055565b5b614b87858286016146f6565b9150509250929050565b600080600060608486031215614baa57614ba9614050565b5b6000614bb88682870161407b565b935050602084013567ffffffffffffffff811115614bd957614bd8614055565b5b614be586828701614902565b925050604084013567ffffffffffffffff811115614c0657614c05614055565b5b614c12868287016146f6565b9150509250925092565b614c2581614225565b8114614c3057600080fd5b50565b600081359050614c4281614c1c565b92915050565b60008060408385031215614c5f57614c5e614050565b5b6000614c6d8582860161431d565b9250506020614c7e85828601614c33565b9150509250929050565b600067ffffffffffffffff821115614ca357614ca26145e6565b5b614cac8261411f565b9050602081019050919050565b6000614ccc614cc784614c88565b614646565b905082815260208101848484011115614ce857614ce761479a565b5b614cf38482856147d0565b509392505050565b600082601f830112614d1057614d0f614372565b5b8135614d20848260208601614cb9565b91505092915050565b60008060008060808587031215614d4357614d42614050565b5b6000614d518782880161431d565b9450506020614d628782880161431d565b9350506040614d738782880161407b565b925050606085013567ffffffffffffffff811115614d9457614d93614055565b5b614da087828801614cfb565b91505092959194509250565b60008060408385031215614dc357614dc2614050565b5b6000614dd18582860161431d565b925050602083013567ffffffffffffffff811115614df257614df1614055565b5b614dfe85828601614821565b9150509250929050565b60008060408385031215614e1f57614e1e614050565b5b6000614e2d8582860161431d565b9250506020614e3e8582860161431d565b9150509250929050565b7f4e487b7100000000000000000000000000000000000000000000000000000000600052602260045260246000fd5b60006002820490506001821680614e8f57607f821691505b60208210811415614ea357614ea2614e48565b5b50919050565b7f4552433732313a20617070726f76616c20746f2063757272656e74206f776e6560008201527f7200000000000000000000000000000000000000000000000000000000000000602082015250565b6000614f056021836140db565b9150614f1082614ea9565b604082019050919050565b60006020820190508181036000830152614f3481614ef8565b9050919050565b7f4552433732313a20617070726f76652063616c6c6572206973206e6f7420746f60008201527f6b656e206f776e6572206f7220617070726f76656420666f7220616c6c000000602082015250565b6000614f97603d836140db565b9150614fa282614f3b565b604082019050919050565b60006020820190508181036000830152614fc681614f8a565b9050919050565b7f4e487b7100000000000000000000000000000000000000000000000000000000600052603260045260246000fd5b7f4e487b7100000000000000000000000000000000000000000000000000000000600052601160045260246000fd5b60006150368261405a565b91506150418361405a565b9250827fffffffffffffffffffffffffffffffffffffffffffffffffffffffffffffffff0382111561507657615075614ffc565b5b828201905092915050565b600061508c8261405a565b91507fffffffffffffffffffffffffffffffffffffffffffffffffffffffffffffffff8214156150bf576150be614ffc565b5b600182019050919050565b7f4552433732313a2063616c6c6572206973206e6f7420746f6b656e206f776e6560008201527f72206f7220617070726f76656400000000000000000000000000000000000000602082015250565b6000615126602d836140db565b9150615131826150ca565b604082019050919050565b6000602082019050818103600083015261515581615119565b9050919050565b7f546f6b656e20646f6573206e6f74206578697374000000000000000000000000600082015250565b60006151926014836140db565b915061519d8261515c565b602082019050919050565b600060208201905081810360008301526151c181615185565b9050919050565b7f506172747320617265206e6f742066726f6d207468652073616d6520616e636560008201527f73746f72206f72206e6f7420616c6c207061727473206172652070726573656e60208201527f7400000000000000000000000000000000000000000000000000000000000000604082015250565b600061524a6041836140db565b9150615255826151c8565b606082019050919050565b600060208201905081810360008301526152798161523d565b9050919050565b7f496e76616c696420636f6d62696e650000000000000000000000000000000000600082015250565b60006152b6600f836140db565b91506152c182615280565b602082019050919050565b600060208201905081810360008301526152e5816152a9565b9050919050565b7f4174747269627574657320616e642076616c756573206d75737420686176652060008201527f7468652073616d65206c656e6774680000000000000000000000000000000000602082015250565b6000615348602f836140db565b9150615353826152ec565b604082019050919050565b600060208201905081810360008301526153778161533b565b9050919050565b600081905092915050565b60008190508160005260206000209050919050565b600081546153ab81614e77565b6153b5818661537e565b945060018216600081146153d057600181146153e157615414565b60ff19831686528186019350615414565b6153ea85615389565b60005b8381101561540c578154818901526001820191506020810190506153ed565b838801955050505b50505092915050565b7f2400000000000000000000000000000000000000000000000000000000000000600082015250565b600061545360018361537e565b915061545e8261541d565b600182019050919050565b6000615475828561539e565b915061548082615446565b915061548c828461539e565b91508190509392505050565b7f5468657265206d757374206265206d6f7265207468616e206f6e65206368696c60008201527f6420746f6b656e00000000000000000000000000000000000000000000000000602082015250565b60006154f46027836140db565b91506154ff82615498565b604082019050919050565b60006020820190508181036000830152615523816154e7565b9050919050565b7f53686172657320616e6420746f6b656e55524973206d7573742068617665207460008201527f68652073616d65206c656e677468000000000000000000000000000000000000602082015250565b6000615586602e836140db565b91506155918261552a565b604082019050919050565b600060208201905081810360008301526155b581615579565b9050919050565b7f536861726573206d7573742062652067726561746572207468616e2030000000600082015250565b60006155f2601d836140db565b91506155fd826155bc565b602082019050919050565b60006020820190508181036000830152615621816155e5565b9050919050565b7f4552433732313a20696e76616c696420746f6b656e2049440000000000000000600082015250565b600061565e6018836140db565b915061566982615628565b602082019050919050565b6000602082019050818103600083015261568d81615651565b9050919050565b7f546f6b656e206d757374206265206f726967696e616c00000000000000000000600082015250565b60006156ca6016836140db565b91506156d582615694565b602082019050919050565b600060208201905081810360008301526156f9816156bd565b9050919050565b7f546f6b656e20686173206e6f20617474726962757465732f6f6e6c79206f6e6560008201527f2061747472696275746500000000000000000000000000000000000000000000602082015250565b600061575c602a836140db565b915061576782615700565b604082019050919050565b6000602082019050818103600083015261578b8161574f565b9050919050565b600061579d826140d0565b6157a7818561537e565b93506157b78185602086016140ec565b80840191505092915050565b60006157cf8285615792565b91506157db8284615792565b91508190509392505050565b7f44657363656e64616e747320617265206e6f742066726f6d207468652073616d60008201527f6520616e636573746f72206f72206e6f7420616c6c2064657363656e64616e7460208201527f73206172652070726573656e7400000000000000000000000000000000000000604082015250565b6000615869604d836140db565b9150615874826157e7565b606082019050919050565b600060208201905081810360008301526158988161585c565b9050919050565b7f4f776e61626c653a206e6577206f776e657220697320746865207a65726f206160008201527f6464726573730000000000000000000000000000000000000000000000000000602082015250565b60006158fb6026836140db565b91506159068261589f565b604082019050919050565b6000602082019050818103600083015261592a816158ee565b9050919050565b600061593c8261405a565b91506159478361405a565b92508282101561595a57615959614ffc565b5b828203905092915050565b7f4e487b7100000000000000000000000000000000000000000000000000000000600052603160045260246000fd5b7f4f776e61626c653a2063616c6c6572206973206e6f7420746865206f776e6572600082015250565b60006159ca6020836140db565b91506159d582615994565b602082019050919050565b600060208201905081810360008301526159f9816159bd565b9050919050565b7f45524337323155524953746f726167653a2055524920736574206f66206e6f6e60008201527f6578697374656e7420746f6b656e000000000000000000000000000000000000602082015250565b6000615a5c602e836140db565b9150615a6782615a00565b604082019050919050565b60006020820190508181036000830152615a8b81615a4f565b9050919050565b7f4552433732313a20617070726f766520746f2063616c6c657200000000000000600082015250565b6000615ac86019836140db565b9150615ad382615a92565b602082019050919050565b60006020820190508181036000830152615af781615abb565b9050919050565b7f4552433732313a207472616e7366657220746f206e6f6e20455243373231526560008201527f63656976657220696d706c656d656e7465720000000000000000000000000000602082015250565b6000615b5a6032836140db565b9150615b6582615afe565b604082019050919050565b60006020820190508181036000830152615b8981615b4d565b9050919050565b7f4552433732313a207472616e736665722066726f6d20696e636f72726563742060008201527f6f776e6572000000000000000000000000000000000000000000000000000000602082015250565b6000615bec6025836140db565b9150615bf782615b90565b604082019050919050565b60006020820190508181036000830152615c1b81615bdf565b9050919050565b7f4552433732313a207472616e7366657220746f20746865207a65726f2061646460008201527f7265737300000000000000000000000000000000000000000000000000000000602082015250565b6000615c7e6024836140db565b9150615c8982615c22565b604082019050919050565b60006020820190508181036000830152615cad81615c71565b9050919050565b7f456c656d656e74206e6f7420666f756e6420696e206172726179000000000000600082015250565b6000615cea601a836140db565b9150615cf582615cb4565b602082019050919050565b60006020820190508181036000830152615d1981615cdd565b9050919050565b7f4552433732313a206d696e7420746f20746865207a65726f2061646472657373600082015250565b6000615d566020836140db565b9150615d6182615d20565b602082019050919050565b60006020820190508181036000830152615d8581615d49565b9050919050565b7f4552433732313a20746f6b656e20616c7265616479206d696e74656400000000600082015250565b6000615dc2601c836140db565b9150615dcd82615d8c565b602082019050919050565b60006020820190508181036000830152615df181615db5565b9050919050565b600081519050919050565b600082825260208201905092915050565b6000615e1f82615df8565b615e298185615e03565b9350615e398185602086016140ec565b615e428161411f565b840191505092915050565b6000608082019050615e6260008301876142dc565b615e6f60208301866142dc565b615e7c60408301856145bc565b8181036060830152615e8e8184615e14565b905095945050505050565b600081519050615ea8816141cc565b92915050565b600060208284031215615ec457615ec3614050565b5b6000615ed284828501615e99565b91505092915050565b7f4e487b7100000000000000000000000000000000000000000000000000000000600052601260045260246000fdfea26469706673582212203ba4162d65db76094653c120677fe104c6bbe85c1bf58eb80ba5ba31db50f1c764736f6c63430008090033",
  "linkReferences": {},
  "deployedLinkReferences": {}
}