{
  "_format": "hh-sol-artifact-1",
  "contractName": "License_Contract",
  "sourceName": "contracts/License_Contract.sol",
  "abi": [
    {
      "inputs": [],
      "stateMutability": "nonpayable",
      "type": "constructor"
    },
    {
      "anonymous": false,
      "inputs": [
        {
          "indexed": true,
          "internalType": "address",
          "name": "owner",
          "type": "address"
        },
        {
          "indexed": true,
          "internalType": "address",
          "name": "approved",
          "type": "address"
        },
        {
          "indexed": true,
          "internalType": "uint256",
          "name": "tokenId",
          "type": "uint256"
        }
      ],
      "name": "Approval",
      "type": "event"
    },
    {
      "anonymous": false,
      "inputs": [
        {
          "indexed": true,
          "internalType": "address",
          "name": "owner",
          "type": "address"
        },
        {
          "indexed": true,
          "internalType": "address",
          "name": "operator",
          "type": "address"
        },
        {
          "indexed": false,
          "internalType": "bool",
          "name": "approved",
          "type": "bool"
        }
      ],
      "name": "ApprovalForAll",
      "type": "event"
    },
    {
      "anonymous": false,
      "inputs": [
        {
          "indexed": true,
          "internalType": "address",
          "name": "owner",
          "type": "address"
        },
        {
          "indexed": true,
          "internalType": "uint256",
          "name": "tokenId",
          "type": "uint256"
        },
        {
          "indexed": false,
          "internalType": "string",
          "name": "tokenURI",
          "type": "string"
        }
      ],
      "name": "LicenseCreated",
      "type": "event"
    },
    {
      "anonymous": false,
      "inputs": [
        {
          "indexed": true,
          "internalType": "address",
          "name": "previousOwner",
          "type": "address"
        },
        {
          "indexed": true,
          "internalType": "address",
          "name": "newOwner",
          "type": "address"
        }
      ],
      "name": "OwnershipTransferred",
      "type": "event"
    },
    {
      "anonymous": false,
      "inputs": [
        {
          "indexed": true,
          "internalType": "address",
          "name": "from",
          "type": "address"
        },
        {
          "indexed": true,
          "internalType": "address",
          "name": "to",
          "type": "address"
        },
        {
          "indexed": true,
          "internalType": "uint256",
          "name": "tokenId",
          "type": "uint256"
        }
      ],
      "name": "Transfer",
      "type": "event"
    },
    {
      "inputs": [
        {
          "internalType": "address",
          "name": "to",
          "type": "address"
        },
        {
          "internalType": "uint256",
          "name": "tokenId",
          "type": "uint256"
        }
      ],
      "name": "approve",
      "outputs": [],
      "stateMutability": "nonpayable",
      "type": "function"
    },
    {
      "inputs": [
        {
          "internalType": "address",
          "name": "owner",
          "type": "address"
        }
      ],
      "name": "balanceOf",
      "outputs": [
        {
          "internalType": "uint256",
          "name": "",
          "type": "uint256"
        }
      ],
      "stateMutability": "view",
      "type": "function"
    },
    {
      "inputs": [
        {
          "internalType": "uint256",
          "name": "",
          "type": "uint256"
        },
        {
          "internalType": "uint256",
          "name": "",
          "type": "uint256"
        }
      ],
      "name": "childTokens",
      "outputs": [
        {
          "internalType": "uint256",
          "name": "",
          "type": "uint256"
        }
      ],
      "stateMutability": "view",
      "type": "function"
    },
    {
      "inputs": [
        {
          "internalType": "uint256[]",
          "name": "tokenId",
          "type": "uint256[]"
        }
      ],
      "name": "combine",
      "outputs": [],
      "stateMutability": "nonpayable",
      "type": "function"
    },
    {
      "inputs": [
        {
          "internalType": "uint256[]",
          "name": "a",
          "type": "uint256[]"
        },
        {
          "internalType": "uint256[]",
          "name": "b",
          "type": "uint256[]"
        }
      ],
      "name": "compareArrays",
      "outputs": [
        {
          "internalType": "bool",
          "name": "",
          "type": "bool"
        }
      ],
      "stateMutability": "pure",
      "type": "function"
    },
    {
      "inputs": [
        {
          "internalType": "uint256",
          "name": "ancestor",
          "type": "uint256"
        }
      ],
      "name": "getAllDescendants",
      "outputs": [
        {
          "internalType": "uint256[]",
          "name": "",
          "type": "uint256[]"
        }
      ],
      "stateMutability": "view",
      "type": "function"
    },
    {
      "inputs": [
        {
          "internalType": "uint256",
          "name": "tokenId",
          "type": "uint256"
        }
      ],
      "name": "getApproved",
      "outputs": [
        {
          "internalType": "address",
          "name": "",
          "type": "address"
        }
      ],
      "stateMutability": "view",
      "type": "function"
    },
    {
      "inputs": [
        {
          "internalType": "uint256",
          "name": "tokenId",
          "type": "uint256"
        }
      ],
      "name": "getAttributes",
      "outputs": [
        {
          "internalType": "string[]",
          "name": "",
          "type": "string[]"
        }
      ],
      "stateMutability": "view",
      "type": "function"
    },
    {
      "inputs": [
        {
          "internalType": "uint256",
          "name": "tokenId",
          "type": "uint256"
        }
      ],
      "name": "getChildren",
      "outputs": [
        {
          "internalType": "uint256[]",
          "name": "",
          "type": "uint256[]"
        }
      ],
      "stateMutability": "view",
      "type": "function"
    },
    {
      "inputs": [
        {
          "internalType": "uint256",
          "name": "tokenId",
          "type": "uint256"
        }
      ],
      "name": "getCurrentTotalShares",
      "outputs": [
        {
          "internalType": "uint256",
          "name": "",
          "type": "uint256"
        }
      ],
      "stateMutability": "view",
      "type": "function"
    },
    {
      "inputs": [],
      "name": "getNextId",
      "outputs": [
        {
          "internalType": "uint256",
          "name": "",
          "type": "uint256"
        }
      ],
      "stateMutability": "view",
      "type": "function"
    },
    {
      "inputs": [
        {
          "internalType": "uint256",
          "name": "tokenId",
          "type": "uint256"
        }
      ],
      "name": "getOriginal",
      "outputs": [
        {
          "internalType": "uint256",
          "name": "",
          "type": "uint256"
        }
      ],
      "stateMutability": "view",
      "type": "function"
    },
    {
      "inputs": [
        {
          "internalType": "uint256",
          "name": "tokenId",
          "type": "uint256"
        }
      ],
      "name": "getParent",
      "outputs": [
        {
          "internalType": "uint256",
          "name": "",
          "type": "uint256"
        }
      ],
      "stateMutability": "view",
      "type": "function"
    },
    {
      "inputs": [
        {
          "internalType": "uint256",
          "name": "tokenId",
          "type": "uint256"
        }
      ],
      "name": "getParts",
      "outputs": [
        {
          "internalType": "uint256[]",
          "name": "",
          "type": "uint256[]"
        }
      ],
      "stateMutability": "view",
      "type": "function"
    },
    {
      "inputs": [
        {
          "internalType": "uint256",
          "name": "tokenId",
          "type": "uint256"
        }
      ],
      "name": "getSharesOfChild",
      "outputs": [
        {
          "internalType": "uint256",
          "name": "",
          "type": "uint256"
        }
      ],
      "stateMutability": "view",
      "type": "function"
    },
    {
      "inputs": [
        {
          "internalType": "address",
          "name": "owner",
          "type": "address"
        },
        {
          "internalType": "address",
          "name": "operator",
          "type": "address"
        }
      ],
      "name": "isApprovedForAll",
      "outputs": [
        {
          "internalType": "bool",
          "name": "",
          "type": "bool"
        }
      ],
      "stateMutability": "view",
      "type": "function"
    },
    {
      "inputs": [
        {
          "internalType": "uint256[]",
          "name": "tokenIds",
          "type": "uint256[]"
        }
      ],
      "name": "merge",
      "outputs": [],
      "stateMutability": "nonpayable",
      "type": "function"
    },
    {
      "inputs": [
        {
          "internalType": "address",
          "name": "to",
          "type": "address"
        },
        {
          "internalType": "string",
          "name": "tokenURI",
          "type": "string"
        }
      ],
      "name": "mint",
      "outputs": [],
      "stateMutability": "nonpayable",
      "type": "function"
    },
    {
      "inputs": [
        {
          "internalType": "address",
          "name": "to",
          "type": "address"
        },
        {
          "internalType": "string",
          "name": "tokenURI",
          "type": "string"
        },
        {
          "internalType": "string[]",
          "name": "attributes",
          "type": "string[]"
        },
        {
          "internalType": "string[]",
          "name": "values",
          "type": "string[]"
        }
      ],
      "name": "mintWithAttributes",
      "outputs": [],
      "stateMutability": "nonpayable",
      "type": "function"
    },
    {
      "inputs": [],
      "name": "name",
      "outputs": [
        {
          "internalType": "string",
          "name": "",
          "type": "string"
        }
      ],
      "stateMutability": "view",
      "type": "function"
    },
    {
      "inputs": [
        {
          "internalType": "address",
          "name": "operator",
          "type": "address"
        },
        {
          "internalType": "address",
          "name": "from",
          "type": "address"
        },
        {
          "internalType": "uint256",
          "name": "tokenId",
          "type": "uint256"
        },
        {
          "internalType": "bytes",
          "name": "data",
          "type": "bytes"
        }
      ],
      "name": "onERC721Received",
      "outputs": [
        {
          "internalType": "bytes4",
          "name": "",
          "type": "bytes4"
        }
      ],
      "stateMutability": "nonpayable",
      "type": "function"
    },
    {
      "inputs": [
        {
          "internalType": "uint256",
          "name": "",
          "type": "uint256"
        }
      ],
      "name": "originalToken",
      "outputs": [
        {
          "internalType": "uint256",
          "name": "",
          "type": "uint256"
        }
      ],
      "stateMutability": "view",
      "type": "function"
    },
    {
      "inputs": [],
      "name": "owner",
      "outputs": [
        {
          "internalType": "address",
          "name": "",
          "type": "address"
        }
      ],
      "stateMutability": "view",
      "type": "function"
    },
    {
      "inputs": [
        {
          "internalType": "uint256",
          "name": "tokenId",
          "type": "uint256"
        }
      ],
      "name": "ownerOf",
      "outputs": [
        {
          "internalType": "address",
          "name": "",
          "type": "address"
        }
      ],
      "stateMutability": "view",
      "type": "function"
    },
    {
      "inputs": [
        {
          "internalType": "uint256",
          "name": "",
          "type": "uint256"
        }
      ],
      "name": "parentToken",
      "outputs": [
        {
          "internalType": "uint256",
          "name": "",
          "type": "uint256"
        }
      ],
      "stateMutability": "view",
      "type": "function"
    },
    {
      "inputs": [
        {
          "internalType": "uint256",
          "name": "",
          "type": "uint256"
        },
        {
          "internalType": "uint256",
          "name": "",
          "type": "uint256"
        }
      ],
      "name": "parts",
      "outputs": [
        {
          "internalType": "uint256",
          "name": "",
          "type": "uint256"
        }
      ],
      "stateMutability": "view",
      "type": "function"
    },
    {
      "inputs": [],
      "name": "renounceOwnership",
      "outputs": [],
      "stateMutability": "nonpayable",
      "type": "function"
    },
    {
      "inputs": [
        {
          "internalType": "address",
          "name": "from",
          "type": "address"
        },
        {
          "internalType": "address",
          "name": "to",
          "type": "address"
        },
        {
          "internalType": "uint256",
          "name": "tokenId",
          "type": "uint256"
        }
      ],
      "name": "safeTransferFrom",
      "outputs": [],
      "stateMutability": "nonpayable",
      "type": "function"
    },
    {
      "inputs": [
        {
          "internalType": "address",
          "name": "from",
          "type": "address"
        },
        {
          "internalType": "address",
          "name": "to",
          "type": "address"
        },
        {
          "internalType": "uint256",
          "name": "tokenId",
          "type": "uint256"
        },
        {
          "internalType": "bytes",
          "name": "data",
          "type": "bytes"
        }
      ],
      "name": "safeTransferFrom",
      "outputs": [],
      "stateMutability": "nonpayable",
      "type": "function"
    },
    {
      "inputs": [
        {
          "internalType": "uint256",
          "name": "tokenId",
          "type": "uint256"
        }
      ],
      "name": "separate",
      "outputs": [],
      "stateMutability": "nonpayable",
      "type": "function"
    },
    {
      "inputs": [
        {
          "internalType": "address",
          "name": "operator",
          "type": "address"
        },
        {
          "internalType": "bool",
          "name": "approved",
          "type": "bool"
        }
      ],
      "name": "setApprovalForAll",
      "outputs": [],
      "stateMutability": "nonpayable",
      "type": "function"
    },
    {
      "inputs": [
        {
          "internalType": "uint256",
          "name": "",
          "type": "uint256"
        }
      ],
      "name": "shareValue",
      "outputs": [
        {
          "internalType": "uint256",
          "name": "",
          "type": "uint256"
        }
      ],
      "stateMutability": "view",
      "type": "function"
    },
    {
      "inputs": [
        {
          "internalType": "uint256",
          "name": "tokenId",
          "type": "uint256"
        },
        {
          "internalType": "string[]",
          "name": "tokenURIs",
          "type": "string[]"
        }
      ],
      "name": "split",
      "outputs": [],
      "stateMutability": "nonpayable",
      "type": "function"
    },
    {
      "inputs": [
        {
          "internalType": "uint256",
          "name": "tokenId",
          "type": "uint256"
        },
        {
          "internalType": "string[]",
          "name": "tokenURIs",
          "type": "string[]"
        },
        {
          "internalType": "uint256[]",
          "name": "shares",
          "type": "uint256[]"
        }
      ],
      "name": "splitWithShares",
      "outputs": [],
      "stateMutability": "nonpayable",
      "type": "function"
    },
    {
      "inputs": [
        {
          "internalType": "bytes4",
          "name": "interfaceId",
          "type": "bytes4"
        }
      ],
      "name": "supportsInterface",
      "outputs": [
        {
          "internalType": "bool",
          "name": "",
          "type": "bool"
        }
      ],
      "stateMutability": "view",
      "type": "function"
    },
    {
      "inputs": [],
      "name": "symbol",
      "outputs": [
        {
          "internalType": "string",
          "name": "",
          "type": "string"
        }
      ],
      "stateMutability": "view",
      "type": "function"
    },
    {
      "inputs": [
        {
          "internalType": "uint256",
          "name": "",
          "type": "uint256"
        },
        {
          "internalType": "uint256",
          "name": "",
          "type": "uint256"
        }
      ],
      "name": "tokenAttributes",
      "outputs": [
        {
          "internalType": "string",
          "name": "name",
          "type": "string"
        },
        {
          "internalType": "string",
          "name": "value",
          "type": "string"
        }
      ],
      "stateMutability": "view",
      "type": "function"
    },
    {
      "inputs": [
        {
          "internalType": "address",
          "name": "owner",
          "type": "address"
        }
      ],
      "name": "tokenOfOwner",
      "outputs": [
        {
          "internalType": "uint256[]",
          "name": "",
          "type": "uint256[]"
        }
      ],
      "stateMutability": "view",
      "type": "function"
    },
    {
      "inputs": [
        {
          "internalType": "uint256",
          "name": "tokenId",
          "type": "uint256"
        }
      ],
      "name": "tokenURI",
      "outputs": [
        {
          "internalType": "string",
          "name": "",
          "type": "string"
        }
      ],
      "stateMutability": "view",
      "type": "function"
    },
    {
      "inputs": [
        {
          "internalType": "uint256",
          "name": "",
          "type": "uint256"
        }
      ],
      "name": "totalShareValue",
      "outputs": [
        {
          "internalType": "uint256",
          "name": "",
          "type": "uint256"
        }
      ],
      "stateMutability": "view",
      "type": "function"
    },
    {
      "inputs": [
        {
          "internalType": "address",
          "name": "from",
          "type": "address"
        },
        {
          "internalType": "address",
          "name": "to",
          "type": "address"
        },
        {
          "internalType": "uint256",
          "name": "tokenId",
          "type": "uint256"
        }
      ],
      "name": "transferFrom",
      "outputs": [],
      "stateMutability": "nonpayable",
      "type": "function"
    },
    {
      "inputs": [
        {
          "internalType": "address",
          "name": "newOwner",
          "type": "address"
        }
      ],
      "name": "transferOwnership",
      "outputs": [],
      "stateMutability": "nonpayable",
      "type": "function"
    }
  ],
  "bytecode": "0x60806040523480156200001157600080fd5b506040518060400160405280600a81526020017f4c6963656e73654e4654000000000000000000000000000000000000000000008152506040518060400160405280600481526020017f4c4e465400000000000000000000000000000000000000000000000000000000815250816000908051906020019062000096929190620001a6565b508060019080519060200190620000af929190620001a6565b505050620000d2620000c6620000d860201b60201c565b620000e060201b60201c565b620002bb565b600033905090565b6000600760009054906101000a900473ffffffffffffffffffffffffffffffffffffffff16905081600760006101000a81548173ffffffffffffffffffffffffffffffffffffffff021916908373ffffffffffffffffffffffffffffffffffffffff1602179055508173ffffffffffffffffffffffffffffffffffffffff168173ffffffffffffffffffffffffffffffffffffffff167f8be0079c531659141344cd1fd0a4f28419497f9722a3daafe3b4186f6b6457e060405160405180910390a35050565b828054620001b49062000285565b90600052602060002090601f016020900481019282620001d8576000855562000224565b82601f10620001f357805160ff191683800117855562000224565b8280016001018555821562000224579182015b828111156200022357825182559160200191906001019062000206565b5b50905062000233919062000237565b5090565b5b808211156200025257600081600090555060010162000238565b5090565b7f4e487b7100000000000000000000000000000000000000000000000000000000600052602260045260246000fd5b600060028204905060018216806200029e57607f821691505b60208210811415620002b557620002b462000256565b5b50919050565b615fcb80620002cb6000396000f3fe608060405234801561001057600080fd5b506004361061025d5760003560e01c80636352211e11610146578063b88d4fde116100c3578063d0def52111610087578063d0def52114610801578063d1a396441461081d578063de62d84214610839578063e985e9c514610855578063ee54126014610885578063f2fde38b146108b55761025d565b8063b88d4fde14610737578063bc8c778f14610753578063bc96832614610783578063c5d57fd8146107a1578063c87b56dd146107d15761025d565b80638da5cb5b1161010a5780638da5cb5b1461067f57806395d89b411461069d578063974d8c93146106bb578063a22cb465146106eb578063a6fc2b62146107075761025d565b80636352211e146105c95780636fe8635e146105f957806370a0823114610629578063715018a6146106595780637307d4bc146106635761025d565b8063294cdf0d116101df5780634378a6e3116101a35780634378a6e3146104bd57806349ae8dc3146104ed57806349b00d571461051d5780635296d2341461054d578063556043811461057d57806361f1037a146105995761025d565b8063294cdf0d146103f55780633121266e14610425578063343867f414610441578063414533de1461047157806342842e0e146104a15761025d565b8063150b7a0211610226578063150b7a021461032d578063153409041461035d57806323b872dd1461038d57806324574a60146103a957806325e514c6146103d95761025d565b806206f0741461026257806301ffc9a71461029357806306fdde03146102c3578063081812fc146102e1578063095ea7b314610311575b600080fd5b61027c60048036038101906102779190614197565b6108d1565b60405161028a929190614270565b60405180910390f35b6102ad60048036038101906102a891906142ff565b610a22565b6040516102ba9190614347565b60405180910390f35b6102cb610b04565b6040516102d89190614362565b60405180910390f35b6102fb60048036038101906102f69190614384565b610b96565b60405161030891906143f2565b60405180910390f35b61032b60048036038101906103269190614439565b610bdc565b005b610347600480360381019061034291906144de565b610cf4565b6040516103549190614575565b60405180910390f35b61037760048036038101906103729190614384565b610d22565b604051610384919061464e565b60405180910390f35b6103a760048036038101906103a29190614670565b610f71565b005b6103c360048036038101906103be9190614197565b610fd1565b6040516103d091906146d2565b60405180910390f35b6103f360048036038101906103ee919061482b565b611002565b005b61040f600480360381019061040a9190614874565b6112a0565b60405161041c919061464e565b60405180910390f35b61043f600480360381019061043a9190614a37565b611337565b005b61045b60048036038101906104569190614384565b6114e6565b60405161046891906146d2565b60405180910390f35b61048b60048036038101906104869190614384565b6114fe565b60405161049891906146d2565b60405180910390f35b6104bb60048036038101906104b69190614670565b611563565b005b6104d760048036038101906104d29190614384565b611583565b6040516104e49190614bfe565b60405180910390f35b61050760048036038101906105029190614384565b61171d565b604051610514919061464e565b60405180910390f35b61053760048036038101906105329190614c20565b6117d0565b6040516105449190614347565b60405180910390f35b61056760048036038101906105629190614384565b611841565b60405161057491906146d2565b60405180910390f35b61059760048036038101906105929190614c98565b611859565b005b6105b360048036038101906105ae9190614384565b611a93565b6040516105c091906146d2565b60405180910390f35b6105e360048036038101906105de9190614384565b611af8565b6040516105f091906143f2565b60405180910390f35b610613600480360381019061060e9190614197565b611b7f565b60405161062091906146d2565b60405180910390f35b610643600480360381019061063e9190614874565b611bb0565b60405161065091906146d2565b60405180910390f35b610661611bfc565b005b61067d60048036038101906106789190614384565b611c10565b005b610687611e6c565b60405161069491906143f2565b60405180910390f35b6106a5611e96565b6040516106b29190614362565b60405180910390f35b6106d560048036038101906106d09190614384565b611f28565b6040516106e291906146d2565b60405180910390f35b61070560048036038101906107009190614d4f565b611f40565b005b610721600480360381019061071c9190614384565b611f56565b60405161072e91906146d2565b60405180910390f35b610751600480360381019061074c9190614e30565b611f6e565b005b61076d60048036038101906107689190614384565b611fd0565b60405161077a91906146d2565b60405180910390f35b61078b612035565b60405161079891906146d2565b60405180910390f35b6107bb60048036038101906107b69190614384565b612057565b6040516107c8919061464e565b60405180910390f35b6107eb60048036038101906107e69190614384565b61210a565b6040516107f89190614362565b60405180910390f35b61081b60048036038101906108169190614eb3565b61221d565b005b61083760048036038101906108329190614f0f565b6122a5565b005b610853600480360381019061084e919061482b565b612458565b005b61086f600480360381019061086a9190614f6b565b612680565b60405161087c9190614347565b60405180910390f35b61089f600480360381019061089a9190614384565b612714565b6040516108ac91906146d2565b60405180910390f35b6108cf60048036038101906108ca9190614874565b612779565b005b600b60205281600052604060002081815481106108ed57600080fd5b90600052602060002090600202016000915091505080600001805461091190614fda565b80601f016020809104026020016040519081016040528092919081815260200182805461093d90614fda565b801561098a5780601f1061095f5761010080835404028352916020019161098a565b820191906000526020600020905b81548152906001019060200180831161096d57829003601f168201915b50505050509080600101805461099f90614fda565b80601f01602080910402602001604051908101604052809291908181526020018280546109cb90614fda565b8015610a185780601f106109ed57610100808354040283529160200191610a18565b820191906000526020600020905b8154815290600101906020018083116109fb57829003601f168201915b5050505050905082565b60007f80ac58cd000000000000000000000000000000000000000000000000000000007bffffffffffffffffffffffffffffffffffffffffffffffffffffffff1916827bffffffffffffffffffffffffffffffffffffffffffffffffffffffff19161480610aed57507f5b5e139f000000000000000000000000000000000000000000000000000000007bffffffffffffffffffffffffffffffffffffffffffffffffffffffff1916827bffffffffffffffffffffffffffffffffffffffffffffffffffffffff1916145b80610afd5750610afc826127fd565b5b9050919050565b606060008054610b1390614fda565b80601f0160208091040260200160405190810160405280929190818152602001828054610b3f90614fda565b8015610b8c5780601f10610b6157610100808354040283529160200191610b8c565b820191906000526020600020905b815481529060010190602001808311610b6f57829003601f168201915b5050505050905090565b6000610ba182612867565b6004600083815260200190815260200160002060009054906101000a900473ffffffffffffffffffffffffffffffffffffffff169050919050565b6000610be782611af8565b90508073ffffffffffffffffffffffffffffffffffffffff168373ffffffffffffffffffffffffffffffffffffffff161415610c58576040517f08c379a0000000000000000000000000000000000000000000000000000000008152600401610c4f9061507e565b60405180910390fd5b8073ffffffffffffffffffffffffffffffffffffffff16610c776128b2565b73ffffffffffffffffffffffffffffffffffffffff161480610ca65750610ca581610ca06128b2565b612680565b5b610ce5576040517f08c379a0000000000000000000000000000000000000000000000000000000008152600401610cdc90615110565b60405180910390fd5b610cef83836128ba565b505050565b60007f150b7a023d4804d13e8c85fb27262cb750cf6ba9f9dd3bb30d90f482ceeb4b1f905095945050505050565b6060806000600a6000858152602001908152602001600020805480602002602001604051908101604052809291908181526020018280548015610d8457602002820191906000526020600020905b815481526020019060010190808311610d70575b50505050509050600081511415610e0c57600167ffffffffffffffff811115610db057610daf6146ed565b5b604051908082528060200260200182016040528015610dde5781602001602082028036833780820191505090505b5091508382600081518110610df657610df5615130565b5b6020026020010181815250508192505050610f6c565b600080600090505b8251811015610e67576000610e42848381518110610e3557610e34615130565b5b6020026020010151610d22565b9050805183610e51919061518e565b9250508080610e5f906151e4565b915050610e14565b508067ffffffffffffffff811115610e8257610e816146ed565b5b604051908082528060200260200182016040528015610eb05781602001602082028036833780820191505090505b5092506000805b8351811015610f63576000610ee5858381518110610ed857610ed7615130565b5b6020026020010151610d22565b905060005b8151811015610f4e57818181518110610f0657610f05615130565b5b6020026020010151878581518110610f2157610f20615130565b5b6020026020010181815250508380610f38906151e4565b9450508080610f46906151e4565b915050610eea565b50508080610f5b906151e4565b915050610eb7565b50839450505050505b919050565b610f82610f7c6128b2565b82612973565b610fc1576040517f08c379a0000000000000000000000000000000000000000000000000000000008152600401610fb89061529f565b60405180910390fd5b610fcc838383612a08565b505050565b600e6020528160005260406000208181548110610fed57600080fd5b90600052602060002001600091509150505481565b6000600f60008360008151811061101c5761101b615130565b5b6020026020010151815260200190815260200160002054905061103e81612c39565b61107d576040517f08c379a00000000000000000000000000000000000000000000000000000000081526004016110749061530b565b60405180910390fd5b6000600e60008381526020019081526020016000208054806020026020016040519081016040528092919081815260200182805480156110dc57602002820191906000526020600020905b8154815260200190600101908083116110c8575b505050505090506110ed81846117d0565b61112c576040517f08c379a0000000000000000000000000000000000000000000000000000000008152600401611123906153c3565b60405180910390fd5b60005b83518110156111db573373ffffffffffffffffffffffffffffffffffffffff1661117285838151811061116557611164615130565b5b6020026020010151611af8565b73ffffffffffffffffffffffffffffffffffffffff16146111c8576040517f08c379a00000000000000000000000000000000000000000000000000000000081526004016111bf9061542f565b60405180910390fd5b80806111d3906151e4565b91505061112f565b506111e7303384612a08565b60005b83518110156112295761121684828151811061120957611208615130565b5b6020026020010151612c7a565b8080611221906151e4565b9150506111ea565b50600067ffffffffffffffff811115611245576112446146ed565b5b6040519080825280602002602001820160405280156112735781602001602082028036833780820191505090505b50600e6000848152602001908152602001600020908051906020019061129a929190613ec1565b50505050565b6060600860008373ffffffffffffffffffffffffffffffffffffffff1673ffffffffffffffffffffffffffffffffffffffff16815260200190815260200160002080548060200260200160405190810160405280929190818152602001828054801561132b57602002820191906000526020600020905b815481526020019060010190808311611317575b50505050509050919050565b61133f612e4f565b8051825114611383576040517f08c379a000000000000000000000000000000000000000000000000000000000815260040161137a906154c1565b60405180910390fd5b61138d6010612ecd565b60006113996010612ee3565b90506113a58582612ef1565b6113af8185612f65565b60005b835181101561148f57600b600083815260200190815260200160002060405180604001604052808684815181106113ec576113eb615130565b5b6020026020010151815260200185848151811061140c5761140b615130565b5b60200260200101518152509080600181540180825580915050600190039060005260206000209060020201600090919091909150600082015181600001908051906020019061145c929190613f0e565b506020820151816001019080519060200190611479929190613f0e565b5050508080611487906151e4565b9150506113b2565b50803373ffffffffffffffffffffffffffffffffffffffff167f8dd8fd4d09ded7ef8c4e4649c1182e5d807bbcf387f614d92b89ba21bf45c1cd866040516114d79190614362565b60405180910390a35050505050565b60096020528060005260406000206000915090505481565b600061150982612c39565b611548576040517f08c379a000000000000000000000000000000000000000000000000000000000815260040161153f9061530b565b60405180910390fd5b60096000838152602001908152602001600020549050919050565b61157e83838360405180602001604052806000815250611f6e565b505050565b606061158e82612c39565b6115cd576040517f08c379a00000000000000000000000000000000000000000000000000000000081526004016115c49061530b565b60405180910390fd5b6000600b60008481526020019081526020016000208054905067ffffffffffffffff8111156115ff576115fe6146ed565b5b60405190808252806020026020018201604052801561163257816020015b606081526020019060019003908161161d5790505b50905060005b600b60008581526020019081526020016000208054905081101561171357600b6000858152602001908152602001600020818154811061167b5761167a615130565b5b9060005260206000209060020201600001600b600086815260200190815260200160002082815481106116b1576116b0615130565b5b90600052602060002090600202016001016040516020016116d39291906155cc565b6040516020818303038152906040528282815181106116f5576116f4615130565b5b6020026020010181905250808061170b906151e4565b915050611638565b5080915050919050565b606061172882612c39565b611767576040517f08c379a000000000000000000000000000000000000000000000000000000000815260040161175e9061530b565b60405180910390fd5b600a60008381526020019081526020016000208054806020026020016040519081016040528092919081815260200182805480156117c457602002820191906000526020600020905b8154815260200190600101908083116117b0575b50505050509050919050565b600081518351146117e4576000905061183b565b60005b8351811015611835576118148385838151811061180757611806615130565b5b6020026020010151612fd9565b61182257600091505061183b565b808061182d906151e4565b9150506117e7565b50600190505b92915050565b600f6020528060005260406000206000915090505481565b600182511161189d576040517f08c379a00000000000000000000000000000000000000000000000000000000081526004016118949061566d565b60405180910390fd5b3373ffffffffffffffffffffffffffffffffffffffff166118bd84611af8565b73ffffffffffffffffffffffffffffffffffffffff16146118dd57600080fd5b8151815114611921576040517f08c379a0000000000000000000000000000000000000000000000000000000008152600401611918906156ff565b60405180910390fd5b61192c333085611563565b6000805b8351811015611a74576119436010612ecd565b600061194f6010612ee3565b905061195b3382612ef1565b61197f8186848151811061197257611971615130565b5b6020026020010151612f65565b856009600083815260200190815260200160002081905550600a60008781526020019081526020016000208190806001815401808255809150506001900390600052602060002001600090919091909150558382815181106119e4576119e3615130565b5b6020026020010151600d600083815260200190815260200160002081905550838281518110611a1657611a15615130565b5b602002602001015183611a29919061518e565b9250600b6000878152602001908152602001600020600b6000838152602001908152602001600020908054611a5f929190613f94565b50508080611a6c906151e4565b915050611930565b5080600c60008681526020019081526020016000208190555050505050565b6000611a9e82612c39565b611add576040517f08c379a0000000000000000000000000000000000000000000000000000000008152600401611ad49061530b565b60405180910390fd5b600d6000838152602001908152602001600020549050919050565b600080611b0483613035565b9050600073ffffffffffffffffffffffffffffffffffffffff168173ffffffffffffffffffffffffffffffffffffffff161415611b76576040517f08c379a0000000000000000000000000000000000000000000000000000000008152600401611b6d9061576b565b60405180910390fd5b80915050919050565b600a6020528160005260406000208181548110611b9b57600080fd5b90600052602060002001600091509150505481565b6000600860008373ffffffffffffffffffffffffffffffffffffffff1673ffffffffffffffffffffffffffffffffffffffff168152602001908152602001600020805490509050919050565b611c04612e4f565b611c0e6000613072565b565b611c1981612c39565b611c58576040517f08c379a0000000000000000000000000000000000000000000000000000000008152600401611c4f9061530b565b60405180910390fd5b3373ffffffffffffffffffffffffffffffffffffffff16611c7882611af8565b73ffffffffffffffffffffffffffffffffffffffff1614611c9857600080fd5b6001600b60008381526020019081526020016000208054905011611cf1576040517f08c379a0000000000000000000000000000000000000000000000000000000008152600401611ce8906157fd565b60405180910390fd5b611cfc333083611563565b60005b600b600083815260200190815260200160002080549050811015611e6857611d276010612ecd565b6000611d336010612ee3565b9050611d3f3382612ef1565b611d5181611d4c8561210a565b612f65565b82600f600083815260200190815260200160002081905550600e6000848152602001908152602001600020819080600181540180825580915050600190039060005260206000200160009091909190915055600b6000828152602001908152602001600020600b60008581526020019081526020016000208381548110611ddb57611dda615130565b5b906000526020600020906002020190806001815401808255809150506001900390600052602060002090600202016000909190919091506000820181600001908054611e2690614fda565b611e3192919061402c565b506001820181600101908054611e4690614fda565b611e5192919061402c565b505050508080611e60906151e4565b915050611cff565b5050565b6000600760009054906101000a900473ffffffffffffffffffffffffffffffffffffffff16905090565b606060018054611ea590614fda565b80601f0160208091040260200160405190810160405280929190818152602001828054611ed190614fda565b8015611f1e5780601f10611ef357610100808354040283529160200191611f1e565b820191906000526020600020905b815481529060010190602001808311611f0157829003601f168201915b5050505050905090565b600d6020528060005260406000206000915090505481565b611f52611f4b6128b2565b8383613138565b5050565b600c6020528060005260406000206000915090505481565b611f7f611f796128b2565b83612973565b611fbe576040517f08c379a0000000000000000000000000000000000000000000000000000000008152600401611fb59061529f565b60405180910390fd5b611fca848484846132a5565b50505050565b6000611fdb82612c39565b61201a576040517f08c379a00000000000000000000000000000000000000000000000000000000081526004016120119061530b565b60405180910390fd5b600f6000838152602001908152602001600020549050919050565b6000806120426010612ee3565b9050600181612051919061518e565b91505090565b606061206282612c39565b6120a1576040517f08c379a00000000000000000000000000000000000000000000000000000000081526004016120989061530b565b60405180910390fd5b600e60008381526020019081526020016000208054806020026020016040519081016040528092919081815260200182805480156120fe57602002820191906000526020600020905b8154815260200190600101908083116120ea575b50505050509050919050565b606061211582612867565b600060066000848152602001908152602001600020805461213590614fda565b80601f016020809104026020016040519081016040528092919081815260200182805461216190614fda565b80156121ae5780601f10612183576101008083540402835291602001916121ae565b820191906000526020600020905b81548152906001019060200180831161219157829003601f168201915b5050505050905060006121bf613301565b90506000815114156121d5578192505050612218565b60008251111561220a5780826040516020016121f292919061584e565b60405160208183030381529060405292505050612218565b61221384613318565b925050505b919050565b612225612e4f565b61222f6010612ecd565b600061223b6010612ee3565b90506122478382612ef1565b6122518183612f65565b803373ffffffffffffffffffffffffffffffffffffffff167f8dd8fd4d09ded7ef8c4e4649c1182e5d807bbcf387f614d92b89ba21bf45c1cd846040516122989190614362565b60405180910390a3505050565b60018151116122e9576040517f08c379a00000000000000000000000000000000000000000000000000000000081526004016122e09061566d565b60405180910390fd5b3373ffffffffffffffffffffffffffffffffffffffff1661230983611af8565b73ffffffffffffffffffffffffffffffffffffffff161461232957600080fd5b612334333084611563565b8051600c60008481526020019081526020016000208190555060005b8151811015612453576123636010612ecd565b600061236f6010612ee3565b905061237b3382612ef1565b61239f8184848151811061239257612391615130565b5b6020026020010151612f65565b836009600083815260200190815260200160002081905550600a60008581526020019081526020016000208190806001815401808255809150506001900390600052602060002001600090919091909150556001600d600083815260200190815260200160002081905550600b6000858152602001908152602001600020600b600083815260200190815260200160002090805461243e929190613f94565b5050808061244b906151e4565b915050612350565b505050565b6000600960008360008151811061247257612471615130565b5b6020026020010151815260200190815260200160002054905061249481612c39565b6124d3576040517f08c379a00000000000000000000000000000000000000000000000000000000081526004016124ca9061530b565b60405180910390fd5b60006124de82610d22565b90506124ea81846117d0565b612529576040517f08c379a00000000000000000000000000000000000000000000000000000000081526004016125209061590a565b60405180910390fd5b60005b83518110156125a2573373ffffffffffffffffffffffffffffffffffffffff1661256f85838151811061256257612561615130565b5b6020026020010151611af8565b73ffffffffffffffffffffffffffffffffffffffff161461258f57600080fd5b808061259a906151e4565b91505061252c565b506125ae303384612a08565b60005b83518110156125f0576125dd8482815181106125d0576125cf615130565b5b6020026020010151612c7a565b80806125e8906151e4565b9150506125b1565b50600067ffffffffffffffff81111561260c5761260b6146ed565b5b60405190808252806020026020018201604052801561263a5781602001602082028036833780820191505090505b50600a60008481526020019081526020016000209080519060200190612661929190613ec1565b506000600c600084815260200190815260200160002081905550505050565b6000600560008473ffffffffffffffffffffffffffffffffffffffff1673ffffffffffffffffffffffffffffffffffffffff16815260200190815260200160002060008373ffffffffffffffffffffffffffffffffffffffff1673ffffffffffffffffffffffffffffffffffffffff16815260200190815260200160002060009054906101000a900460ff16905092915050565b600061271f82612c39565b61275e576040517f08c379a00000000000000000000000000000000000000000000000000000000081526004016127559061530b565b60405180910390fd5b600c6000838152602001908152602001600020549050919050565b612781612e4f565b600073ffffffffffffffffffffffffffffffffffffffff168173ffffffffffffffffffffffffffffffffffffffff1614156127f1576040517f08c379a00000000000000000000000000000000000000000000000000000000081526004016127e89061599c565b60405180910390fd5b6127fa81613072565b50565b60007f01ffc9a7000000000000000000000000000000000000000000000000000000007bffffffffffffffffffffffffffffffffffffffffffffffffffffffff1916827bffffffffffffffffffffffffffffffffffffffffffffffffffffffff1916149050919050565b61287081612c39565b6128af576040517f08c379a00000000000000000000000000000000000000000000000000000000081526004016128a69061576b565b60405180910390fd5b50565b600033905090565b816004600083815260200190815260200160002060006101000a81548173ffffffffffffffffffffffffffffffffffffffff021916908373ffffffffffffffffffffffffffffffffffffffff160217905550808273ffffffffffffffffffffffffffffffffffffffff1661292d83611af8565b73ffffffffffffffffffffffffffffffffffffffff167f8c5be1e5ebec7d5bd14f71427d1e84f3dd0314c0f7b2291e5b200ac8c7c3b92560405160405180910390a45050565b60008061297f83611af8565b90508073ffffffffffffffffffffffffffffffffffffffff168473ffffffffffffffffffffffffffffffffffffffff1614806129c157506129c08185612680565b5b806129ff57508373ffffffffffffffffffffffffffffffffffffffff166129e784610b96565b73ffffffffffffffffffffffffffffffffffffffff16145b91505092915050565b612a13838383613380565b6000612a5d600860008673ffffffffffffffffffffffffffffffffffffffff1673ffffffffffffffffffffffffffffffffffffffff1681526020019081526020016000208361367a565b9050600860008573ffffffffffffffffffffffffffffffffffffffff1673ffffffffffffffffffffffffffffffffffffffff1681526020019081526020016000206001600860008773ffffffffffffffffffffffffffffffffffffffff1673ffffffffffffffffffffffffffffffffffffffff16815260200190815260200160002080549050612aed91906159bc565b81548110612afe57612afd615130565b5b9060005260206000200154600860008673ffffffffffffffffffffffffffffffffffffffff1673ffffffffffffffffffffffffffffffffffffffff1681526020019081526020016000208281548110612b5a57612b59615130565b5b9060005260206000200181905550600860008573ffffffffffffffffffffffffffffffffffffffff1673ffffffffffffffffffffffffffffffffffffffff168152602001908152602001600020805480612bb757612bb66159f0565b5b60019003818190600052602060002001600090559055600860008473ffffffffffffffffffffffffffffffffffffffff1673ffffffffffffffffffffffffffffffffffffffff16815260200190815260200160002082908060018154018082558091505060019003906000526020600020016000909190919091505550505050565b60008073ffffffffffffffffffffffffffffffffffffffff16612c5b83613035565b73ffffffffffffffffffffffffffffffffffffffff1614159050919050565b6000612c8582611af8565b90506000612cd1600860008473ffffffffffffffffffffffffffffffffffffffff1673ffffffffffffffffffffffffffffffffffffffff1681526020019081526020016000208461367a565b9050600860008373ffffffffffffffffffffffffffffffffffffffff1673ffffffffffffffffffffffffffffffffffffffff1681526020019081526020016000206001600860008573ffffffffffffffffffffffffffffffffffffffff1673ffffffffffffffffffffffffffffffffffffffff16815260200190815260200160002080549050612d6191906159bc565b81548110612d7257612d71615130565b5b9060005260206000200154600860008473ffffffffffffffffffffffffffffffffffffffff1673ffffffffffffffffffffffffffffffffffffffff1681526020019081526020016000208281548110612dce57612dcd615130565b5b9060005260206000200181905550600860008373ffffffffffffffffffffffffffffffffffffffff1673ffffffffffffffffffffffffffffffffffffffff168152602001908152602001600020805480612e2b57612e2a6159f0565b5b60019003818190600052602060002001600090559055612e4a83613711565b505050565b612e576128b2565b73ffffffffffffffffffffffffffffffffffffffff16612e75611e6c565b73ffffffffffffffffffffffffffffffffffffffff1614612ecb576040517f08c379a0000000000000000000000000000000000000000000000000000000008152600401612ec290615a6b565b60405180910390fd5b565b6001816000016000828254019250508190555050565b600081600001549050919050565b612efb8282613764565b600860008373ffffffffffffffffffffffffffffffffffffffff1673ffffffffffffffffffffffffffffffffffffffff1681526020019081526020016000208190806001815401808255809150506001900390600052602060002001600090919091909150555050565b612f6e82612c39565b612fad576040517f08c379a0000000000000000000000000000000000000000000000000000000008152600401612fa490615afd565b60405180910390fd5b80600660008481526020019081526020016000209080519060200190612fd4929190613f0e565b505050565b600080600090505b83518110156130295782848281518110612ffe57612ffd615130565b5b6020026020010151141561301657600191505061302f565b8080613021906151e4565b915050612fe1565b50600090505b92915050565b60006002600083815260200190815260200160002060009054906101000a900473ffffffffffffffffffffffffffffffffffffffff169050919050565b6000600760009054906101000a900473ffffffffffffffffffffffffffffffffffffffff16905081600760006101000a81548173ffffffffffffffffffffffffffffffffffffffff021916908373ffffffffffffffffffffffffffffffffffffffff1602179055508173ffffffffffffffffffffffffffffffffffffffff168173ffffffffffffffffffffffffffffffffffffffff167f8be0079c531659141344cd1fd0a4f28419497f9722a3daafe3b4186f6b6457e060405160405180910390a35050565b8173ffffffffffffffffffffffffffffffffffffffff168373ffffffffffffffffffffffffffffffffffffffff1614156131a7576040517f08c379a000000000000000000000000000000000000000000000000000000000815260040161319e90615b69565b60405180910390fd5b80600560008573ffffffffffffffffffffffffffffffffffffffff1673ffffffffffffffffffffffffffffffffffffffff16815260200190815260200160002060008473ffffffffffffffffffffffffffffffffffffffff1673ffffffffffffffffffffffffffffffffffffffff16815260200190815260200160002060006101000a81548160ff0219169083151502179055508173ffffffffffffffffffffffffffffffffffffffff168373ffffffffffffffffffffffffffffffffffffffff167f17307eab39ab6107e8899845ad3d59bd9653f200f220920489ca2b5937696c31836040516132989190614347565b60405180910390a3505050565b6132b0848484612a08565b6132bc84848484613982565b6132fb576040517f08c379a00000000000000000000000000000000000000000000000000000000081526004016132f290615bfb565b60405180910390fd5b50505050565b606060405180602001604052806000815250905090565b606061332382612867565b600061332d613301565b9050600081511161334d5760405180602001604052806000815250613378565b8061335784613b19565b60405160200161336892919061584e565b6040516020818303038152906040525b915050919050565b8273ffffffffffffffffffffffffffffffffffffffff166133a082611af8565b73ffffffffffffffffffffffffffffffffffffffff16146133f6576040517f08c379a00000000000000000000000000000000000000000000000000000000081526004016133ed90615c8d565b60405180910390fd5b600073ffffffffffffffffffffffffffffffffffffffff168273ffffffffffffffffffffffffffffffffffffffff161415613466576040517f08c379a000000000000000000000000000000000000000000000000000000000815260040161345d90615d1f565b60405180910390fd5b6134738383836001613bf1565b8273ffffffffffffffffffffffffffffffffffffffff1661349382611af8565b73ffffffffffffffffffffffffffffffffffffffff16146134e9576040517f08c379a00000000000000000000000000000000000000000000000000000000081526004016134e090615c8d565b60405180910390fd5b6004600082815260200190815260200160002060006101000a81549073ffffffffffffffffffffffffffffffffffffffff02191690556001600360008573ffffffffffffffffffffffffffffffffffffffff1673ffffffffffffffffffffffffffffffffffffffff168152602001908152602001600020600082825403925050819055506001600360008473ffffffffffffffffffffffffffffffffffffffff1673ffffffffffffffffffffffffffffffffffffffff16815260200190815260200160002060008282540192505081905550816002600083815260200190815260200160002060006101000a81548173ffffffffffffffffffffffffffffffffffffffff021916908373ffffffffffffffffffffffffffffffffffffffff160217905550808273ffffffffffffffffffffffffffffffffffffffff168473ffffffffffffffffffffffffffffffffffffffff167fddf252ad1be2c89b69c2b068fc378daa952ba7f163c4a11628f55a4df523b3ef60405160405180910390a46136758383836001613bf7565b505050565b600080600090505b83805490508110156136cf57828482815481106136a2576136a1615130565b5b906000526020600020015414156136bc578091505061370b565b80806136c7906151e4565b915050613682565b506040517f08c379a000000000000000000000000000000000000000000000000000000000815260040161370290615d8b565b60405180910390fd5b92915050565b61371a81613bfd565b600060066000838152602001908152602001600020805461373a90614fda565b9050146137615760066000828152602001908152602001600020600061376091906140b9565b5b50565b600073ffffffffffffffffffffffffffffffffffffffff168273ffffffffffffffffffffffffffffffffffffffff1614156137d4576040517f08c379a00000000000000000000000000000000000000000000000000000000081526004016137cb90615df7565b60405180910390fd5b6137dd81612c39565b1561381d576040517f08c379a000000000000000000000000000000000000000000000000000000000815260040161381490615e63565b60405180910390fd5b61382b600083836001613bf1565b61383481612c39565b15613874576040517f08c379a000000000000000000000000000000000000000000000000000000000815260040161386b90615e63565b60405180910390fd5b6001600360008473ffffffffffffffffffffffffffffffffffffffff1673ffffffffffffffffffffffffffffffffffffffff16815260200190815260200160002060008282540192505081905550816002600083815260200190815260200160002060006101000a81548173ffffffffffffffffffffffffffffffffffffffff021916908373ffffffffffffffffffffffffffffffffffffffff160217905550808273ffffffffffffffffffffffffffffffffffffffff16600073ffffffffffffffffffffffffffffffffffffffff167fddf252ad1be2c89b69c2b068fc378daa952ba7f163c4a11628f55a4df523b3ef60405160405180910390a461397e600083836001613bf7565b5050565b60006139a38473ffffffffffffffffffffffffffffffffffffffff16613d4b565b15613b0c578373ffffffffffffffffffffffffffffffffffffffff1663150b7a026139cc6128b2565b8786866040518563ffffffff1660e01b81526004016139ee9493929190615ed8565b602060405180830381600087803b158015613a0857600080fd5b505af1925050508015613a3957506040513d601f19601f82011682018060405250810190613a369190615f39565b60015b613abc573d8060008114613a69576040519150601f19603f3d011682016040523d82523d6000602084013e613a6e565b606091505b50600081511415613ab4576040517f08c379a0000000000000000000000000000000000000000000000000000000008152600401613aab90615bfb565b60405180910390fd5b805181602001fd5b63150b7a0260e01b7bffffffffffffffffffffffffffffffffffffffffffffffffffffffff1916817bffffffffffffffffffffffffffffffffffffffffffffffffffffffff191614915050613b11565b600190505b949350505050565b606060006001613b2884613d6e565b01905060008167ffffffffffffffff811115613b4757613b466146ed565b5b6040519080825280601f01601f191660200182016040528015613b795781602001600182028036833780820191505090505b509050600082602001820190505b600115613be6578080600190039150507f3031323334353637383961626364656600000000000000000000000000000000600a86061a8153600a8581613bd057613bcf615f66565b5b0494506000851415613be157613be6565b613b87565b819350505050919050565b50505050565b50505050565b6000613c0882611af8565b9050613c18816000846001613bf1565b613c2182611af8565b90506004600083815260200190815260200160002060006101000a81549073ffffffffffffffffffffffffffffffffffffffff02191690556001600360008373ffffffffffffffffffffffffffffffffffffffff1673ffffffffffffffffffffffffffffffffffffffff168152602001908152602001600020600082825403925050819055506002600083815260200190815260200160002060006101000a81549073ffffffffffffffffffffffffffffffffffffffff021916905581600073ffffffffffffffffffffffffffffffffffffffff168273ffffffffffffffffffffffffffffffffffffffff167fddf252ad1be2c89b69c2b068fc378daa952ba7f163c4a11628f55a4df523b3ef60405160405180910390a4613d47816000846001613bf7565b5050565b6000808273ffffffffffffffffffffffffffffffffffffffff163b119050919050565b600080600090507a184f03e93ff9f4daa797ed6e38ed64bf6a1f0100000000000000008310613dcc577a184f03e93ff9f4daa797ed6e38ed64bf6a1f0100000000000000008381613dc257613dc1615f66565b5b0492506040810190505b6d04ee2d6d415b85acef81000000008310613e09576d04ee2d6d415b85acef81000000008381613dff57613dfe615f66565b5b0492506020810190505b662386f26fc100008310613e3857662386f26fc100008381613e2e57613e2d615f66565b5b0492506010810190505b6305f5e1008310613e61576305f5e1008381613e5757613e56615f66565b5b0492506008810190505b6127108310613e86576127108381613e7c57613e7b615f66565b5b0492506004810190505b60648310613ea95760648381613e9f57613e9e615f66565b5b0492506002810190505b600a8310613eb8576001810190505b80915050919050565b828054828255906000526020600020908101928215613efd579160200282015b82811115613efc578251825591602001919060010190613ee1565b5b509050613f0a91906140f9565b5090565b828054613f1a90614fda565b90600052602060002090601f016020900481019282613f3c5760008555613f83565b82601f10613f5557805160ff1916838001178555613f83565b82800160010185558215613f83579182015b82811115613f82578251825591602001919060010190613f67565b5b509050613f9091906140f9565b5090565b82805482825590600052602060002090600202810192821561401b5760005260206000209160020282015b8281111561401a5782826000820181600001908054613fdd90614fda565b613fe892919061402c565b506001820181600101908054613ffd90614fda565b61400892919061402c565b50505091600201919060020190613fbf565b5b5090506140289190614116565b5090565b82805461403890614fda565b90600052602060002090601f01602090048101928261405a57600085556140a8565b82601f1061406b57805485556140a8565b828001600101855582156140a857600052602060002091601f016020900482015b828111156140a757825482559160010191906001019061408c565b5b5090506140b591906140f9565b5090565b5080546140c590614fda565b6000825580601f106140d757506140f6565b601f0160209004906000526020600020908101906140f591906140f9565b5b50565b5b808211156141125760008160009055506001016140fa565b5090565b5b80821115614149576000808201600061413091906140b9565b60018201600061414091906140b9565b50600201614117565b5090565b6000604051905090565b600080fd5b600080fd5b6000819050919050565b61417481614161565b811461417f57600080fd5b50565b6000813590506141918161416b565b92915050565b600080604083850312156141ae576141ad614157565b5b60006141bc85828601614182565b92505060206141cd85828601614182565b9150509250929050565b600081519050919050565b600082825260208201905092915050565b60005b838110156142115780820151818401526020810190506141f6565b83811115614220576000848401525b50505050565b6000601f19601f8301169050919050565b6000614242826141d7565b61424c81856141e2565b935061425c8185602086016141f3565b61426581614226565b840191505092915050565b6000604082019050818103600083015261428a8185614237565b9050818103602083015261429e8184614237565b90509392505050565b60007fffffffff0000000000000000000000000000000000000000000000000000000082169050919050565b6142dc816142a7565b81146142e757600080fd5b50565b6000813590506142f9816142d3565b92915050565b60006020828403121561431557614314614157565b5b6000614323848285016142ea565b91505092915050565b60008115159050919050565b6143418161432c565b82525050565b600060208201905061435c6000830184614338565b92915050565b6000602082019050818103600083015261437c8184614237565b905092915050565b60006020828403121561439a57614399614157565b5b60006143a884828501614182565b91505092915050565b600073ffffffffffffffffffffffffffffffffffffffff82169050919050565b60006143dc826143b1565b9050919050565b6143ec816143d1565b82525050565b600060208201905061440760008301846143e3565b92915050565b614416816143d1565b811461442157600080fd5b50565b6000813590506144338161440d565b92915050565b600080604083850312156144505761444f614157565b5b600061445e85828601614424565b925050602061446f85828601614182565b9150509250929050565b600080fd5b600080fd5b600080fd5b60008083601f84011261449e5761449d614479565b5b8235905067ffffffffffffffff8111156144bb576144ba61447e565b5b6020830191508360018202830111156144d7576144d6614483565b5b9250929050565b6000806000806000608086880312156144fa576144f9614157565b5b600061450888828901614424565b955050602061451988828901614424565b945050604061452a88828901614182565b935050606086013567ffffffffffffffff81111561454b5761454a61415c565b5b61455788828901614488565b92509250509295509295909350565b61456f816142a7565b82525050565b600060208201905061458a6000830184614566565b92915050565b600081519050919050565b600082825260208201905092915050565b6000819050602082019050919050565b6145c581614161565b82525050565b60006145d783836145bc565b60208301905092915050565b6000602082019050919050565b60006145fb82614590565b614605818561459b565b9350614610836145ac565b8060005b8381101561464157815161462888826145cb565b9750614633836145e3565b925050600181019050614614565b5085935050505092915050565b6000602082019050818103600083015261466881846145f0565b905092915050565b60008060006060848603121561468957614688614157565b5b600061469786828701614424565b93505060206146a886828701614424565b92505060406146b986828701614182565b9150509250925092565b6146cc81614161565b82525050565b60006020820190506146e760008301846146c3565b92915050565b7f4e487b7100000000000000000000000000000000000000000000000000000000600052604160045260246000fd5b61472582614226565b810181811067ffffffffffffffff82111715614744576147436146ed565b5b80604052505050565b600061475761414d565b9050614763828261471c565b919050565b600067ffffffffffffffff821115614783576147826146ed565b5b602082029050602081019050919050565b60006147a76147a284614768565b61474d565b905080838252602082019050602084028301858111156147ca576147c9614483565b5b835b818110156147f357806147df8882614182565b8452602084019350506020810190506147cc565b5050509392505050565b600082601f83011261481257614811614479565b5b8135614822848260208601614794565b91505092915050565b60006020828403121561484157614840614157565b5b600082013567ffffffffffffffff81111561485f5761485e61415c565b5b61486b848285016147fd565b91505092915050565b60006020828403121561488a57614889614157565b5b600061489884828501614424565b91505092915050565b600080fd5b600067ffffffffffffffff8211156148c1576148c06146ed565b5b6148ca82614226565b9050602081019050919050565b82818337600083830152505050565b60006148f96148f4846148a6565b61474d565b905082815260208101848484011115614915576149146148a1565b5b6149208482856148d7565b509392505050565b600082601f83011261493d5761493c614479565b5b813561494d8482602086016148e6565b91505092915050565b600067ffffffffffffffff821115614971576149706146ed565b5b602082029050602081019050919050565b600061499561499084614956565b61474d565b905080838252602082019050602084028301858111156149b8576149b7614483565b5b835b818110156149ff57803567ffffffffffffffff8111156149dd576149dc614479565b5b8086016149ea8982614928565b855260208501945050506020810190506149ba565b5050509392505050565b600082601f830112614a1e57614a1d614479565b5b8135614a2e848260208601614982565b91505092915050565b60008060008060808587031215614a5157614a50614157565b5b6000614a5f87828801614424565b945050602085013567ffffffffffffffff811115614a8057614a7f61415c565b5b614a8c87828801614928565b935050604085013567ffffffffffffffff811115614aad57614aac61415c565b5b614ab987828801614a09565b925050606085013567ffffffffffffffff811115614ada57614ad961415c565b5b614ae687828801614a09565b91505092959194509250565b600081519050919050565b600082825260208201905092915050565b6000819050602082019050919050565b600082825260208201905092915050565b6000614b3a826141d7565b614b448185614b1e565b9350614b548185602086016141f3565b614b5d81614226565b840191505092915050565b6000614b748383614b2f565b905092915050565b6000602082019050919050565b6000614b9482614af2565b614b9e8185614afd565b935083602082028501614bb085614b0e565b8060005b85811015614bec5784840389528151614bcd8582614b68565b9450614bd883614b7c565b925060208a01995050600181019050614bb4565b50829750879550505050505092915050565b60006020820190508181036000830152614c188184614b89565b905092915050565b60008060408385031215614c3757614c36614157565b5b600083013567ffffffffffffffff811115614c5557614c5461415c565b5b614c61858286016147fd565b925050602083013567ffffffffffffffff811115614c8257614c8161415c565b5b614c8e858286016147fd565b9150509250929050565b600080600060608486031215614cb157614cb0614157565b5b6000614cbf86828701614182565b935050602084013567ffffffffffffffff811115614ce057614cdf61415c565b5b614cec86828701614a09565b925050604084013567ffffffffffffffff811115614d0d57614d0c61415c565b5b614d19868287016147fd565b9150509250925092565b614d2c8161432c565b8114614d3757600080fd5b50565b600081359050614d4981614d23565b92915050565b60008060408385031215614d6657614d65614157565b5b6000614d7485828601614424565b9250506020614d8585828601614d3a565b9150509250929050565b600067ffffffffffffffff821115614daa57614da96146ed565b5b614db382614226565b9050602081019050919050565b6000614dd3614dce84614d8f565b61474d565b905082815260208101848484011115614def57614dee6148a1565b5b614dfa8482856148d7565b509392505050565b600082601f830112614e1757614e16614479565b5b8135614e27848260208601614dc0565b91505092915050565b60008060008060808587031215614e4a57614e49614157565b5b6000614e5887828801614424565b9450506020614e6987828801614424565b9350506040614e7a87828801614182565b925050606085013567ffffffffffffffff811115614e9b57614e9a61415c565b5b614ea787828801614e02565b91505092959194509250565b60008060408385031215614eca57614ec9614157565b5b6000614ed885828601614424565b925050602083013567ffffffffffffffff811115614ef957614ef861415c565b5b614f0585828601614928565b9150509250929050565b60008060408385031215614f2657614f25614157565b5b6000614f3485828601614182565b925050602083013567ffffffffffffffff811115614f5557614f5461415c565b5b614f6185828601614a09565b9150509250929050565b60008060408385031215614f8257614f81614157565b5b6000614f9085828601614424565b9250506020614fa185828601614424565b9150509250929050565b7f4e487b7100000000000000000000000000000000000000000000000000000000600052602260045260246000fd5b60006002820490506001821680614ff257607f821691505b6020821081141561500657615005614fab565b5b50919050565b7f4552433732313a20617070726f76616c20746f2063757272656e74206f776e6560008201527f7200000000000000000000000000000000000000000000000000000000000000602082015250565b60006150686021836141e2565b91506150738261500c565b604082019050919050565b600060208201905081810360008301526150978161505b565b9050919050565b7f4552433732313a20617070726f76652063616c6c6572206973206e6f7420746f60008201527f6b656e206f776e6572206f7220617070726f76656420666f7220616c6c000000602082015250565b60006150fa603d836141e2565b91506151058261509e565b604082019050919050565b60006020820190508181036000830152615129816150ed565b9050919050565b7f4e487b7100000000000000000000000000000000000000000000000000000000600052603260045260246000fd5b7f4e487b7100000000000000000000000000000000000000000000000000000000600052601160045260246000fd5b600061519982614161565b91506151a483614161565b9250827fffffffffffffffffffffffffffffffffffffffffffffffffffffffffffffffff038211156151d9576151d861515f565b5b828201905092915050565b60006151ef82614161565b91507fffffffffffffffffffffffffffffffffffffffffffffffffffffffffffffffff8214156152225761522161515f565b5b600182019050919050565b7f4552433732313a2063616c6c6572206973206e6f7420746f6b656e206f776e6560008201527f72206f7220617070726f76656400000000000000000000000000000000000000602082015250565b6000615289602d836141e2565b91506152948261522d565b604082019050919050565b600060208201905081810360008301526152b88161527c565b9050919050565b7f546f6b656e20646f6573206e6f74206578697374000000000000000000000000600082015250565b60006152f56014836141e2565b9150615300826152bf565b602082019050919050565b60006020820190508181036000830152615324816152e8565b9050919050565b7f506172747320617265206e6f742066726f6d207468652073616d6520616e636560008201527f73746f72206f72206e6f7420616c6c207061727473206172652070726573656e60208201527f7400000000000000000000000000000000000000000000000000000000000000604082015250565b60006153ad6041836141e2565b91506153b88261532b565b606082019050919050565b600060208201905081810360008301526153dc816153a0565b9050919050565b7f496e76616c696420636f6d62696e650000000000000000000000000000000000600082015250565b6000615419600f836141e2565b9150615424826153e3565b602082019050919050565b600060208201905081810360008301526154488161540c565b9050919050565b7f4174747269627574657320616e642076616c756573206d75737420686176652060008201527f7468652073616d65206c656e6774680000000000000000000000000000000000602082015250565b60006154ab602f836141e2565b91506154b68261544f565b604082019050919050565b600060208201905081810360008301526154da8161549e565b9050919050565b600081905092915050565b60008190508160005260206000209050919050565b6000815461550e81614fda565b61551881866154e1565b94506001821660008114615533576001811461554457615577565b60ff19831686528186019350615577565b61554d856154ec565b60005b8381101561556f57815481890152600182019150602081019050615550565b838801955050505b50505092915050565b7f2400000000000000000000000000000000000000000000000000000000000000600082015250565b60006155b66001836154e1565b91506155c182615580565b600182019050919050565b60006155d88285615501565b91506155e3826155a9565b91506155ef8284615501565b91508190509392505050565b7f5468657265206d757374206265206d6f7265207468616e206f6e65206368696c60008201527f6420746f6b656e00000000000000000000000000000000000000000000000000602082015250565b60006156576027836141e2565b9150615662826155fb565b604082019050919050565b600060208201905081810360008301526156868161564a565b9050919050565b7f53686172657320616e6420746f6b656e55524973206d7573742068617665207460008201527f68652073616d65206c656e677468000000000000000000000000000000000000602082015250565b60006156e9602e836141e2565b91506156f48261568d565b604082019050919050565b60006020820190508181036000830152615718816156dc565b9050919050565b7f4552433732313a20696e76616c696420746f6b656e2049440000000000000000600082015250565b60006157556018836141e2565b91506157608261571f565b602082019050919050565b6000602082019050818103600083015261578481615748565b9050919050565b7f546f6b656e20686173206e6f20617474726962757465732f6f6e6c79206f6e6560008201527f2061747472696275746500000000000000000000000000000000000000000000602082015250565b60006157e7602a836141e2565b91506157f28261578b565b604082019050919050565b60006020820190508181036000830152615816816157da565b9050919050565b6000615828826141d7565b61583281856154e1565b93506158428185602086016141f3565b80840191505092915050565b600061585a828561581d565b9150615866828461581d565b91508190509392505050565b7f44657363656e64616e747320617265206e6f742066726f6d207468652073616d60008201527f6520616e636573746f72206f72206e6f7420616c6c2064657363656e64616e7460208201527f73206172652070726573656e7400000000000000000000000000000000000000604082015250565b60006158f4604d836141e2565b91506158ff82615872565b606082019050919050565b60006020820190508181036000830152615923816158e7565b9050919050565b7f4f776e61626c653a206e6577206f776e657220697320746865207a65726f206160008201527f6464726573730000000000000000000000000000000000000000000000000000602082015250565b60006159866026836141e2565b91506159918261592a565b604082019050919050565b600060208201905081810360008301526159b581615979565b9050919050565b60006159c782614161565b91506159d283614161565b9250828210156159e5576159e461515f565b5b828203905092915050565b7f4e487b7100000000000000000000000000000000000000000000000000000000600052603160045260246000fd5b7f4f776e61626c653a2063616c6c6572206973206e6f7420746865206f776e6572600082015250565b6000615a556020836141e2565b9150615a6082615a1f565b602082019050919050565b60006020820190508181036000830152615a8481615a48565b9050919050565b7f45524337323155524953746f726167653a2055524920736574206f66206e6f6e60008201527f6578697374656e7420746f6b656e000000000000000000000000000000000000602082015250565b6000615ae7602e836141e2565b9150615af282615a8b565b604082019050919050565b60006020820190508181036000830152615b1681615ada565b9050919050565b7f4552433732313a20617070726f766520746f2063616c6c657200000000000000600082015250565b6000615b536019836141e2565b9150615b5e82615b1d565b602082019050919050565b60006020820190508181036000830152615b8281615b46565b9050919050565b7f4552433732313a207472616e7366657220746f206e6f6e20455243373231526560008201527f63656976657220696d706c656d656e7465720000000000000000000000000000602082015250565b6000615be56032836141e2565b9150615bf082615b89565b604082019050919050565b60006020820190508181036000830152615c1481615bd8565b9050919050565b7f4552433732313a207472616e736665722066726f6d20696e636f72726563742060008201527f6f776e6572000000000000000000000000000000000000000000000000000000602082015250565b6000615c776025836141e2565b9150615c8282615c1b565b604082019050919050565b60006020820190508181036000830152615ca681615c6a565b9050919050565b7f4552433732313a207472616e7366657220746f20746865207a65726f2061646460008201527f7265737300000000000000000000000000000000000000000000000000000000602082015250565b6000615d096024836141e2565b9150615d1482615cad565b604082019050919050565b60006020820190508181036000830152615d3881615cfc565b9050919050565b7f456c656d656e74206e6f7420666f756e6420696e206172726179000000000000600082015250565b6000615d75601a836141e2565b9150615d8082615d3f565b602082019050919050565b60006020820190508181036000830152615da481615d68565b9050919050565b7f4552433732313a206d696e7420746f20746865207a65726f2061646472657373600082015250565b6000615de16020836141e2565b9150615dec82615dab565b602082019050919050565b60006020820190508181036000830152615e1081615dd4565b9050919050565b7f4552433732313a20746f6b656e20616c7265616479206d696e74656400000000600082015250565b6000615e4d601c836141e2565b9150615e5882615e17565b602082019050919050565b60006020820190508181036000830152615e7c81615e40565b9050919050565b600081519050919050565b600082825260208201905092915050565b6000615eaa82615e83565b615eb48185615e8e565b9350615ec48185602086016141f3565b615ecd81614226565b840191505092915050565b6000608082019050615eed60008301876143e3565b615efa60208301866143e3565b615f0760408301856146c3565b8181036060830152615f198184615e9f565b905095945050505050565b600081519050615f33816142d3565b92915050565b600060208284031215615f4f57615f4e614157565b5b6000615f5d84828501615f24565b91505092915050565b7f4e487b7100000000000000000000000000000000000000000000000000000000600052601260045260246000fdfea26469706673582212208bd42a9c024831c5fda2609b1b0764538753b4d2d64288c44ed3fc170ec1887464736f6c63430008090033",
  "linkReferences": {},
  "deployedLinkReferences": {}
}